{
  "address": "0x7b384346Af799093eB1d9e3B6c48E28Ebee5F92d",
  "abi": [
    {
      "inputs": [
        {
          "internalType": "address",
          "name": "_marketplace",
          "type": "address"
        }
      ],
      "stateMutability": "nonpayable",
      "type": "constructor"
    },
    {
      "inputs": [],
      "name": "InvalidOrderLength",
      "type": "error"
    },
    {
      "inputs": [
        {
          "internalType": "uint256",
          "name": "length",
          "type": "uint256"
        }
      ],
      "name": "SignatureLengthInvalid",
      "type": "error"
    },
    {
      "inputs": [],
      "name": "SignatureParameterSInvalid",
      "type": "error"
    },
    {
      "inputs": [
        {
          "internalType": "uint8",
          "name": "v",
          "type": "uint8"
        }
      ],
      "name": "SignatureParameterVInvalid",
      "type": "error"
    },
    {
      "inputs": [
        {
          "components": [
            {
              "internalType": "address",
              "name": "signer",
              "type": "address"
            },
            {
              "internalType": "address",
              "name": "collection",
              "type": "address"
            },
            {
              "internalType": "enum CollectionType",
              "name": "collectionType",
              "type": "uint8"
            },
            {
              "internalType": "uint256[]",
              "name": "tokenIds",
              "type": "uint256[]"
            },
            {
              "internalType": "uint256[]",
              "name": "amounts",
              "type": "uint256[]"
            },
            {
              "internalType": "uint256",
              "name": "price",
              "type": "uint256"
            },
            {
              "internalType": "address",
              "name": "currency",
              "type": "address"
            },
            {
              "internalType": "uint256",
              "name": "startTime",
              "type": "uint256"
            },
            {
              "internalType": "uint256",
              "name": "endTime",
              "type": "uint256"
            },
            {
              "internalType": "bytes",
              "name": "signature",
              "type": "bytes"
            }
          ],
          "internalType": "struct BasicOrder[]",
          "name": "orders",
          "type": "tuple[]"
        },
        {
          "internalType": "bytes[]",
          "name": "ordersExtraData",
          "type": "bytes[]"
        },
        {
          "internalType": "bytes",
          "name": "",
          "type": "bytes"
        },
        {
          "internalType": "address",
          "name": "recipient",
          "type": "address"
        },
        {
          "internalType": "bool",
          "name": "isAtomic",
          "type": "bool"
        }
      ],
      "name": "execute",
      "outputs": [],
      "stateMutability": "payable",
      "type": "function"
    },
    {
      "inputs": [],
      "name": "marketplace",
      "outputs": [
        {
          "internalType": "contract ILooksRareExchange",
          "name": "",
          "type": "address"
        }
      ],
      "stateMutability": "view",
      "type": "function"
    }
  ],
  "transactionHash": "0x698324aea85e6ea8b4fea6156e9aa756c88319f60ede3c9206b0128f46db87cf",
  "args": [
    "0x2FCf6eB6544F991e971f7aA03322FD3fF9b8794e"
  ],
  "numDeployments": 1,
  "solcInputHash": "3cc002f9962911b41fba7573c29b59f3",
  "bytecode": "0x60a060405234801561001057600080fd5b50604051610f54380380610f5483398101604081905261002f91610044565b60601b6001600160601b031916608052610074565b60006020828403121561005657600080fd5b81516001600160a01b038116811461006d57600080fd5b9392505050565b60805160601c610eb561009f6000396000818160550152818161056001526106290152610eb56000f3fe6080604052600436106100295760003560e01c8063a809ce351461002e578063abc8c7af14610043575b600080fd5b61004161003c3660046108c1565b6100a0565b005b34801561004f57600080fd5b506100777f000000000000000000000000000000000000000000000000000000000000000081565b60405173ffffffffffffffffffffffffffffffffffffffff909116815260200160405180910390f35b858015806100ae5750808514155b156100e5576040517fc588f91000000000000000000000000000000000000000000000000000000000815260040160405180910390fd5b60005b818110156103b0573689898381811061010357610103610e21565b90506020028101906101159190610d65565b9050600088888481811061012b5761012b610e21565b905060200281019061013d9190610d00565b81019061014a9190610a07565b60408051610200810182526000602080830182905292820181905260608083018290526080830182905260a0830182905260c0830182905260e0830182905261010083018290526101208301829052610140830182905261016083018290526101808301526101a082018190526101c082018190526101e0820152600181529192506101d89084018461089f565b73ffffffffffffffffffffffffffffffffffffffff16602080830191909152610207906040850190850161089f565b73ffffffffffffffffffffffffffffffffffffffff16604082015261022f6060840184610c98565b600081811061024057610240610e21565b6020029190910135608080840191909152835160608401526102659150840184610c98565b600081811061027657610276610e21565b6020908102929092013560a084015250606083015173ffffffffffffffffffffffffffffffffffffffff1660c0808401919091526040840151610100840152908301516101608301526102cf9060e0850190850161089f565b73ffffffffffffffffffffffffffffffffffffffff1660e08083019190915283013561012080830191909152610100840135610140830152600090819081906103239061031e90880188610d00565b6103bb565b60ff166101a08701526101c08601919091526101e085015250506040805160c08101825260008082526060808301828152608080850193845260a08086018490523060208701528a01358587015287015190526101608601519091529092506103a191839185918c9161039b91908a01908a016109e6565b8b610518565b846001019450505050506100e8565b505050505050505050565b600080808360418114156103e3578535935060208601359250604086013560001a9150610462565b806040141561042857853593507f7fffffffffffffffffffffffffffffffffffffffffffffffffffffffffffffff6020870135908116935060ff1c601b019150610462565b6040517fd42b4bbd000000000000000000000000000000000000000000000000000000008152600481018290526024015b60405180910390fd5b7f7fffffffffffffffffffffffffffffff5d576e7357a4501ddfe92f46681b20a08311156104bc576040517fc185125200000000000000000000000000000000000000000000000000000000815260040160405180910390fd5b8160ff16601b141580156104d457508160ff16601c14155b15610510576040517f417893a400000000000000000000000000000000000000000000000000000000815260ff83166004820152602401610459565b509250925092565b80156105e75760408086015190517fb4e4b29600000000000000000000000000000000000000000000000000000000815273ffffffffffffffffffffffffffffffffffffffff7f0000000000000000000000000000000000000000000000000000000000000000169163b4e4b296916105979089908990600401610adc565b6000604051808303818588803b1580156105b057600080fd5b505af11580156105c4573d6000803e3d6000fd5b50505050506105e28285604001518587608001518860a001516106b4565b6106ad565b60408086015190517fb4e4b29600000000000000000000000000000000000000000000000000000000815273ffffffffffffffffffffffffffffffffffffffff7f0000000000000000000000000000000000000000000000000000000000000000169163b4e4b296916106609089908990600401610adc565b6000604051808303818588803b15801561067957600080fd5b505af19350505050801561068b575060015b610694576106ad565b6106ad8285604001518587608001518860a001516106b4565b5050505050565b60008560018111156106c8576106c8610df2565b1415610761576040517f23b872dd00000000000000000000000000000000000000000000000000000000815230600482015273ffffffffffffffffffffffffffffffffffffffff8481166024830152604482018490528516906323b872dd90606401600060405180830381600087803b15801561074457600080fd5b505af1158015610758573d6000803e3d6000fd5b505050506106ad565b600185600181111561077557610775610df2565b14156106ad576040517ff242432a00000000000000000000000000000000000000000000000000000000815230600482015273ffffffffffffffffffffffffffffffffffffffff8481166024830152604482018490526064820183905260a06084830152600060a483015285169063f242432a9060c401600060405180830381600087803b15801561080657600080fd5b505af11580156103b0573d6000803e3d6000fd5b803573ffffffffffffffffffffffffffffffffffffffff8116811461083e57600080fd5b919050565b60008083601f84011261085557600080fd5b50813567ffffffffffffffff81111561086d57600080fd5b6020830191508360208260051b850101111561088857600080fd5b9250929050565b8035801515811461083e57600080fd5b6000602082840312156108b157600080fd5b6108ba8261081a565b9392505050565b600080600080600080600060a0888a0312156108dc57600080fd5b873567ffffffffffffffff808211156108f457600080fd5b6109008b838c01610843565b909950975060209150898201358181111561091a57600080fd5b6109268c828d01610843565b90985096505060408a01358181111561093e57600080fd5b8a01601f81018c1361094f57600080fd5b80358281111561096157610961610e50565b610991847fffffffffffffffffffffffffffffffffffffffffffffffffffffffffffffffe0601f84011601610da3565b92508083528c848284010111156109a757600080fd5b80848301858501376000848285010152505080945050506109ca6060890161081a565b91506109d86080890161088f565b905092959891949750929550565b6000602082840312156109f857600080fd5b8135600281106108ba57600080fd5b600060808284031215610a1957600080fd5b6040516080810181811067ffffffffffffffff82111715610a3c57610a3c610e50565b8060405250823581526020830135602082015260408301356040820152610a656060840161081a565b60608201529392505050565b6000815180845260005b81811015610a9757602081850181015186830182015201610a7b565b81811115610aa9576000602083870101525b50601f017fffffffffffffffffffffffffffffffffffffffffffffffffffffffffffffffe0169290920160200192915050565b60408152600061010084511515604084015273ffffffffffffffffffffffffffffffffffffffff602086015116606084015260408501516080840152606085015160a0840152608085015160c084015260a085015160c060e0850152610b4482850182610a71565b848103602086015285511515815290506102006020860151610b7e602084018273ffffffffffffffffffffffffffffffffffffffff169052565b506040860151610ba6604084018273ffffffffffffffffffffffffffffffffffffffff169052565b50606086015160608301526080860151608083015260a086015160a083015260c0860151610bec60c084018273ffffffffffffffffffffffffffffffffffffffff169052565b5060e0860151610c1460e084018273ffffffffffffffffffffffffffffffffffffffff169052565b50858301519282019290925261012080860151908201526101408086015190820152610160808601519082015261018080860151818301849052909290610c5d82840182610a71565b935050506101a080860151610c768284018260ff169052565b50506101c085810151908201526101e094850151940193909352509092915050565b60008083357fffffffffffffffffffffffffffffffffffffffffffffffffffffffffffffffe1843603018112610ccd57600080fd5b83018035915067ffffffffffffffff821115610ce857600080fd5b6020019150600581901b360382131561088857600080fd5b60008083357fffffffffffffffffffffffffffffffffffffffffffffffffffffffffffffffe1843603018112610d3557600080fd5b83018035915067ffffffffffffffff821115610d5057600080fd5b60200191503681900382131561088857600080fd5b600082357ffffffffffffffffffffffffffffffffffffffffffffffffffffffffffffffec1833603018112610d9957600080fd5b9190910192915050565b604051601f82017fffffffffffffffffffffffffffffffffffffffffffffffffffffffffffffffe016810167ffffffffffffffff81118282101715610dea57610dea610e50565b604052919050565b7f4e487b7100000000000000000000000000000000000000000000000000000000600052602160045260246000fd5b7f4e487b7100000000000000000000000000000000000000000000000000000000600052603260045260246000fd5b7f4e487b7100000000000000000000000000000000000000000000000000000000600052604160045260246000fdfea26469706673582212205cec482647598135be6d79a9e302eba45c3f274c6c7b4365a45f4f1d1e340d0064736f6c63430008070033",
  "devdoc": {
    "kind": "dev",
    "methods": {
      "constructor": {
        "params": {
          "_marketplace": "LooksRareExchange's address"
        }
      },
      "execute((address,address,uint8,uint256[],uint256[],uint256,address,uint256,uint256,bytes)[],bytes[],bytes,address,bool)": {
        "details": "extraData is not used",
        "params": {
          "isAtomic": "Flag to enable atomic trades (all or nothing) or partial trades",
          "orders": "Orders to be executed by LooksRare",
          "ordersExtraData": "Extra data for each order",
          "recipient": "The address to receive the purchased NFTs"
        }
      }
    },
    "title": "LooksRareProxy",
    "version": 1
  },
  "userdoc": {
    "errors": {
      "SignatureLengthInvalid(uint256)": [
        {
          "notice": "It is emitted if the signature's length is neither 64 nor 65 bytes."
        }
      ],
      "SignatureParameterSInvalid()": [
        {
          "notice": "It is emitted if the signature is invalid due to S parameter."
        }
      ],
      "SignatureParameterVInvalid(uint8)": [
        {
          "notice": "It is emitted if the signature is invalid due to V parameter."
        }
      ]
    },
    "kind": "user",
    "methods": {
      "execute((address,address,uint8,uint256[],uint256[],uint256,address,uint256,uint256,bytes)[],bytes[],bytes,address,bool)": {
        "notice": "Execute LooksRare NFT sweeps in a single transaction"
      }
    },
    "notice": "This contract allows NFT sweepers to batch buy NFTs from LooksRare         by passing high-level structs + low-level bytes as calldata.",
    "version": 1
  },
  "storageLayout": {
    "storage": [],
    "types": null
  }
}