{
  "address": "0xac7B54F18f0afC7B1227d931475aCC7e0EB96Ed5",
  "abi": [
    {
      "inputs": [
        {
          "internalType": "address",
          "name": "_royaltyFeeRegistry",
          "type": "address"
        }
      ],
      "stateMutability": "nonpayable",
      "type": "constructor"
    },
    {
      "anonymous": false,
      "inputs": [
        {
          "indexed": true,
          "internalType": "address",
          "name": "previousOwner",
          "type": "address"
        },
        {
          "indexed": true,
          "internalType": "address",
          "name": "newOwner",
          "type": "address"
        }
      ],
      "name": "OwnershipTransferred",
      "type": "event"
    },
    {
      "inputs": [],
      "name": "INTERFACE_ID_ERC2981",
      "outputs": [
        {
          "internalType": "bytes4",
          "name": "",
          "type": "bytes4"
        }
      ],
      "stateMutability": "view",
      "type": "function"
    },
    {
      "inputs": [
        {
          "internalType": "address",
          "name": "collection",
          "type": "address"
        },
        {
          "internalType": "uint256",
          "name": "tokenId",
          "type": "uint256"
        },
        {
          "internalType": "uint256",
          "name": "amount",
          "type": "uint256"
        }
      ],
      "name": "calculateRoyaltyFeeAndGetRecipient",
      "outputs": [
        {
          "internalType": "address",
          "name": "",
          "type": "address"
        },
        {
          "internalType": "uint256",
          "name": "",
          "type": "uint256"
        }
      ],
      "stateMutability": "view",
      "type": "function"
    },
    {
      "inputs": [],
      "name": "owner",
      "outputs": [
        {
          "internalType": "address",
          "name": "",
          "type": "address"
        }
      ],
      "stateMutability": "view",
      "type": "function"
    },
    {
      "inputs": [],
      "name": "renounceOwnership",
      "outputs": [],
      "stateMutability": "nonpayable",
      "type": "function"
    },
    {
      "inputs": [],
      "name": "royaltyFeeRegistry",
      "outputs": [
        {
          "internalType": "contract IRoyaltyFeeRegistry",
          "name": "",
          "type": "address"
        }
      ],
      "stateMutability": "view",
      "type": "function"
    },
    {
      "inputs": [
        {
          "internalType": "address",
          "name": "newOwner",
          "type": "address"
        }
      ],
      "name": "transferOwnership",
      "outputs": [],
      "stateMutability": "nonpayable",
      "type": "function"
    }
  ],
  "transactionHash": "0x1e7daeed2b287f228cb58c6660aa6fea2d010b77e285bca5a47cd8a1105378d8",
  "args": [
    "0x502EcC2dE21BA2e9ADD883Da4E162e66F85982CB"
  ],
  "numDeployments": 1,
  "solcInputHash": "9b1f25f60f25cdea13c82d221bb53b0c",
  "bytecode": "0x60a060405234801561001057600080fd5b5060405161083138038061083183398101604081905261002f9161009d565b6100383361004d565b60601b6001600160601b0319166080526100cd565b600080546001600160a01b038381166001600160a01b0319831681178455604051919092169283917f8be0079c531659141344cd1fd0a4f28419497f9722a3daafe3b4186f6b6457e09190a35050565b6000602082840312156100af57600080fd5b81516001600160a01b03811681146100c657600080fd5b9392505050565b60805160601c61073f6100f26000396000818161012201526103ad015261073f6000f3fe608060405234801561001057600080fd5b50600436106100725760003560e01c8063c16f515611610050578063c16f51561461011d578063f2fde38b14610144578063f4f635fa1461015757600080fd5b8063715018a6146100775780638da5cb5b14610081578063b060dd86146100c5575b600080fd5b61007f610196565b005b60005473ffffffffffffffffffffffffffffffffffffffff165b60405173ffffffffffffffffffffffffffffffffffffffff90911681526020015b60405180910390f35b6100ec7f2a55205a0000000000000000000000000000000000000000000000000000000081565b6040517fffffffff0000000000000000000000000000000000000000000000000000000090911681526020016100bc565b61009b7f000000000000000000000000000000000000000000000000000000000000000081565b61007f61015236600461063e565b610228565b61016a610165366004610690565b610358565b6040805173ffffffffffffffffffffffffffffffffffffffff90931683526020830191909152016100bc565b60005473ffffffffffffffffffffffffffffffffffffffff16331461021c576040517f08c379a000000000000000000000000000000000000000000000000000000000815260206004820181905260248201527f4f776e61626c653a2063616c6c6572206973206e6f7420746865206f776e657260448201526064015b60405180910390fd5b61022660006105c9565b565b60005473ffffffffffffffffffffffffffffffffffffffff1633146102a9576040517f08c379a000000000000000000000000000000000000000000000000000000000815260206004820181905260248201527f4f776e61626c653a2063616c6c6572206973206e6f7420746865206f776e65726044820152606401610213565b73ffffffffffffffffffffffffffffffffffffffff811661034c576040517f08c379a000000000000000000000000000000000000000000000000000000000815260206004820152602660248201527f4f776e61626c653a206e6577206f776e657220697320746865207a65726f206160448201527f64647265737300000000000000000000000000000000000000000000000000006064820152608401610213565b610355816105c9565b50565b6040517f2782d6c700000000000000000000000000000000000000000000000000000000815273ffffffffffffffffffffffffffffffffffffffff8481166004830152602482018390526000918291829182917f00000000000000000000000000000000000000000000000000000000000000001690632782d6c790604401604080518083038186803b1580156103ee57600080fd5b505afa158015610402573d6000803e3d6000fd5b505050506040513d601f19601f820116820180604052508101906104269190610662565b909250905073ffffffffffffffffffffffffffffffffffffffff8216158061044c575080155b156105bd576040517f01ffc9a70000000000000000000000000000000000000000000000000000000081527f2a55205a00000000000000000000000000000000000000000000000000000000600482015273ffffffffffffffffffffffffffffffffffffffff8816906301ffc9a79060240160206040518083038186803b1580156104d657600080fd5b505afa1580156104ea573d6000803e3d6000fd5b505050506040513d601f19601f8201168201806040525081019061050e91906106c5565b156105bd576040517f2a55205a000000000000000000000000000000000000000000000000000000008152600481018790526024810186905273ffffffffffffffffffffffffffffffffffffffff881690632a55205a90604401604080518083038186803b15801561057f57600080fd5b505afa158015610593573d6000803e3d6000fd5b505050506040513d601f19601f820116820180604052508101906105b79190610662565b90925090505b90969095509350505050565b6000805473ffffffffffffffffffffffffffffffffffffffff8381167fffffffffffffffffffffffff0000000000000000000000000000000000000000831681178455604051919092169283917f8be0079c531659141344cd1fd0a4f28419497f9722a3daafe3b4186f6b6457e09190a35050565b60006020828403121561065057600080fd5b813561065b816106e7565b9392505050565b6000806040838503121561067557600080fd5b8251610680816106e7565b6020939093015192949293505050565b6000806000606084860312156106a557600080fd5b83356106b0816106e7565b95602085013595506040909401359392505050565b6000602082840312156106d757600080fd5b8151801515811461065b57600080fd5b73ffffffffffffffffffffffffffffffffffffffff8116811461035557600080fdfea2646970667358221220da46a1d5ec7bcd493c2f1c62df27d834b7bcc22d93680af715b2df60313c619f64736f6c63430008070033",
  "devdoc": {
    "kind": "dev",
    "methods": {
      "calculateRoyaltyFeeAndGetRecipient(address,uint256,uint256)": {
        "params": {
          "amount": "amount to transfer",
          "collection": "address of the NFT contract",
          "tokenId": "tokenId"
        }
      },
      "constructor": {
        "params": {
          "_royaltyFeeRegistry": "address of the RoyaltyFeeRegistry"
        }
      },
      "owner()": {
        "details": "Returns the address of the current owner."
      },
      "renounceOwnership()": {
        "details": "Leaves the contract without owner. It will not be possible to call `onlyOwner` functions anymore. Can only be called by the current owner. NOTE: Renouncing ownership will leave the contract without an owner, thereby removing any functionality that is only available to the owner."
      },
      "transferOwnership(address)": {
        "details": "Transfers ownership of the contract to a new account (`newOwner`). Can only be called by the current owner."
      }
    },
    "title": "RoyaltyFeeManager",
    "version": 1
  },
  "userdoc": {
    "kind": "user",
    "methods": {
      "calculateRoyaltyFeeAndGetRecipient(address,uint256,uint256)": {
        "notice": "Calculate royalty fee and get recipient"
      },
      "constructor": {
        "notice": "Constructor"
      }
    },
    "notice": "It handles the logic to check and transfer royalty fees (if any).",
    "version": 1
  },
  "storageLayout": {
    "storage": [
      {
        "astId": 7,
        "contract": "contracts/RoyaltyFeeManager.sol:RoyaltyFeeManager",
        "label": "_owner",
        "offset": 0,
        "slot": "0",
        "type": "t_address"
      }
    ],
    "types": {
      "t_address": {
        "encoding": "inplace",
        "label": "address",
        "numberOfBytes": "20"
      }
    }
  }
}