{
  "address": "0x502EcC2dE21BA2e9ADD883Da4E162e66F85982CB",
  "abi": [
    {
      "inputs": [
        {
          "internalType": "uint256",
          "name": "_royaltyFeeLimit",
          "type": "uint256"
        }
      ],
      "stateMutability": "nonpayable",
      "type": "constructor"
    },
    {
      "anonymous": false,
      "inputs": [
        {
          "indexed": false,
          "internalType": "uint256",
          "name": "royaltyFeeLimit",
          "type": "uint256"
        }
      ],
      "name": "NewRoyaltyFeeLimit",
      "type": "event"
    },
    {
      "anonymous": false,
      "inputs": [
        {
          "indexed": true,
          "internalType": "address",
          "name": "previousOwner",
          "type": "address"
        },
        {
          "indexed": true,
          "internalType": "address",
          "name": "newOwner",
          "type": "address"
        }
      ],
      "name": "OwnershipTransferred",
      "type": "event"
    },
    {
      "anonymous": false,
      "inputs": [
        {
          "indexed": true,
          "internalType": "address",
          "name": "collection",
          "type": "address"
        },
        {
          "indexed": true,
          "internalType": "address",
          "name": "setter",
          "type": "address"
        },
        {
          "indexed": true,
          "internalType": "address",
          "name": "receiver",
          "type": "address"
        },
        {
          "indexed": false,
          "internalType": "uint256",
          "name": "fee",
          "type": "uint256"
        }
      ],
      "name": "RoyaltyFeeUpdate",
      "type": "event"
    },
    {
      "inputs": [],
      "name": "owner",
      "outputs": [
        {
          "internalType": "address",
          "name": "",
          "type": "address"
        }
      ],
      "stateMutability": "view",
      "type": "function"
    },
    {
      "inputs": [],
      "name": "renounceOwnership",
      "outputs": [],
      "stateMutability": "nonpayable",
      "type": "function"
    },
    {
      "inputs": [
        {
          "internalType": "address",
          "name": "collection",
          "type": "address"
        }
      ],
      "name": "royaltyFeeInfoCollection",
      "outputs": [
        {
          "internalType": "address",
          "name": "",
          "type": "address"
        },
        {
          "internalType": "address",
          "name": "",
          "type": "address"
        },
        {
          "internalType": "uint256",
          "name": "",
          "type": "uint256"
        }
      ],
      "stateMutability": "view",
      "type": "function"
    },
    {
      "inputs": [],
      "name": "royaltyFeeLimit",
      "outputs": [
        {
          "internalType": "uint256",
          "name": "",
          "type": "uint256"
        }
      ],
      "stateMutability": "view",
      "type": "function"
    },
    {
      "inputs": [
        {
          "internalType": "address",
          "name": "collection",
          "type": "address"
        },
        {
          "internalType": "uint256",
          "name": "amount",
          "type": "uint256"
        }
      ],
      "name": "royaltyInfo",
      "outputs": [
        {
          "internalType": "address",
          "name": "",
          "type": "address"
        },
        {
          "internalType": "uint256",
          "name": "",
          "type": "uint256"
        }
      ],
      "stateMutability": "view",
      "type": "function"
    },
    {
      "inputs": [
        {
          "internalType": "address",
          "name": "newOwner",
          "type": "address"
        }
      ],
      "name": "transferOwnership",
      "outputs": [],
      "stateMutability": "nonpayable",
      "type": "function"
    },
    {
      "inputs": [
        {
          "internalType": "uint256",
          "name": "_royaltyFeeLimit",
          "type": "uint256"
        }
      ],
      "name": "updateRoyaltyFeeLimit",
      "outputs": [],
      "stateMutability": "nonpayable",
      "type": "function"
    },
    {
      "inputs": [
        {
          "internalType": "address",
          "name": "collection",
          "type": "address"
        },
        {
          "internalType": "address",
          "name": "setter",
          "type": "address"
        },
        {
          "internalType": "address",
          "name": "receiver",
          "type": "address"
        },
        {
          "internalType": "uint256",
          "name": "fee",
          "type": "uint256"
        }
      ],
      "name": "updateRoyaltyInfoForCollection",
      "outputs": [],
      "stateMutability": "nonpayable",
      "type": "function"
    }
  ],
  "transactionHash": "0xefcd9a54b15371b1bf20c0975ca73e82e6e48d5b03653aa50553d11f34a8fa22",
  "args": [
    1000
  ],
  "numDeployments": 1,
  "solcInputHash": "9b1f25f60f25cdea13c82d221bb53b0c",
  "bytecode": "0x608060405234801561001057600080fd5b50604051610a2d380380610a2d83398101604081905261002f916100f0565b610038336100a0565b61251c8111156100985760405162461bcd60e51b815260206004820152602160248201527f4f776e65723a20526f79616c747920666565206c696d697420746f6f206869676044820152600d60fb1b606482015260840160405180910390fd5b600155610109565b600080546001600160a01b038381166001600160a01b0319831681178455604051919092169283917f8be0079c531659141344cd1fd0a4f28419497f9722a3daafe3b4186f6b6457e09190a35050565b60006020828403121561010257600080fd5b5051919050565b610915806101186000396000f3fe608060405234801561001057600080fd5b50600436106100885760003560e01c8063b9223c9d1161005b578063b9223c9d1461011a578063bbdf9b681461012d578063e31ef91c14610140578063f2fde38b146101bf57600080fd5b80632782d6c71461008d5780634fb7d3f9146100d1578063715018a6146100e85780638da5cb5b146100f2575b600080fd5b6100a061009b3660046107fd565b6101d2565b6040805173ffffffffffffffffffffffffffffffffffffffff90931683526020830191909152015b60405180910390f35b6100da60015481565b6040519081526020016100c8565b6100f061022c565b005b60005460405173ffffffffffffffffffffffffffffffffffffffff90911681526020016100c8565b6100f0610128366004610827565b6102be565b6100f061013b3660046107b2565b61040c565b61018c61014e366004610790565b73ffffffffffffffffffffffffffffffffffffffff908116600090815260026020819052604090912080546001820154919092015491831693921691565b6040805173ffffffffffffffffffffffffffffffffffffffff9485168152939092166020840152908201526060016100c8565b6100f06101cd366004610790565b6105c2565b73ffffffffffffffffffffffffffffffffffffffff8083166000908152600260208190526040822060018101549101549192839291169061271090610217908661087b565b6102219190610840565b915091509250929050565b60005473ffffffffffffffffffffffffffffffffffffffff1633146102b2576040517f08c379a000000000000000000000000000000000000000000000000000000000815260206004820181905260248201527f4f776e61626c653a2063616c6c6572206973206e6f7420746865206f776e657260448201526064015b60405180910390fd5b6102bc60006106f2565b565b60005473ffffffffffffffffffffffffffffffffffffffff16331461033f576040517f08c379a000000000000000000000000000000000000000000000000000000000815260206004820181905260248201527f4f776e61626c653a2063616c6c6572206973206e6f7420746865206f776e657260448201526064016102a9565b61251c8111156103d1576040517f08c379a000000000000000000000000000000000000000000000000000000000815260206004820152602160248201527f4f776e65723a20526f79616c747920666565206c696d697420746f6f2068696760448201527f680000000000000000000000000000000000000000000000000000000000000060648201526084016102a9565b60018190556040518181527f2da7166c72ef3860ef4fb2571105533c40615269a6dbc38ce0b264910df1c2569060200160405180910390a150565b60005473ffffffffffffffffffffffffffffffffffffffff16331461048d576040517f08c379a000000000000000000000000000000000000000000000000000000000815260206004820181905260248201527f4f776e61626c653a2063616c6c6572206973206e6f7420746865206f776e657260448201526064016102a9565b6001548111156104f9576040517f08c379a000000000000000000000000000000000000000000000000000000000815260206004820152601e60248201527f52656769737472793a20526f79616c74792066656520746f6f2068696768000060448201526064016102a9565b6040805160608101825273ffffffffffffffffffffffffffffffffffffffff85811680835285821660208085018281528587018881528b861660008181526002808652908a9020985189549089167fffffffffffffffffffffffff0000000000000000000000000000000000000000918216178a55935160018a0180549190991694169390931790965551950194909455935185815290927fd01984afa6e37420452e575e7d99dd7e632b3ec8ea2adec998475b76ca494d64910160405180910390a450505050565b60005473ffffffffffffffffffffffffffffffffffffffff163314610643576040517f08c379a000000000000000000000000000000000000000000000000000000000815260206004820181905260248201527f4f776e61626c653a2063616c6c6572206973206e6f7420746865206f776e657260448201526064016102a9565b73ffffffffffffffffffffffffffffffffffffffff81166106e6576040517f08c379a000000000000000000000000000000000000000000000000000000000815260206004820152602660248201527f4f776e61626c653a206e6577206f776e657220697320746865207a65726f206160448201527f646472657373000000000000000000000000000000000000000000000000000060648201526084016102a9565b6106ef816106f2565b50565b6000805473ffffffffffffffffffffffffffffffffffffffff8381167fffffffffffffffffffffffff0000000000000000000000000000000000000000831681178455604051919092169283917f8be0079c531659141344cd1fd0a4f28419497f9722a3daafe3b4186f6b6457e09190a35050565b803573ffffffffffffffffffffffffffffffffffffffff8116811461078b57600080fd5b919050565b6000602082840312156107a257600080fd5b6107ab82610767565b9392505050565b600080600080608085870312156107c857600080fd5b6107d185610767565b93506107df60208601610767565b92506107ed60408601610767565b9396929550929360600135925050565b6000806040838503121561081057600080fd5b61081983610767565b946020939093013593505050565b60006020828403121561083957600080fd5b5035919050565b600082610876577f4e487b7100000000000000000000000000000000000000000000000000000000600052601260045260246000fd5b500490565b6000817fffffffffffffffffffffffffffffffffffffffffffffffffffffffffffffffff04831182151516156108da577f4e487b7100000000000000000000000000000000000000000000000000000000600052601160045260246000fd5b50029056fea2646970667358221220abec0c6c13d577134a2fb85e0c84c82730e516749ca3e9aa85696cd87eedc00264736f6c63430008070033",
  "devdoc": {
    "kind": "dev",
    "methods": {
      "constructor": {
        "params": {
          "_royaltyFeeLimit": "new royalty fee limit (500 = 5%, 1,000 = 10%)"
        }
      },
      "owner()": {
        "details": "Returns the address of the current owner."
      },
      "renounceOwnership()": {
        "details": "Leaves the contract without owner. It will not be possible to call `onlyOwner` functions anymore. Can only be called by the current owner. NOTE: Renouncing ownership will leave the contract without an owner, thereby removing any functionality that is only available to the owner."
      },
      "royaltyFeeInfoCollection(address)": {
        "params": {
          "collection": "collection address"
        }
      },
      "royaltyInfo(address,uint256)": {
        "params": {
          "amount": "amount",
          "collection": "collection address"
        },
        "returns": {
          "_0": "receiver address and amount received by royalty recipient"
        }
      },
      "transferOwnership(address)": {
        "details": "Transfers ownership of the contract to a new account (`newOwner`). Can only be called by the current owner."
      },
      "updateRoyaltyFeeLimit(uint256)": {
        "params": {
          "_royaltyFeeLimit": "new royalty fee limit (500 = 5%, 1,000 = 10%)"
        }
      },
      "updateRoyaltyInfoForCollection(address,address,address,uint256)": {
        "params": {
          "collection": "address of the NFT contract",
          "fee": "fee (500 = 5%, 1,000 = 10%)",
          "receiver": "receiver for the royalty fee",
          "setter": "address that sets the receiver"
        }
      }
    },
    "title": "RoyaltyFeeRegistry",
    "version": 1
  },
  "userdoc": {
    "kind": "user",
    "methods": {
      "constructor": {
        "notice": "Constructor"
      },
      "royaltyFeeInfoCollection(address)": {
        "notice": "View royalty info for a collection address"
      },
      "royaltyInfo(address,uint256)": {
        "notice": "Calculate royalty info for a collection address and a sale gross amount"
      },
      "updateRoyaltyFeeLimit(uint256)": {
        "notice": "Update royalty info for collection"
      },
      "updateRoyaltyInfoForCollection(address,address,address,uint256)": {
        "notice": "Update royalty info for collection"
      }
    },
    "notice": "It is a royalty fee registry for the LooksRare exchange.",
    "version": 1
  },
  "storageLayout": {
    "storage": [
      {
        "astId": 7,
        "contract": "contracts/royaltyFeeHelpers/RoyaltyFeeRegistry.sol:RoyaltyFeeRegistry",
        "label": "_owner",
        "offset": 0,
        "slot": "0",
        "type": "t_address"
      },
      {
        "astId": 10581,
        "contract": "contracts/royaltyFeeHelpers/RoyaltyFeeRegistry.sol:RoyaltyFeeRegistry",
        "label": "royaltyFeeLimit",
        "offset": 0,
        "slot": "1",
        "type": "t_uint256"
      },
      {
        "astId": 10586,
        "contract": "contracts/royaltyFeeHelpers/RoyaltyFeeRegistry.sol:RoyaltyFeeRegistry",
        "label": "_royaltyFeeInfoCollection",
        "offset": 0,
        "slot": "2",
        "type": "t_mapping(t_address,t_struct(FeeInfo)10579_storage)"
      }
    ],
    "types": {
      "t_address": {
        "encoding": "inplace",
        "label": "address",
        "numberOfBytes": "20"
      },
      "t_mapping(t_address,t_struct(FeeInfo)10579_storage)": {
        "encoding": "mapping",
        "key": "t_address",
        "label": "mapping(address => struct RoyaltyFeeRegistry.FeeInfo)",
        "numberOfBytes": "32",
        "value": "t_struct(FeeInfo)10579_storage"
      },
      "t_struct(FeeInfo)10579_storage": {
        "encoding": "inplace",
        "label": "struct RoyaltyFeeRegistry.FeeInfo",
        "members": [
          {
            "astId": 10574,
            "contract": "contracts/royaltyFeeHelpers/RoyaltyFeeRegistry.sol:RoyaltyFeeRegistry",
            "label": "setter",
            "offset": 0,
            "slot": "0",
            "type": "t_address"
          },
          {
            "astId": 10576,
            "contract": "contracts/royaltyFeeHelpers/RoyaltyFeeRegistry.sol:RoyaltyFeeRegistry",
            "label": "receiver",
            "offset": 0,
            "slot": "1",
            "type": "t_address"
          },
          {
            "astId": 10578,
            "contract": "contracts/royaltyFeeHelpers/RoyaltyFeeRegistry.sol:RoyaltyFeeRegistry",
            "label": "fee",
            "offset": 0,
            "slot": "2",
            "type": "t_uint256"
          }
        ],
        "numberOfBytes": "96"
      },
      "t_uint256": {
        "encoding": "inplace",
        "label": "uint256",
        "numberOfBytes": "32"
      }
    }
  }
}