{
  "address": "0x1657EeF5f6a1842fe35ED67cBEA7D329e7e02AC0",
  "abi": [
    {
      "inputs": [
        {
          "internalType": "address",
          "name": "_looksRareExchange",
          "type": "address"
        }
      ],
      "stateMutability": "nonpayable",
      "type": "constructor"
    },
    {
      "inputs": [],
      "name": "LOOKS_RARE_EXCHANGE",
      "outputs": [
        {
          "internalType": "address",
          "name": "",
          "type": "address"
        }
      ],
      "stateMutability": "view",
      "type": "function"
    },
    {
      "inputs": [
        {
          "internalType": "address",
          "name": "collection",
          "type": "address"
        },
        {
          "internalType": "address",
          "name": "from",
          "type": "address"
        },
        {
          "internalType": "address",
          "name": "to",
          "type": "address"
        },
        {
          "internalType": "uint256",
          "name": "tokenId",
          "type": "uint256"
        },
        {
          "internalType": "uint256",
          "name": "amount",
          "type": "uint256"
        }
      ],
      "name": "transferNonFungibleToken",
      "outputs": [],
      "stateMutability": "nonpayable",
      "type": "function"
    }
  ],
  "transactionHash": "0x8278ca5f423cb7f0efb476e15ec197f40f93ad9548c65615a30ebd9ab13d5d3b",
  "args": [
    "0x2FCf6eB6544F991e971f7aA03322FD3fF9b8794e"
  ],
  "numDeployments": 4,
  "solcInputHash": "3cc002f9962911b41fba7573c29b59f3",
  "bytecode": "0x60a060405234801561001057600080fd5b5060405161036038038061036083398101604081905261002f91610044565b60601b6001600160601b031916608052610074565b60006020828403121561005657600080fd5b81516001600160a01b038116811461006d57600080fd5b9392505050565b60805160601c6102c9610097600039600081816055015260b801526102c96000f3fe608060405234801561001057600080fd5b50600436106100365760003560e01c806333f2fa9f1461003b5780633dd7df5014610050575b600080fd5b61004e61004936600461023e565b6100a0565b005b6100777f000000000000000000000000000000000000000000000000000000000000000081565b60405173ffffffffffffffffffffffffffffffffffffffff909116815260200160405180910390f35b3373ffffffffffffffffffffffffffffffffffffffff7f00000000000000000000000000000000000000000000000000000000000000001614610169576040517f08c379a000000000000000000000000000000000000000000000000000000000815260206004820152602160248201527f5472616e736665723a204f6e6c79204c6f6f6b73526172652045786368616e6760448201527f6500000000000000000000000000000000000000000000000000000000000000606482015260840160405180910390fd5b6040517ff242432a00000000000000000000000000000000000000000000000000000000815273ffffffffffffffffffffffffffffffffffffffff85811660048301528481166024830152604482018490526064820183905260a06084830152600060a483015286169063f242432a9060c401600060405180830381600087803b1580156101f657600080fd5b505af115801561020a573d6000803e3d6000fd5b505050505050505050565b803573ffffffffffffffffffffffffffffffffffffffff8116811461023957600080fd5b919050565b600080600080600060a0868803121561025657600080fd5b61025f86610215565b945061026d60208701610215565b935061027b60408701610215565b9497939650939460608101359450608001359291505056fea26469706673582212206c040defeb092337c4266dabd5eca0141e2c20ae813725e68c50905f9eebacc464736f6c63430008070033",
  "devdoc": {
    "kind": "dev",
    "methods": {
      "constructor": {
        "params": {
          "_looksRareExchange": "address of the LooksRare exchange"
        }
      },
      "transferNonFungibleToken(address,address,address,uint256,uint256)": {
        "params": {
          "amount": "amount of tokens (1 and more for ERC1155)",
          "collection": "address of the collection",
          "from": "address of the sender",
          "to": "address of the recipient",
          "tokenId": "tokenId"
        }
      }
    },
    "title": "TransferManagerERC1155",
    "version": 1
  },
  "userdoc": {
    "kind": "user",
    "methods": {
      "constructor": {
        "notice": "Constructor"
      },
      "transferNonFungibleToken(address,address,address,uint256,uint256)": {
        "notice": "Transfer ERC1155 token(s)"
      }
    },
    "notice": "It allows the transfer of ERC1155 tokens.",
    "version": 1
  },
  "storageLayout": {
    "storage": [],
    "types": null
  }
}