{
  "address": "0xDa2Aa57c197d113EF36c9C57889a030b5D10754E",
  "abi": [
    {
      "anonymous": false,
      "inputs": [
        {
          "indexed": true,
          "internalType": "address",
          "name": "currency",
          "type": "address"
        }
      ],
      "name": "CurrencyRemoved",
      "type": "event"
    },
    {
      "anonymous": false,
      "inputs": [
        {
          "indexed": true,
          "internalType": "address",
          "name": "currency",
          "type": "address"
        }
      ],
      "name": "CurrencyWhitelisted",
      "type": "event"
    },
    {
      "anonymous": false,
      "inputs": [
        {
          "indexed": true,
          "internalType": "address",
          "name": "previousOwner",
          "type": "address"
        },
        {
          "indexed": true,
          "internalType": "address",
          "name": "newOwner",
          "type": "address"
        }
      ],
      "name": "OwnershipTransferred",
      "type": "event"
    },
    {
      "inputs": [
        {
          "internalType": "address",
          "name": "currency",
          "type": "address"
        }
      ],
      "name": "addCurrency",
      "outputs": [],
      "stateMutability": "nonpayable",
      "type": "function"
    },
    {
      "inputs": [
        {
          "internalType": "address",
          "name": "currency",
          "type": "address"
        }
      ],
      "name": "isCurrencyWhitelisted",
      "outputs": [
        {
          "internalType": "bool",
          "name": "",
          "type": "bool"
        }
      ],
      "stateMutability": "view",
      "type": "function"
    },
    {
      "inputs": [],
      "name": "owner",
      "outputs": [
        {
          "internalType": "address",
          "name": "",
          "type": "address"
        }
      ],
      "stateMutability": "view",
      "type": "function"
    },
    {
      "inputs": [
        {
          "internalType": "address",
          "name": "currency",
          "type": "address"
        }
      ],
      "name": "removeCurrency",
      "outputs": [],
      "stateMutability": "nonpayable",
      "type": "function"
    },
    {
      "inputs": [],
      "name": "renounceOwnership",
      "outputs": [],
      "stateMutability": "nonpayable",
      "type": "function"
    },
    {
      "inputs": [
        {
          "internalType": "address",
          "name": "newOwner",
          "type": "address"
        }
      ],
      "name": "transferOwnership",
      "outputs": [],
      "stateMutability": "nonpayable",
      "type": "function"
    },
    {
      "inputs": [],
      "name": "viewCountWhitelistedCurrencies",
      "outputs": [
        {
          "internalType": "uint256",
          "name": "",
          "type": "uint256"
        }
      ],
      "stateMutability": "view",
      "type": "function"
    },
    {
      "inputs": [
        {
          "internalType": "uint256",
          "name": "cursor",
          "type": "uint256"
        },
        {
          "internalType": "uint256",
          "name": "size",
          "type": "uint256"
        }
      ],
      "name": "viewWhitelistedCurrencies",
      "outputs": [
        {
          "internalType": "address[]",
          "name": "",
          "type": "address[]"
        },
        {
          "internalType": "uint256",
          "name": "",
          "type": "uint256"
        }
      ],
      "stateMutability": "view",
      "type": "function"
    }
  ],
  "transactionHash": "0x3e60e4b6c06582c47963cca871b13d03b2ab07a48e0f282cb2419329d3463bd5",
  "args": [],
  "numDeployments": 1,
  "solcInputHash": "9b1f25f60f25cdea13c82d221bb53b0c",
  "bytecode": "0x608060405234801561001057600080fd5b5061001a3361001f565b61006f565b600080546001600160a01b038381166001600160a01b0319831681178455604051919092169283917f8be0079c531659141344cd1fd0a4f28419497f9722a3daafe3b4186f6b6457e09190a35050565b610b418061007e6000396000f3fe608060405234801561001057600080fd5b50600436106100885760003560e01c80638ab234b61161005b5780638ab234b6146100f65780638da5cb5b14610109578063c5d3a10714610131578063f2fde38b1461014457600080fd5b80631facfd9c1461008d57806343b938c5146100a8578063715018a6146100cb57806385f39b0a146100d5575b600080fd5b610095610157565b6040519081526020015b60405180910390f35b6100bb6100b6366004610931565b610168565b604051901515815260200161009f565b6100d361017b565b005b6100e86100e3366004610967565b61020d565b60405161009f929190610989565b6100d3610104366004610931565b61030f565b60005460405173ffffffffffffffffffffffffffffffffffffffff909116815260200161009f565b6100d361013f366004610931565b610452565b6100d3610152366004610931565b610594565b600061016360016106c4565b905090565b60006101756001836106ce565b92915050565b60005473ffffffffffffffffffffffffffffffffffffffff163314610201576040517f08c379a000000000000000000000000000000000000000000000000000000000815260206004820181905260248201527f4f776e61626c653a2063616c6c6572206973206e6f7420746865206f776e657260448201526064015b60405180910390fd5b61020b6000610700565b565b60606000828461021d60016106c4565b61022791906109ff565b811115610246578461023960016106c4565b61024391906109ff565b90505b60008167ffffffffffffffff81111561026157610261610adc565b60405190808252806020026020018201604052801561028a578160200160208202803683370190505b50905060005b828110156102f6576102ad6102a582896109e7565b600190610775565b8282815181106102bf576102bf610aad565b73ffffffffffffffffffffffffffffffffffffffff90921660209283029190910190910152806102ee81610a16565b915050610290565b508061030283886109e7565b9350935050509250929050565b60005473ffffffffffffffffffffffffffffffffffffffff163314610390576040517f08c379a000000000000000000000000000000000000000000000000000000000815260206004820181905260248201527f4f776e61626c653a2063616c6c6572206973206e6f7420746865206f776e657260448201526064016101f8565b61039b6001826106ce565b15610402576040517f08c379a000000000000000000000000000000000000000000000000000000000815260206004820152601d60248201527f43757272656e63793a20416c72656164792077686974656c697374656400000060448201526064016101f8565b61040d600182610781565b5060405173ffffffffffffffffffffffffffffffffffffffff8216907f3cbf62b327efb2d06d36e16c10a2f5c00cf0568e2b805bd56969b15d2736107890600090a250565b60005473ffffffffffffffffffffffffffffffffffffffff1633146104d3576040517f08c379a000000000000000000000000000000000000000000000000000000000815260206004820181905260248201527f4f776e61626c653a2063616c6c6572206973206e6f7420746865206f776e657260448201526064016101f8565b6104de6001826106ce565b610544576040517f08c379a000000000000000000000000000000000000000000000000000000000815260206004820152601960248201527f43757272656e63793a204e6f742077686974656c69737465640000000000000060448201526064016101f8565b61054f6001826107a3565b5060405173ffffffffffffffffffffffffffffffffffffffff8216907fa40d69111be14f29022626d38310e47cc2d7f4cb728961509c2f65a4bee08c5b90600090a250565b60005473ffffffffffffffffffffffffffffffffffffffff163314610615576040517f08c379a000000000000000000000000000000000000000000000000000000000815260206004820181905260248201527f4f776e61626c653a2063616c6c6572206973206e6f7420746865206f776e657260448201526064016101f8565b73ffffffffffffffffffffffffffffffffffffffff81166106b8576040517f08c379a000000000000000000000000000000000000000000000000000000000815260206004820152602660248201527f4f776e61626c653a206e6577206f776e657220697320746865207a65726f206160448201527f646472657373000000000000000000000000000000000000000000000000000060648201526084016101f8565b6106c181610700565b50565b6000610175825490565b73ffffffffffffffffffffffffffffffffffffffff8116600090815260018301602052604081205415155b9392505050565b6000805473ffffffffffffffffffffffffffffffffffffffff8381167fffffffffffffffffffffffff0000000000000000000000000000000000000000831681178455604051919092169283917f8be0079c531659141344cd1fd0a4f28419497f9722a3daafe3b4186f6b6457e09190a35050565b60006106f983836107c5565b60006106f98373ffffffffffffffffffffffffffffffffffffffff84166107ef565b60006106f98373ffffffffffffffffffffffffffffffffffffffff841661083e565b60008260000182815481106107dc576107dc610aad565b9060005260206000200154905092915050565b600081815260018301602052604081205461083657508154600181810184556000848152602080822090930184905584548482528286019093526040902091909155610175565b506000610175565b600081815260018301602052604081205480156109275760006108626001836109ff565b8554909150600090610876906001906109ff565b90508181146108db57600086600001828154811061089657610896610aad565b90600052602060002001549050808760000184815481106108b9576108b9610aad565b6000918252602080832090910192909255918252600188019052604090208390555b85548690806108ec576108ec610a7e565b600190038181906000526020600020016000905590558560010160008681526020019081526020016000206000905560019350505050610175565b6000915050610175565b60006020828403121561094357600080fd5b813573ffffffffffffffffffffffffffffffffffffffff811681146106f957600080fd5b6000806040838503121561097a57600080fd5b50508035926020909101359150565b604080825283519082018190526000906020906060840190828701845b828110156109d857815173ffffffffffffffffffffffffffffffffffffffff16845292840192908401906001016109a6565b50505092019290925292915050565b600082198211156109fa576109fa610a4f565b500190565b600082821015610a1157610a11610a4f565b500390565b60007fffffffffffffffffffffffffffffffffffffffffffffffffffffffffffffffff821415610a4857610a48610a4f565b5060010190565b7f4e487b7100000000000000000000000000000000000000000000000000000000600052601160045260246000fd5b7f4e487b7100000000000000000000000000000000000000000000000000000000600052603160045260246000fd5b7f4e487b7100000000000000000000000000000000000000000000000000000000600052603260045260246000fd5b7f4e487b7100000000000000000000000000000000000000000000000000000000600052604160045260246000fdfea26469706673582212205b42e5eb5a1742b1622a0fc57e133e0ebc130c2c93fb0ae5e6aceb7de3c425da64736f6c63430008070033",
  "devdoc": {
    "kind": "dev",
    "methods": {
      "addCurrency(address)": {
        "params": {
          "currency": "address of the currency to add"
        }
      },
      "isCurrencyWhitelisted(address)": {
        "params": {
          "currency": "address of the currency"
        }
      },
      "owner()": {
        "details": "Returns the address of the current owner."
      },
      "removeCurrency(address)": {
        "params": {
          "currency": "address of the currency to remove"
        }
      },
      "renounceOwnership()": {
        "details": "Leaves the contract without owner. It will not be possible to call `onlyOwner` functions anymore. Can only be called by the current owner. NOTE: Renouncing ownership will leave the contract without an owner, thereby removing any functionality that is only available to the owner."
      },
      "transferOwnership(address)": {
        "details": "Transfers ownership of the contract to a new account (`newOwner`). Can only be called by the current owner."
      },
      "viewWhitelistedCurrencies(uint256,uint256)": {
        "params": {
          "cursor": "cursor (should start at 0 for first request)",
          "size": "size of the response (e.g., 50)"
        }
      }
    },
    "title": "CurrencyManager",
    "version": 1
  },
  "userdoc": {
    "kind": "user",
    "methods": {
      "addCurrency(address)": {
        "notice": "Add a currency in the system"
      },
      "isCurrencyWhitelisted(address)": {
        "notice": "Returns if a currency is in the system"
      },
      "removeCurrency(address)": {
        "notice": "Remove a currency from the system"
      },
      "viewCountWhitelistedCurrencies()": {
        "notice": "View number of whitelisted currencies"
      },
      "viewWhitelistedCurrencies(uint256,uint256)": {
        "notice": "See whitelisted currencies in the system"
      }
    },
    "notice": "It allows adding/removing currencies for trading on the LooksRare exchange.",
    "version": 1
  },
  "storageLayout": {
    "storage": [
      {
        "astId": 7,
        "contract": "contracts/CurrencyManager.sol:CurrencyManager",
        "label": "_owner",
        "offset": 0,
        "slot": "0",
        "type": "t_address"
      },
      {
        "astId": 4611,
        "contract": "contracts/CurrencyManager.sol:CurrencyManager",
        "label": "_whitelistedCurrencies",
        "offset": 0,
        "slot": "1",
        "type": "t_struct(AddressSet)4304_storage"
      }
    ],
    "types": {
      "t_address": {
        "encoding": "inplace",
        "label": "address",
        "numberOfBytes": "20"
      },
      "t_array(t_bytes32)dyn_storage": {
        "base": "t_bytes32",
        "encoding": "dynamic_array",
        "label": "bytes32[]",
        "numberOfBytes": "32"
      },
      "t_bytes32": {
        "encoding": "inplace",
        "label": "bytes32",
        "numberOfBytes": "32"
      },
      "t_mapping(t_bytes32,t_uint256)": {
        "encoding": "mapping",
        "key": "t_bytes32",
        "label": "mapping(bytes32 => uint256)",
        "numberOfBytes": "32",
        "value": "t_uint256"
      },
      "t_struct(AddressSet)4304_storage": {
        "encoding": "inplace",
        "label": "struct EnumerableSet.AddressSet",
        "members": [
          {
            "astId": 4303,
            "contract": "contracts/CurrencyManager.sol:CurrencyManager",
            "label": "_inner",
            "offset": 0,
            "slot": "0",
            "type": "t_struct(Set)4003_storage"
          }
        ],
        "numberOfBytes": "64"
      },
      "t_struct(Set)4003_storage": {
        "encoding": "inplace",
        "label": "struct EnumerableSet.Set",
        "members": [
          {
            "astId": 3998,
            "contract": "contracts/CurrencyManager.sol:CurrencyManager",
            "label": "_values",
            "offset": 0,
            "slot": "0",
            "type": "t_array(t_bytes32)dyn_storage"
          },
          {
            "astId": 4002,
            "contract": "contracts/CurrencyManager.sol:CurrencyManager",
            "label": "_indexes",
            "offset": 0,
            "slot": "1",
            "type": "t_mapping(t_bytes32,t_uint256)"
          }
        ],
        "numberOfBytes": "64"
      },
      "t_uint256": {
        "encoding": "inplace",
        "label": "uint256",
        "numberOfBytes": "32"
      }
    }
  }
}