{
  "address": "0xBB774AE925044F4D066f77762356ff1c16D4e0Ab",
  "abi": [
    {
      "anonymous": false,
      "inputs": [
        {
          "indexed": true,
          "internalType": "address",
          "name": "previousOwner",
          "type": "address"
        },
        {
          "indexed": true,
          "internalType": "address",
          "name": "newOwner",
          "type": "address"
        }
      ],
      "name": "OwnershipTransferred",
      "type": "event"
    },
    {
      "anonymous": false,
      "inputs": [
        {
          "indexed": true,
          "internalType": "address",
          "name": "strategy",
          "type": "address"
        }
      ],
      "name": "StrategyRemoved",
      "type": "event"
    },
    {
      "anonymous": false,
      "inputs": [
        {
          "indexed": true,
          "internalType": "address",
          "name": "strategy",
          "type": "address"
        }
      ],
      "name": "StrategyWhitelisted",
      "type": "event"
    },
    {
      "inputs": [
        {
          "internalType": "address",
          "name": "strategy",
          "type": "address"
        }
      ],
      "name": "addStrategy",
      "outputs": [],
      "stateMutability": "nonpayable",
      "type": "function"
    },
    {
      "inputs": [
        {
          "internalType": "address",
          "name": "strategy",
          "type": "address"
        }
      ],
      "name": "isStrategyWhitelisted",
      "outputs": [
        {
          "internalType": "bool",
          "name": "",
          "type": "bool"
        }
      ],
      "stateMutability": "view",
      "type": "function"
    },
    {
      "inputs": [],
      "name": "owner",
      "outputs": [
        {
          "internalType": "address",
          "name": "",
          "type": "address"
        }
      ],
      "stateMutability": "view",
      "type": "function"
    },
    {
      "inputs": [
        {
          "internalType": "address",
          "name": "strategy",
          "type": "address"
        }
      ],
      "name": "removeStrategy",
      "outputs": [],
      "stateMutability": "nonpayable",
      "type": "function"
    },
    {
      "inputs": [],
      "name": "renounceOwnership",
      "outputs": [],
      "stateMutability": "nonpayable",
      "type": "function"
    },
    {
      "inputs": [
        {
          "internalType": "address",
          "name": "newOwner",
          "type": "address"
        }
      ],
      "name": "transferOwnership",
      "outputs": [],
      "stateMutability": "nonpayable",
      "type": "function"
    },
    {
      "inputs": [],
      "name": "viewCountWhitelistedStrategies",
      "outputs": [
        {
          "internalType": "uint256",
          "name": "",
          "type": "uint256"
        }
      ],
      "stateMutability": "view",
      "type": "function"
    },
    {
      "inputs": [
        {
          "internalType": "uint256",
          "name": "cursor",
          "type": "uint256"
        },
        {
          "internalType": "uint256",
          "name": "size",
          "type": "uint256"
        }
      ],
      "name": "viewWhitelistedStrategies",
      "outputs": [
        {
          "internalType": "address[]",
          "name": "",
          "type": "address[]"
        },
        {
          "internalType": "uint256",
          "name": "",
          "type": "uint256"
        }
      ],
      "stateMutability": "view",
      "type": "function"
    }
  ],
  "transactionHash": "0x3eca8bd601019711b2794b1aff305379529b319ab74aeb6d9787d0685615169d",
  "args": [],
  "numDeployments": 1,
  "solcInputHash": "9b1f25f60f25cdea13c82d221bb53b0c",
  "bytecode": "0x608060405234801561001057600080fd5b5061001a3361001f565b61006f565b600080546001600160a01b038381166001600160a01b0319831681178455604051919092169283917f8be0079c531659141344cd1fd0a4f28419497f9722a3daafe3b4186f6b6457e09190a35050565b610b458061007e6000396000f3fe608060405234801561001057600080fd5b50600436106100885760003560e01c80638da5cb5b1161005b5780638da5cb5b146100e7578063985e3a2f1461010f578063999ba27c14610125578063f2fde38b1461014857600080fd5b8063175188e81461008d578063223e5479146100a257806331fb5b1f146100b5578063715018a6146100df575b600080fd5b6100a061009b366004610935565b61015b565b005b6100a06100b0366004610935565b6102a2565b6100c86100c336600461096b565b6103e5565b6040516100d692919061098d565b60405180910390f35b6100a06104e7565b60005460405173ffffffffffffffffffffffffffffffffffffffff90911681526020016100d6565b610117610574565b6040519081526020016100d6565b610138610133366004610935565b610585565b60405190151581526020016100d6565b6100a0610156366004610935565b610598565b60005473ffffffffffffffffffffffffffffffffffffffff1633146101e1576040517f08c379a000000000000000000000000000000000000000000000000000000000815260206004820181905260248201527f4f776e61626c653a2063616c6c6572206973206e6f7420746865206f776e657260448201526064015b60405180910390fd5b6101ec6001826106c8565b610252576040517f08c379a000000000000000000000000000000000000000000000000000000000815260206004820152601960248201527f53747261746567793a204e6f742077686974656c69737465640000000000000060448201526064016101d8565b61025d6001826106fa565b5060405173ffffffffffffffffffffffffffffffffffffffff8216907f09a1db4b80c32706328728508c941a6b954f31eb5affd32f236c1fd405f8fea490600090a250565b60005473ffffffffffffffffffffffffffffffffffffffff163314610323576040517f08c379a000000000000000000000000000000000000000000000000000000000815260206004820181905260248201527f4f776e61626c653a2063616c6c6572206973206e6f7420746865206f776e657260448201526064016101d8565b61032e6001826106c8565b15610395576040517f08c379a000000000000000000000000000000000000000000000000000000000815260206004820152601d60248201527f53747261746567793a20416c72656164792077686974656c697374656400000060448201526064016101d8565b6103a060018261071c565b5060405173ffffffffffffffffffffffffffffffffffffffff8216907f6b583e2e3ad2e182671d77905fee57b1ffd8ce2aa5c0b652ca029317919751a490600090a250565b6060600082846103f5600161073e565b6103ff9190610a03565b81111561041e5784610411600161073e565b61041b9190610a03565b90505b60008167ffffffffffffffff81111561043957610439610ae0565b604051908082528060200260200182016040528015610462578160200160208202803683370190505b50905060005b828110156104ce5761048561047d82896109eb565b600190610748565b82828151811061049757610497610ab1565b73ffffffffffffffffffffffffffffffffffffffff90921660209283029190910190910152806104c681610a1a565b915050610468565b50806104da83886109eb565b9350935050509250929050565b60005473ffffffffffffffffffffffffffffffffffffffff163314610568576040517f08c379a000000000000000000000000000000000000000000000000000000000815260206004820181905260248201527f4f776e61626c653a2063616c6c6572206973206e6f7420746865206f776e657260448201526064016101d8565b6105726000610754565b565b6000610580600161073e565b905090565b60006105926001836106c8565b92915050565b60005473ffffffffffffffffffffffffffffffffffffffff163314610619576040517f08c379a000000000000000000000000000000000000000000000000000000000815260206004820181905260248201527f4f776e61626c653a2063616c6c6572206973206e6f7420746865206f776e657260448201526064016101d8565b73ffffffffffffffffffffffffffffffffffffffff81166106bc576040517f08c379a000000000000000000000000000000000000000000000000000000000815260206004820152602660248201527f4f776e61626c653a206e6577206f776e657220697320746865207a65726f206160448201527f646472657373000000000000000000000000000000000000000000000000000060648201526084016101d8565b6106c581610754565b50565b73ffffffffffffffffffffffffffffffffffffffff8116600090815260018301602052604081205415155b9392505050565b60006106f38373ffffffffffffffffffffffffffffffffffffffff84166107c9565b60006106f38373ffffffffffffffffffffffffffffffffffffffff84166108bc565b6000610592825490565b60006106f3838361090b565b6000805473ffffffffffffffffffffffffffffffffffffffff8381167fffffffffffffffffffffffff0000000000000000000000000000000000000000831681178455604051919092169283917f8be0079c531659141344cd1fd0a4f28419497f9722a3daafe3b4186f6b6457e09190a35050565b600081815260018301602052604081205480156108b25760006107ed600183610a03565b855490915060009061080190600190610a03565b905081811461086657600086600001828154811061082157610821610ab1565b906000526020600020015490508087600001848154811061084457610844610ab1565b6000918252602080832090910192909255918252600188019052604090208390555b855486908061087757610877610a82565b600190038181906000526020600020016000905590558560010160008681526020019081526020016000206000905560019350505050610592565b6000915050610592565b600081815260018301602052604081205461090357508154600181810184556000848152602080822090930184905584548482528286019093526040902091909155610592565b506000610592565b600082600001828154811061092257610922610ab1565b9060005260206000200154905092915050565b60006020828403121561094757600080fd5b813573ffffffffffffffffffffffffffffffffffffffff811681146106f357600080fd5b6000806040838503121561097e57600080fd5b50508035926020909101359150565b604080825283519082018190526000906020906060840190828701845b828110156109dc57815173ffffffffffffffffffffffffffffffffffffffff16845292840192908401906001016109aa565b50505092019290925292915050565b600082198211156109fe576109fe610a53565b500190565b600082821015610a1557610a15610a53565b500390565b60007fffffffffffffffffffffffffffffffffffffffffffffffffffffffffffffffff821415610a4c57610a4c610a53565b5060010190565b7f4e487b7100000000000000000000000000000000000000000000000000000000600052601160045260246000fd5b7f4e487b7100000000000000000000000000000000000000000000000000000000600052603160045260246000fd5b7f4e487b7100000000000000000000000000000000000000000000000000000000600052603260045260246000fd5b7f4e487b7100000000000000000000000000000000000000000000000000000000600052604160045260246000fdfea26469706673582212202f729e27ece401e58fdcc2703d91a3a2d207e68123d4dc89ec6ed83f0157c3e864736f6c63430008070033",
  "devdoc": {
    "kind": "dev",
    "methods": {
      "addStrategy(address)": {
        "params": {
          "strategy": "address of the strategy to add"
        }
      },
      "isStrategyWhitelisted(address)": {
        "params": {
          "strategy": "address of the strategy"
        }
      },
      "owner()": {
        "details": "Returns the address of the current owner."
      },
      "removeStrategy(address)": {
        "params": {
          "strategy": "address of the strategy to remove"
        }
      },
      "renounceOwnership()": {
        "details": "Leaves the contract without owner. It will not be possible to call `onlyOwner` functions anymore. Can only be called by the current owner. NOTE: Renouncing ownership will leave the contract without an owner, thereby removing any functionality that is only available to the owner."
      },
      "transferOwnership(address)": {
        "details": "Transfers ownership of the contract to a new account (`newOwner`). Can only be called by the current owner."
      },
      "viewWhitelistedStrategies(uint256,uint256)": {
        "params": {
          "cursor": "cursor (should start at 0 for first request)",
          "size": "size of the response (e.g., 50)"
        }
      }
    },
    "title": "ExecutionManager",
    "version": 1
  },
  "userdoc": {
    "kind": "user",
    "methods": {
      "addStrategy(address)": {
        "notice": "Add an execution strategy in the system"
      },
      "isStrategyWhitelisted(address)": {
        "notice": "Returns if an execution strategy is in the system"
      },
      "removeStrategy(address)": {
        "notice": "Remove an execution strategy from the system"
      },
      "viewCountWhitelistedStrategies()": {
        "notice": "View number of whitelisted strategies"
      },
      "viewWhitelistedStrategies(uint256,uint256)": {
        "notice": "See whitelisted strategies in the system"
      }
    },
    "notice": "It allows adding/removing execution strategies for trading on the LooksRare exchange.",
    "version": 1
  },
  "storageLayout": {
    "storage": [
      {
        "astId": 7,
        "contract": "contracts/ExecutionManager.sol:ExecutionManager",
        "label": "_owner",
        "offset": 0,
        "slot": "0",
        "type": "t_address"
      },
      {
        "astId": 4800,
        "contract": "contracts/ExecutionManager.sol:ExecutionManager",
        "label": "_whitelistedStrategies",
        "offset": 0,
        "slot": "1",
        "type": "t_struct(AddressSet)4304_storage"
      }
    ],
    "types": {
      "t_address": {
        "encoding": "inplace",
        "label": "address",
        "numberOfBytes": "20"
      },
      "t_array(t_bytes32)dyn_storage": {
        "base": "t_bytes32",
        "encoding": "dynamic_array",
        "label": "bytes32[]",
        "numberOfBytes": "32"
      },
      "t_bytes32": {
        "encoding": "inplace",
        "label": "bytes32",
        "numberOfBytes": "32"
      },
      "t_mapping(t_bytes32,t_uint256)": {
        "encoding": "mapping",
        "key": "t_bytes32",
        "label": "mapping(bytes32 => uint256)",
        "numberOfBytes": "32",
        "value": "t_uint256"
      },
      "t_struct(AddressSet)4304_storage": {
        "encoding": "inplace",
        "label": "struct EnumerableSet.AddressSet",
        "members": [
          {
            "astId": 4303,
            "contract": "contracts/ExecutionManager.sol:ExecutionManager",
            "label": "_inner",
            "offset": 0,
            "slot": "0",
            "type": "t_struct(Set)4003_storage"
          }
        ],
        "numberOfBytes": "64"
      },
      "t_struct(Set)4003_storage": {
        "encoding": "inplace",
        "label": "struct EnumerableSet.Set",
        "members": [
          {
            "astId": 3998,
            "contract": "contracts/ExecutionManager.sol:ExecutionManager",
            "label": "_values",
            "offset": 0,
            "slot": "0",
            "type": "t_array(t_bytes32)dyn_storage"
          },
          {
            "astId": 4002,
            "contract": "contracts/ExecutionManager.sol:ExecutionManager",
            "label": "_indexes",
            "offset": 0,
            "slot": "1",
            "type": "t_mapping(t_bytes32,t_uint256)"
          }
        ],
        "numberOfBytes": "64"
      },
      "t_uint256": {
        "encoding": "inplace",
        "label": "uint256",
        "numberOfBytes": "32"
      }
    }
  }
}