{
  "address": "0x7499e71FF8a472D1d82Aa2e68e868B5B92896B0E",
  "abi": [
    {
      "inputs": [
        {
          "internalType": "address",
          "name": "_currencyManager",
          "type": "address"
        },
        {
          "internalType": "address",
          "name": "_executionManager",
          "type": "address"
        },
        {
          "internalType": "address",
          "name": "_royaltyFeeManager",
          "type": "address"
        },
        {
          "internalType": "address",
          "name": "_WETH",
          "type": "address"
        },
        {
          "internalType": "address",
          "name": "_protocolFeeRecipient",
          "type": "address"
        }
      ],
      "stateMutability": "nonpayable",
      "type": "constructor"
    },
    {
      "anonymous": false,
      "inputs": [
        {
          "indexed": true,
          "internalType": "address",
          "name": "user",
          "type": "address"
        },
        {
          "indexed": false,
          "internalType": "uint256",
          "name": "newMinNonce",
          "type": "uint256"
        }
      ],
      "name": "CancelAllOrders",
      "type": "event"
    },
    {
      "anonymous": false,
      "inputs": [
        {
          "indexed": true,
          "internalType": "address",
          "name": "user",
          "type": "address"
        },
        {
          "indexed": false,
          "internalType": "uint256[]",
          "name": "orderNonces",
          "type": "uint256[]"
        }
      ],
      "name": "CancelMultipleOrders",
      "type": "event"
    },
    {
      "anonymous": false,
      "inputs": [
        {
          "indexed": true,
          "internalType": "address",
          "name": "currencyManager",
          "type": "address"
        }
      ],
      "name": "NewCurrencyManager",
      "type": "event"
    },
    {
      "anonymous": false,
      "inputs": [
        {
          "indexed": true,
          "internalType": "address",
          "name": "executionManager",
          "type": "address"
        }
      ],
      "name": "NewExecutionManager",
      "type": "event"
    },
    {
      "anonymous": false,
      "inputs": [
        {
          "indexed": true,
          "internalType": "address",
          "name": "platformNFT",
          "type": "address"
        }
      ],
      "name": "NewPlatformNFT",
      "type": "event"
    },
    {
      "anonymous": false,
      "inputs": [
        {
          "indexed": true,
          "internalType": "address",
          "name": "protocolFeeRecipient",
          "type": "address"
        }
      ],
      "name": "NewProtocolFeeRecipient",
      "type": "event"
    },
    {
      "anonymous": false,
      "inputs": [
        {
          "indexed": true,
          "internalType": "address",
          "name": "royaltyFeeManager",
          "type": "address"
        }
      ],
      "name": "NewRoyaltyFeeManager",
      "type": "event"
    },
    {
      "anonymous": false,
      "inputs": [
        {
          "indexed": true,
          "internalType": "address",
          "name": "transferSelectorNFT",
          "type": "address"
        }
      ],
      "name": "NewTransferSelectorNFT",
      "type": "event"
    },
    {
      "anonymous": false,
      "inputs": [
        {
          "indexed": true,
          "internalType": "address",
          "name": "previousOwner",
          "type": "address"
        },
        {
          "indexed": true,
          "internalType": "address",
          "name": "newOwner",
          "type": "address"
        }
      ],
      "name": "OwnershipTransferred",
      "type": "event"
    },
    {
      "anonymous": false,
      "inputs": [
        {
          "indexed": true,
          "internalType": "address",
          "name": "collection",
          "type": "address"
        },
        {
          "indexed": true,
          "internalType": "uint256",
          "name": "tokenId",
          "type": "uint256"
        },
        {
          "indexed": true,
          "internalType": "address",
          "name": "royaltyRecipient",
          "type": "address"
        },
        {
          "indexed": false,
          "internalType": "address",
          "name": "currency",
          "type": "address"
        },
        {
          "indexed": false,
          "internalType": "uint256",
          "name": "amount",
          "type": "uint256"
        }
      ],
      "name": "RoyaltyPayment",
      "type": "event"
    },
    {
      "anonymous": false,
      "inputs": [
        {
          "indexed": false,
          "internalType": "bytes32",
          "name": "orderHash",
          "type": "bytes32"
        },
        {
          "indexed": false,
          "internalType": "uint256",
          "name": "orderNonce",
          "type": "uint256"
        },
        {
          "indexed": true,
          "internalType": "address",
          "name": "taker",
          "type": "address"
        },
        {
          "indexed": true,
          "internalType": "address",
          "name": "maker",
          "type": "address"
        },
        {
          "indexed": true,
          "internalType": "address",
          "name": "strategy",
          "type": "address"
        },
        {
          "indexed": false,
          "internalType": "address",
          "name": "currency",
          "type": "address"
        },
        {
          "indexed": false,
          "internalType": "address",
          "name": "collection",
          "type": "address"
        },
        {
          "indexed": false,
          "internalType": "uint256",
          "name": "tokenId",
          "type": "uint256"
        },
        {
          "indexed": false,
          "internalType": "uint256",
          "name": "amount",
          "type": "uint256"
        },
        {
          "indexed": false,
          "internalType": "uint256",
          "name": "price",
          "type": "uint256"
        }
      ],
      "name": "TakerAsk",
      "type": "event"
    },
    {
      "anonymous": false,
      "inputs": [
        {
          "indexed": false,
          "internalType": "bytes32",
          "name": "orderHash",
          "type": "bytes32"
        },
        {
          "indexed": false,
          "internalType": "uint256",
          "name": "orderNonce",
          "type": "uint256"
        },
        {
          "indexed": true,
          "internalType": "address",
          "name": "taker",
          "type": "address"
        },
        {
          "indexed": true,
          "internalType": "address",
          "name": "maker",
          "type": "address"
        },
        {
          "indexed": true,
          "internalType": "address",
          "name": "strategy",
          "type": "address"
        },
        {
          "indexed": false,
          "internalType": "address",
          "name": "currency",
          "type": "address"
        },
        {
          "indexed": false,
          "internalType": "address",
          "name": "collection",
          "type": "address"
        },
        {
          "indexed": false,
          "internalType": "uint256",
          "name": "tokenId",
          "type": "uint256"
        },
        {
          "indexed": false,
          "internalType": "uint256",
          "name": "amount",
          "type": "uint256"
        },
        {
          "indexed": false,
          "internalType": "uint256",
          "name": "price",
          "type": "uint256"
        }
      ],
      "name": "TakerBid",
      "type": "event"
    },
    {
      "inputs": [],
      "name": "DOMAIN_SEPARATOR",
      "outputs": [
        {
          "internalType": "bytes32",
          "name": "",
          "type": "bytes32"
        }
      ],
      "stateMutability": "view",
      "type": "function"
    },
    {
      "inputs": [],
      "name": "WETH",
      "outputs": [
        {
          "internalType": "address",
          "name": "",
          "type": "address"
        }
      ],
      "stateMutability": "view",
      "type": "function"
    },
    {
      "inputs": [
        {
          "internalType": "uint256",
          "name": "minNonce",
          "type": "uint256"
        }
      ],
      "name": "cancelAllOrdersForSender",
      "outputs": [],
      "stateMutability": "nonpayable",
      "type": "function"
    },
    {
      "inputs": [
        {
          "internalType": "uint256[]",
          "name": "orderNonces",
          "type": "uint256[]"
        }
      ],
      "name": "cancelMultipleMakerOrders",
      "outputs": [],
      "stateMutability": "nonpayable",
      "type": "function"
    },
    {
      "inputs": [],
      "name": "currencyManager",
      "outputs": [
        {
          "internalType": "contract ICurrencyManager",
          "name": "",
          "type": "address"
        }
      ],
      "stateMutability": "view",
      "type": "function"
    },
    {
      "inputs": [],
      "name": "executionManager",
      "outputs": [
        {
          "internalType": "contract IExecutionManager",
          "name": "",
          "type": "address"
        }
      ],
      "stateMutability": "view",
      "type": "function"
    },
    {
      "inputs": [
        {
          "internalType": "address",
          "name": "user",
          "type": "address"
        },
        {
          "internalType": "uint256",
          "name": "orderNonce",
          "type": "uint256"
        }
      ],
      "name": "isUserOrderNonceExecutedOrCancelled",
      "outputs": [
        {
          "internalType": "bool",
          "name": "",
          "type": "bool"
        }
      ],
      "stateMutability": "view",
      "type": "function"
    },
    {
      "inputs": [
        {
          "components": [
            {
              "internalType": "bool",
              "name": "isOrderAsk",
              "type": "bool"
            },
            {
              "internalType": "address",
              "name": "taker",
              "type": "address"
            },
            {
              "internalType": "uint256",
              "name": "price",
              "type": "uint256"
            },
            {
              "internalType": "uint256",
              "name": "tokenId",
              "type": "uint256"
            },
            {
              "internalType": "uint256",
              "name": "minPercentageToAsk",
              "type": "uint256"
            },
            {
              "internalType": "bytes",
              "name": "params",
              "type": "bytes"
            }
          ],
          "internalType": "struct OrderTypes.TakerOrder",
          "name": "takerBid",
          "type": "tuple"
        },
        {
          "components": [
            {
              "internalType": "bool",
              "name": "isOrderAsk",
              "type": "bool"
            },
            {
              "internalType": "address",
              "name": "signer",
              "type": "address"
            },
            {
              "internalType": "address",
              "name": "collection",
              "type": "address"
            },
            {
              "internalType": "uint256",
              "name": "price",
              "type": "uint256"
            },
            {
              "internalType": "uint256",
              "name": "tokenId",
              "type": "uint256"
            },
            {
              "internalType": "uint256",
              "name": "amount",
              "type": "uint256"
            },
            {
              "internalType": "address",
              "name": "strategy",
              "type": "address"
            },
            {
              "internalType": "address",
              "name": "currency",
              "type": "address"
            },
            {
              "internalType": "uint256",
              "name": "nonce",
              "type": "uint256"
            },
            {
              "internalType": "uint256",
              "name": "startTime",
              "type": "uint256"
            },
            {
              "internalType": "uint256",
              "name": "endTime",
              "type": "uint256"
            },
            {
              "internalType": "uint256",
              "name": "minPercentageToAsk",
              "type": "uint256"
            },
            {
              "internalType": "bytes",
              "name": "params",
              "type": "bytes"
            },
            {
              "internalType": "uint8",
              "name": "v",
              "type": "uint8"
            },
            {
              "internalType": "bytes32",
              "name": "r",
              "type": "bytes32"
            },
            {
              "internalType": "bytes32",
              "name": "s",
              "type": "bytes32"
            }
          ],
          "internalType": "struct OrderTypes.MakerOrder",
          "name": "makerAsk",
          "type": "tuple"
        }
      ],
      "name": "matchAskWithTakerBid",
      "outputs": [],
      "stateMutability": "nonpayable",
      "type": "function"
    },
    {
      "inputs": [
        {
          "components": [
            {
              "internalType": "bool",
              "name": "isOrderAsk",
              "type": "bool"
            },
            {
              "internalType": "address",
              "name": "taker",
              "type": "address"
            },
            {
              "internalType": "uint256",
              "name": "price",
              "type": "uint256"
            },
            {
              "internalType": "uint256",
              "name": "tokenId",
              "type": "uint256"
            },
            {
              "internalType": "uint256",
              "name": "minPercentageToAsk",
              "type": "uint256"
            },
            {
              "internalType": "bytes",
              "name": "params",
              "type": "bytes"
            }
          ],
          "internalType": "struct OrderTypes.TakerOrder",
          "name": "takerBid",
          "type": "tuple"
        },
        {
          "components": [
            {
              "internalType": "bool",
              "name": "isOrderAsk",
              "type": "bool"
            },
            {
              "internalType": "address",
              "name": "signer",
              "type": "address"
            },
            {
              "internalType": "address",
              "name": "collection",
              "type": "address"
            },
            {
              "internalType": "uint256",
              "name": "price",
              "type": "uint256"
            },
            {
              "internalType": "uint256",
              "name": "tokenId",
              "type": "uint256"
            },
            {
              "internalType": "uint256",
              "name": "amount",
              "type": "uint256"
            },
            {
              "internalType": "address",
              "name": "strategy",
              "type": "address"
            },
            {
              "internalType": "address",
              "name": "currency",
              "type": "address"
            },
            {
              "internalType": "uint256",
              "name": "nonce",
              "type": "uint256"
            },
            {
              "internalType": "uint256",
              "name": "startTime",
              "type": "uint256"
            },
            {
              "internalType": "uint256",
              "name": "endTime",
              "type": "uint256"
            },
            {
              "internalType": "uint256",
              "name": "minPercentageToAsk",
              "type": "uint256"
            },
            {
              "internalType": "bytes",
              "name": "params",
              "type": "bytes"
            },
            {
              "internalType": "uint8",
              "name": "v",
              "type": "uint8"
            },
            {
              "internalType": "bytes32",
              "name": "r",
              "type": "bytes32"
            },
            {
              "internalType": "bytes32",
              "name": "s",
              "type": "bytes32"
            }
          ],
          "internalType": "struct OrderTypes.MakerOrder",
          "name": "makerAsk",
          "type": "tuple"
        }
      ],
      "name": "matchAskWithTakerBidUsingETHAndWETH",
      "outputs": [],
      "stateMutability": "payable",
      "type": "function"
    },
    {
      "inputs": [
        {
          "components": [
            {
              "internalType": "bool",
              "name": "isOrderAsk",
              "type": "bool"
            },
            {
              "internalType": "address",
              "name": "taker",
              "type": "address"
            },
            {
              "internalType": "uint256",
              "name": "price",
              "type": "uint256"
            },
            {
              "internalType": "uint256",
              "name": "tokenId",
              "type": "uint256"
            },
            {
              "internalType": "uint256",
              "name": "minPercentageToAsk",
              "type": "uint256"
            },
            {
              "internalType": "bytes",
              "name": "params",
              "type": "bytes"
            }
          ],
          "internalType": "struct OrderTypes.TakerOrder",
          "name": "takerAsk",
          "type": "tuple"
        },
        {
          "components": [
            {
              "internalType": "bool",
              "name": "isOrderAsk",
              "type": "bool"
            },
            {
              "internalType": "address",
              "name": "signer",
              "type": "address"
            },
            {
              "internalType": "address",
              "name": "collection",
              "type": "address"
            },
            {
              "internalType": "uint256",
              "name": "price",
              "type": "uint256"
            },
            {
              "internalType": "uint256",
              "name": "tokenId",
              "type": "uint256"
            },
            {
              "internalType": "uint256",
              "name": "amount",
              "type": "uint256"
            },
            {
              "internalType": "address",
              "name": "strategy",
              "type": "address"
            },
            {
              "internalType": "address",
              "name": "currency",
              "type": "address"
            },
            {
              "internalType": "uint256",
              "name": "nonce",
              "type": "uint256"
            },
            {
              "internalType": "uint256",
              "name": "startTime",
              "type": "uint256"
            },
            {
              "internalType": "uint256",
              "name": "endTime",
              "type": "uint256"
            },
            {
              "internalType": "uint256",
              "name": "minPercentageToAsk",
              "type": "uint256"
            },
            {
              "internalType": "bytes",
              "name": "params",
              "type": "bytes"
            },
            {
              "internalType": "uint8",
              "name": "v",
              "type": "uint8"
            },
            {
              "internalType": "bytes32",
              "name": "r",
              "type": "bytes32"
            },
            {
              "internalType": "bytes32",
              "name": "s",
              "type": "bytes32"
            }
          ],
          "internalType": "struct OrderTypes.MakerOrder",
          "name": "makerBid",
          "type": "tuple"
        }
      ],
      "name": "matchBidWithTakerAsk",
      "outputs": [],
      "stateMutability": "nonpayable",
      "type": "function"
    },
    {
      "inputs": [],
      "name": "owner",
      "outputs": [
        {
          "internalType": "address",
          "name": "",
          "type": "address"
        }
      ],
      "stateMutability": "view",
      "type": "function"
    },
    {
      "inputs": [],
      "name": "platformNFT",
      "outputs": [
        {
          "internalType": "contract IERC721",
          "name": "",
          "type": "address"
        }
      ],
      "stateMutability": "view",
      "type": "function"
    },
    {
      "inputs": [],
      "name": "protocolFeeRecipient",
      "outputs": [
        {
          "internalType": "address",
          "name": "",
          "type": "address"
        }
      ],
      "stateMutability": "view",
      "type": "function"
    },
    {
      "inputs": [],
      "name": "renounceOwnership",
      "outputs": [],
      "stateMutability": "nonpayable",
      "type": "function"
    },
    {
      "inputs": [],
      "name": "royaltyFeeManager",
      "outputs": [
        {
          "internalType": "contract IRoyaltyFeeManager",
          "name": "",
          "type": "address"
        }
      ],
      "stateMutability": "view",
      "type": "function"
    },
    {
      "inputs": [
        {
          "internalType": "address",
          "name": "newOwner",
          "type": "address"
        }
      ],
      "name": "transferOwnership",
      "outputs": [],
      "stateMutability": "nonpayable",
      "type": "function"
    },
    {
      "inputs": [],
      "name": "transferSelectorNFT",
      "outputs": [
        {
          "internalType": "contract ITransferSelectorNFT",
          "name": "",
          "type": "address"
        }
      ],
      "stateMutability": "view",
      "type": "function"
    },
    {
      "inputs": [
        {
          "internalType": "address",
          "name": "_currencyManager",
          "type": "address"
        }
      ],
      "name": "updateCurrencyManager",
      "outputs": [],
      "stateMutability": "nonpayable",
      "type": "function"
    },
    {
      "inputs": [
        {
          "internalType": "address",
          "name": "_executionManager",
          "type": "address"
        }
      ],
      "name": "updateExecutionManager",
      "outputs": [],
      "stateMutability": "nonpayable",
      "type": "function"
    },
    {
      "inputs": [
        {
          "internalType": "address",
          "name": "_platformNFT",
          "type": "address"
        }
      ],
      "name": "updatePlatformNFT",
      "outputs": [],
      "stateMutability": "nonpayable",
      "type": "function"
    },
    {
      "inputs": [
        {
          "internalType": "address",
          "name": "_protocolFeeRecipient",
          "type": "address"
        }
      ],
      "name": "updateProtocolFeeRecipient",
      "outputs": [],
      "stateMutability": "nonpayable",
      "type": "function"
    },
    {
      "inputs": [
        {
          "internalType": "address",
          "name": "_royaltyFeeManager",
          "type": "address"
        }
      ],
      "name": "updateRoyaltyFeeManager",
      "outputs": [],
      "stateMutability": "nonpayable",
      "type": "function"
    },
    {
      "inputs": [
        {
          "internalType": "address",
          "name": "_transferSelectorNFT",
          "type": "address"
        }
      ],
      "name": "updateTransferSelectorNFT",
      "outputs": [],
      "stateMutability": "nonpayable",
      "type": "function"
    },
    {
      "inputs": [
        {
          "internalType": "address",
          "name": "",
          "type": "address"
        }
      ],
      "name": "userMinOrderNonce",
      "outputs": [
        {
          "internalType": "uint256",
          "name": "",
          "type": "uint256"
        }
      ],
      "stateMutability": "view",
      "type": "function"
    }
  ],
  "transactionHash": "0x41caa23e4dfa867977072b848f60a6acc951dde763c0565fb44bb775109819c1",
  "args": [
    "0xDa2Aa57c197d113EF36c9C57889a030b5D10754E",
    "0xBB774AE925044F4D066f77762356ff1c16D4e0Ab",
    "0x4D1576198130d24F357246EE39777A7D0a53Df1D",
    "0xa00744882684c3e4747faefd68d283ea44099d03",
    "0x0BDf1bc0cdD2E41E62E6BE2F756634FE2b587906"
  ],
  "numDeployments": 4,
  "solcInputHash": "9099ef5d26ff0339240f102b147ad587",
  "bytecode": "0x60c06040523480156200001157600080fd5b5060405162004884380380620048848339810160408190526200003491620001b9565b600160005562000044336200014a565b604080517f8b73c3c69bb8fe3d512ecc4cf759cc79239f7b179b0ffacaa9a75d522b39400f60208201527fda9101ba92939daf4bb2e18cd5f942363b9297fbc3232c9dd964abb1fb70ed71918101919091527fc89efdaa54c0f20c7adf612882df0950f5a951637e0307cdcb4c672f298b8bc660608201524660808201523060a082015260c00160408051808303601f19018152919052805160209091012060a052600380546001600160a01b03199081166001600160a01b0397881617909155600480548216958716959095179094556005805485169386169390931790925560601b6001600160601b03191660805260028054909216921691909117905562000229565b600180546001600160a01b038381166001600160a01b0319831681179093556040519116919082907f8be0079c531659141344cd1fd0a4f28419497f9722a3daafe3b4186f6b6457e090600090a35050565b80516001600160a01b0381168114620001b457600080fd5b919050565b600080600080600060a08688031215620001d257600080fd5b620001dd866200019c565b9450620001ed602087016200019c565b9350620001fd604087016200019c565b92506200020d606087016200019c565b91506200021d608087016200019c565b90509295509295909350565b60805160601c60a0516145fa6200028a6000396000818161027e015261244a01526000818161048e015281816115b40152818161173c015281816117d801528181613082015281816131b60152818161323b015261332e01526145fa6000f3fe60806040526004361061018b5760003560e01c8063715018a6116100d6578063b4e4b2961161007f578063d4ff41dc11610059578063d4ff41dc14610523578063f2fde38b14610543578063f75ff53f1461056357600080fd5b8063b4e4b296146104d0578063c5498769146104e3578063cbd2ec651461050357600080fd5b80639e53a69a116100b05780639e53a69a1461045c578063ad5c46481461047c578063b24cc301146104b057600080fd5b8063715018a6146103ef57806387e4401f146104045780638da5cb5b1461043157600080fd5b80634266581e116101385780635ce052d7116101125780635ce052d7146103755780635e14f68e1461039557806364df049e146103c257600080fd5b80634266581e146102ee578063483abb9f1461031b57806353d9b3a01461034857600080fd5b80633644e515116101695780633644e5151461026c57806338e29209146102ae5780633b6d032e146102ce57600080fd5b80630f747d74146101905780631df47f80146101e757806331e27e2714610209575b600080fd5b34801561019c57600080fd5b506003546101bd9073ffffffffffffffffffffffffffffffffffffffff1681565b60405173ffffffffffffffffffffffffffffffffffffffff90911681526020015b60405180910390f35b3480156101f357600080fd5b50610207610202366004613c04565b610583565b005b34801561021557600080fd5b5061025c610224366004613c3e565b73ffffffffffffffffffffffffffffffffffffffff919091166000908152600960209081526040808320938352929052205460ff1690565b60405190151581526020016101de565b34801561027857600080fd5b506102a07f000000000000000000000000000000000000000000000000000000000000000081565b6040519081526020016101de565b3480156102ba57600080fd5b506102076102c9366004613dc0565b610678565b3480156102da57600080fd5b506102076102e9366004613dc0565b610b64565b3480156102fa57600080fd5b506102a0610309366004613c04565b60086020526000908152604090205481565b34801561032757600080fd5b506004546101bd9073ffffffffffffffffffffffffffffffffffffffff1681565b34801561035457600080fd5b506007546101bd9073ffffffffffffffffffffffffffffffffffffffff1681565b34801561038157600080fd5b50610207610390366004613c04565b610fd7565b3480156103a157600080fd5b506006546101bd9073ffffffffffffffffffffffffffffffffffffffff1681565b3480156103ce57600080fd5b506002546101bd9073ffffffffffffffffffffffffffffffffffffffff1681565b3480156103fb57600080fd5b50610207611144565b34801561041057600080fd5b506005546101bd9073ffffffffffffffffffffffffffffffffffffffff1681565b34801561043d57600080fd5b5060015473ffffffffffffffffffffffffffffffffffffffff166101bd565b34801561046857600080fd5b50610207610477366004613c98565b6111d1565b34801561048857600080fd5b506101bd7f000000000000000000000000000000000000000000000000000000000000000081565b3480156104bc57600080fd5b506102076104cb366004613c04565b6113b2565b6102076104de366004613dc0565b6114a2565b3480156104ef57600080fd5b506102076104fe366004613c04565b611a4c565b34801561050f57600080fd5b5061020761051e366004613e34565b611bb9565b34801561052f57600080fd5b5061020761053e366004613c04565b611d51565b34801561054f57600080fd5b5061020761055e366004613c04565b611ebe565b34801561056f57600080fd5b5061020761057e366004613c04565b611fee565b60015473ffffffffffffffffffffffffffffffffffffffff163314610609576040517f08c379a000000000000000000000000000000000000000000000000000000000815260206004820181905260248201527f4f776e61626c653a2063616c6c6572206973206e6f7420746865206f776e657260448201526064015b60405180910390fd5b600280547fffffffffffffffffffffffff00000000000000000000000000000000000000001673ffffffffffffffffffffffffffffffffffffffff83169081179091556040517f8cffb07faa2874440346743bdc0a86b06c3335cc47dc49b327d10e77b73ceb1090600090a250565b600260005414156106e5576040517f08c379a000000000000000000000000000000000000000000000000000000000815260206004820152601f60248201527f5265656e7472616e637947756172643a207265656e7472616e742063616c6c006044820152606401610600565b60026000556106f76020820182613d0d565b801561070d575061070b6020830183613d0d565b155b610773576040517f08c379a000000000000000000000000000000000000000000000000000000000815260206004820152601260248201527f4f726465723a2057726f6e6720736964657300000000000000000000000000006044820152606401610600565b6107836040830160208401613c04565b73ffffffffffffffffffffffffffffffffffffffff163373ffffffffffffffffffffffffffffffffffffffff1614610817576040517f08c379a000000000000000000000000000000000000000000000000000000000815260206004820152601f60248201527f4f726465723a2054616b6572206d757374206265207468652073656e646572006044820152606401610600565b600061082a61082583614391565b61215b565b90506108368282612202565b6000808061084a60e0860160c08701613c04565b73ffffffffffffffffffffffffffffffffffffffff1663865781ca87876040518363ffffffff1660e01b815260040161088492919061406b565b60606040518083038186803b15801561089c57600080fd5b505afa1580156108b0573d6000803e3d6000fd5b505050506040513d601f19601f820116820180604052508101906108d49190613d47565b92509250925082610941576040517f08c379a000000000000000000000000000000000000000000000000000000000815260206004820152601b60248201527f53747261746567793a20457865637574696f6e20696e76616c696400000000006044820152606401610600565b6001600960006109576040890160208a01613c04565b73ffffffffffffffffffffffffffffffffffffffff168152602080820192909252604090810160009081206101008a01358252909252902080547fffffffffffffffffffffffffffffffffffffffffffffffffffffffffffffff0016911515919091179055610a126109cf60e0870160c08801613c04565b6109df6060880160408901613c04565b846109f16101008a0160e08b01613c04565b33610a0260408c0160208d01613c04565b8c604001358c6101600135612739565b610a4c610a256060870160408801613c04565b610a356040880160208901613c04565b610a4560408a0160208b01613c04565b8585612b6a565b610a5c60e0860160c08701613c04565b73ffffffffffffffffffffffffffffffffffffffff16610a826040870160208801613c04565b73ffffffffffffffffffffffffffffffffffffffff16610aa86040890160208a01613c04565b73ffffffffffffffffffffffffffffffffffffffff167f95fb6205e23ff6bda16a2d1dba56b9ad7c783f67c96fa149785052f47696f2be876101008a01803590610af59060e08d01613c04565b610b0560608d0160408e01613c04565b60408051948552602085019390935273ffffffffffffffffffffffffffffffffffffffff918216848401521660608301526080820188905260a082018790528b013560c082015260e00160405180910390a45050600160005550505050565b60026000541415610bd1576040517f08c379a000000000000000000000000000000000000000000000000000000000815260206004820152601f60248201527f5265656e7472616e637947756172643a207265656e7472616e742063616c6c006044820152606401610600565b6002600055610be36020820182613d0d565b158015610bf85750610bf86020830183613d0d565b610c5e576040517f08c379a000000000000000000000000000000000000000000000000000000000815260206004820152601260248201527f4f726465723a2057726f6e6720736964657300000000000000000000000000006044820152606401610600565b610c6e6040830160208401613c04565b73ffffffffffffffffffffffffffffffffffffffff163373ffffffffffffffffffffffffffffffffffffffff1614610d02576040517f08c379a000000000000000000000000000000000000000000000000000000000815260206004820152601f60248201527f4f726465723a2054616b6572206d757374206265207468652073656e646572006044820152606401610600565b6000610d1061082583614391565b9050610d1c8282612202565b60008080610d3060e0860160c08701613c04565b73ffffffffffffffffffffffffffffffffffffffff1663ad2390ac87876040518363ffffffff1660e01b8152600401610d6a92919061406b565b60606040518083038186803b158015610d8257600080fd5b505afa158015610d96573d6000803e3d6000fd5b505050506040513d601f19601f82011682018060405250810190610dba9190613d47565b92509250925082610e27576040517f08c379a000000000000000000000000000000000000000000000000000000000815260206004820152601b60248201527f53747261746567793a20457865637574696f6e20696e76616c696400000000006044820152606401610600565b600160096000610e3d6040890160208a01613c04565b73ffffffffffffffffffffffffffffffffffffffff168152602080820192909252604090810160009081206101008a013582529092529081902080547fffffffffffffffffffffffffffffffffffffffffffffffffffffffffffffff001692151592909217909155610eca90610eb99060608801908801613c04565b33610a456040890160208a01613c04565b610f2e610edd60e0870160c08801613c04565b610eed6060880160408901613c04565b84610eff6101008a0160e08b01613c04565b610f0f60408b0160208c01613c04565b610f1f60408d0160208e01613c04565b8c604001358d60800135612739565b610f3e60e0860160c08701613c04565b73ffffffffffffffffffffffffffffffffffffffff16610f646040870160208801613c04565b73ffffffffffffffffffffffffffffffffffffffff16610f8a6040890160208a01613c04565b73ffffffffffffffffffffffffffffffffffffffff167f68cd251d4d267c6e2034ff0088b990352b97b2002c0476587d0c4da889c11330876101008a01803590610af59060e08d01613c04565b60015473ffffffffffffffffffffffffffffffffffffffff163314611058576040517f08c379a000000000000000000000000000000000000000000000000000000000815260206004820181905260248201527f4f776e61626c653a2063616c6c6572206973206e6f7420746865206f776e65726044820152606401610600565b73ffffffffffffffffffffffffffffffffffffffff81166110d5576040517f08c379a000000000000000000000000000000000000000000000000000000000815260206004820152601d60248201527f4f776e65723a2043616e6e6f74206265206e756c6c20616464726573730000006044820152606401610600565b600380547fffffffffffffffffffffffff00000000000000000000000000000000000000001673ffffffffffffffffffffffffffffffffffffffff83169081179091556040517fb4f5db40df3aced29e88a4babbc3b46e305e07d34098525d18b1497056e6383890600090a250565b60015473ffffffffffffffffffffffffffffffffffffffff1633146111c5576040517f08c379a000000000000000000000000000000000000000000000000000000000815260206004820181905260248201527f4f776e61626c653a2063616c6c6572206973206e6f7420746865206f776e65726044820152606401610600565b6111cf6000612d5a565b565b80611238576040517f08c379a000000000000000000000000000000000000000000000000000000000815260206004820152601760248201527f43616e63656c3a2043616e6e6f7420626520656d7074790000000000000000006044820152606401610600565b60005b8181101561135d573360009081526008602052604090205483838381811061126557611265614536565b9050602002013510156112fa576040517f08c379a000000000000000000000000000000000000000000000000000000000815260206004820152602660248201527f43616e63656c3a204f72646572206e6f6e6365206c6f776572207468616e206360448201527f757272656e7400000000000000000000000000000000000000000000000000006064820152608401610600565b33600090815260096020526040812060019185858581811061131e5761131e614536565b90506020020135815260200190815260200160002060006101000a81548160ff0219169083151502179055508080611355906144ce565b91505061123b565b503373ffffffffffffffffffffffffffffffffffffffff167ffa0ae5d80fe3763c880a3839fab0294171a6f730d1f82c4cd5392c6f67b4173283836040516113a6929190613f30565b60405180910390a25050565b60015473ffffffffffffffffffffffffffffffffffffffff163314611433576040517f08c379a000000000000000000000000000000000000000000000000000000000815260206004820181905260248201527f4f776e61626c653a2063616c6c6572206973206e6f7420746865206f776e65726044820152606401610600565b600780547fffffffffffffffffffffffff00000000000000000000000000000000000000001673ffffffffffffffffffffffffffffffffffffffff83169081179091556040517fe58cd35d27b99ff4118a59d2bb828e4000e9b2998202d1ea939591895136e3f490600090a250565b6002600054141561150f576040517f08c379a000000000000000000000000000000000000000000000000000000000815260206004820152601f60248201527f5265656e7472616e637947756172643a207265656e7472616e742063616c6c006044820152606401610600565b60026000556115216020820182613d0d565b801561153757506115356020830183613d0d565b155b61159d576040517f08c379a000000000000000000000000000000000000000000000000000000000815260206004820152601260248201527f4f726465723a2057726f6e6720736964657300000000000000000000000000006044820152606401610600565b73ffffffffffffffffffffffffffffffffffffffff7f0000000000000000000000000000000000000000000000000000000000000000166115e5610100830160e08401613c04565b73ffffffffffffffffffffffffffffffffffffffff1614611662576040517f08c379a000000000000000000000000000000000000000000000000000000000815260206004820152601c60248201527f4f726465723a2043757272656e6379206d7573742062652057455448000000006044820152606401610600565b6116726040830160208401613c04565b73ffffffffffffffffffffffffffffffffffffffff163373ffffffffffffffffffffffffffffffffffffffff1614611706576040517f08c379a000000000000000000000000000000000000000000000000000000000815260206004820152601f60248201527f4f726465723a2054616b6572206d757374206265207468652073656e646572006044820152606401610600565b348260400135111561176957611764333061172534604087013561437a565b73ffffffffffffffffffffffffffffffffffffffff7f000000000000000000000000000000000000000000000000000000000000000016929190612dd1565b6117d6565b348260400135146117d6576040517f08c379a000000000000000000000000000000000000000000000000000000000815260206004820152601960248201527f4f726465723a204d73672e76616c756520746f6f2068696768000000000000006044820152606401610600565b7f000000000000000000000000000000000000000000000000000000000000000073ffffffffffffffffffffffffffffffffffffffff1663d0e30db0346040518263ffffffff1660e01b81526004016000604051808303818588803b15801561183e57600080fd5b505af1158015611852573d6000803e3d6000fd5b505050505060006118668261082590614391565b90506118728282612202565b6000808061188660e0860160c08701613c04565b73ffffffffffffffffffffffffffffffffffffffff1663865781ca87876040518363ffffffff1660e01b81526004016118c092919061406b565b60606040518083038186803b1580156118d857600080fd5b505afa1580156118ec573d6000803e3d6000fd5b505050506040513d601f19601f820116820180604052508101906119109190613d47565b9250925092508261197d576040517f08c379a000000000000000000000000000000000000000000000000000000000815260206004820152601b60248201527f53747261746567793a20457865637574696f6e20696e76616c696400000000006044820152606401610600565b6001600960006119936040890160208a01613c04565b73ffffffffffffffffffffffffffffffffffffffff168152602080820192909252604090810160009081206101008a01358252909252902080547fffffffffffffffffffffffffffffffffffffffffffffffffffffffffffffff0016911515919091179055610a12611a0b60e0870160c08801613c04565b611a1b6060880160408901613c04565b84611a2c60408b0160208c01613c04565b611a3c60408b0160208c01613c04565b8b604001358b6101600135612eb3565b60015473ffffffffffffffffffffffffffffffffffffffff163314611acd576040517f08c379a000000000000000000000000000000000000000000000000000000000815260206004820181905260248201527f4f776e61626c653a2063616c6c6572206973206e6f7420746865206f776e65726044820152606401610600565b73ffffffffffffffffffffffffffffffffffffffff8116611b4a576040517f08c379a000000000000000000000000000000000000000000000000000000000815260206004820152601d60248201527f4f776e65723a2043616e6e6f74206265206e756c6c20616464726573730000006044820152606401610600565b600580547fffffffffffffffffffffffff00000000000000000000000000000000000000001673ffffffffffffffffffffffffffffffffffffffff83169081179091556040517f80e3874461ebbd918ac3e81da0a92e5e51387d70f337237c9123e48d20e5a50890600090a250565b336000908152600860205260409020548111611c57576040517f08c379a000000000000000000000000000000000000000000000000000000000815260206004820152602660248201527f43616e63656c3a204f72646572206e6f6e6365206c6f776572207468616e206360448201527f757272656e7400000000000000000000000000000000000000000000000000006064820152608401610600565b33600090815260086020526040902054611c74906207a1206142ea565b8110611d02576040517f08c379a000000000000000000000000000000000000000000000000000000000815260206004820152602160248201527f43616e63656c3a2043616e6e6f742063616e63656c206d6f7265206f7264657260448201527f73000000000000000000000000000000000000000000000000000000000000006064820152608401610600565b3360008181526008602052604090819020839055517f1e7178d84f0b0825c65795cd62e7972809ad3aac6917843aaec596161b2c0a9790611d469084815260200190565b60405180910390a250565b60015473ffffffffffffffffffffffffffffffffffffffff163314611dd2576040517f08c379a000000000000000000000000000000000000000000000000000000000815260206004820181905260248201527f4f776e61626c653a2063616c6c6572206973206e6f7420746865206f776e65726044820152606401610600565b73ffffffffffffffffffffffffffffffffffffffff8116611e4f576040517f08c379a000000000000000000000000000000000000000000000000000000000815260206004820152601d60248201527f4f776e65723a2043616e6e6f74206265206e756c6c20616464726573730000006044820152606401610600565b600480547fffffffffffffffffffffffff00000000000000000000000000000000000000001673ffffffffffffffffffffffffffffffffffffffff83169081179091556040517f36e2a376eabc3bc60cb88f29c288f53e36874a95a7f407330ab4f166b090569890600090a250565b60015473ffffffffffffffffffffffffffffffffffffffff163314611f3f576040517f08c379a000000000000000000000000000000000000000000000000000000000815260206004820181905260248201527f4f776e61626c653a2063616c6c6572206973206e6f7420746865206f776e65726044820152606401610600565b73ffffffffffffffffffffffffffffffffffffffff8116611fe2576040517f08c379a000000000000000000000000000000000000000000000000000000000815260206004820152602660248201527f4f776e61626c653a206e6577206f776e657220697320746865207a65726f206160448201527f64647265737300000000000000000000000000000000000000000000000000006064820152608401610600565b611feb81612d5a565b50565b60015473ffffffffffffffffffffffffffffffffffffffff16331461206f576040517f08c379a000000000000000000000000000000000000000000000000000000000815260206004820181905260248201527f4f776e61626c653a2063616c6c6572206973206e6f7420746865206f776e65726044820152606401610600565b73ffffffffffffffffffffffffffffffffffffffff81166120ec576040517f08c379a000000000000000000000000000000000000000000000000000000000815260206004820152601d60248201527f4f776e65723a2043616e6e6f74206265206e756c6c20616464726573730000006044820152606401610600565b600680547fffffffffffffffffffffffff00000000000000000000000000000000000000001673ffffffffffffffffffffffffffffffffffffffff83169081179091556040517f205d78ab41afe80bd6b6aaa5d7599d5300ff8690da3ab1302c1b552f7baf7d8c90600090a250565b80516020808301516040808501516060860151608087015160a088015160c089015160e08a01516101008b01516101208c01516101408d01516101608e01516101808f01518051908e01209a5160009e6121e59e7f40261ade532fa1d2c7293df30aaadb9b3c616fae525a0b56d3d411c841a850289e919d919c9b9a999897969594939201613f85565b604051602081830303815290604052805190602001209050919050565b600960006122166040850160208601613c04565b73ffffffffffffffffffffffffffffffffffffffff16815260208082019290925260409081016000908120610100860135825290925290205460ff161580156122b257506008600061226e6040850160208601613c04565b73ffffffffffffffffffffffffffffffffffffffff1673ffffffffffffffffffffffffffffffffffffffff1681526020019081526020016000205482610100013510155b612318576040517f08c379a000000000000000000000000000000000000000000000000000000000815260206004820152601d60248201527f4f726465723a204d61746368696e67206f7264657220657870697265640000006044820152606401610600565b600061232a6040840160208501613c04565b73ffffffffffffffffffffffffffffffffffffffff1614156123a8576040517f08c379a000000000000000000000000000000000000000000000000000000000815260206004820152601560248201527f4f726465723a20496e76616c6964207369676e657200000000000000000000006044820152606401610600565b60008260a0013511612416576040517f08c379a000000000000000000000000000000000000000000000000000000000815260206004820152601960248201527f4f726465723a20416d6f756e742063616e6e6f742062652030000000000000006044820152606401610600565b61246e8161242a6040850160208601613c04565b61243c6101c086016101a08701613e66565b856101c00135866101e001357f000000000000000000000000000000000000000000000000000000000000000061335f565b6124d4576040517f08c379a000000000000000000000000000000000000000000000000000000000815260206004820152601260248201527f5369676e61747572653a20496e76616c696400000000000000000000000000006044820152606401610600565b60035473ffffffffffffffffffffffffffffffffffffffff166343b938c5612503610100850160e08601613c04565b6040517fffffffff0000000000000000000000000000000000000000000000000000000060e084901b16815273ffffffffffffffffffffffffffffffffffffffff909116600482015260240160206040518083038186803b15801561256757600080fd5b505afa15801561257b573d6000803e3d6000fd5b505050506040513d601f19601f8201168201806040525081019061259f9190613d2a565b612605576040517f08c379a000000000000000000000000000000000000000000000000000000000815260206004820152601960248201527f43757272656e63793a204e6f742077686974656c6973746564000000000000006044820152606401610600565b60045473ffffffffffffffffffffffffffffffffffffffff1663999ba27c61263360e0850160c08601613c04565b6040517fffffffff0000000000000000000000000000000000000000000000000000000060e084901b16815273ffffffffffffffffffffffffffffffffffffffff909116600482015260240160206040518083038186803b15801561269757600080fd5b505afa1580156126ab573d6000803e3d6000fd5b505050506040513d601f19601f820116820180604052508101906126cf9190613d2a565b612735576040517f08c379a000000000000000000000000000000000000000000000000000000000815260206004820152601960248201527f53747261746567793a204e6f742077686974656c6973746564000000000000006044820152606401610600565b5050565b600754829073ffffffffffffffffffffffffffffffffffffffff1615806128ab57506007546040517f70a0823100000000000000000000000000000000000000000000000000000000815273ffffffffffffffffffffffffffffffffffffffff8781166004830152909116906370a082319060240160206040518083038186803b1580156127c657600080fd5b505afa1580156127da573d6000803e3d6000fd5b505050506040513d601f19601f820116820180604052508101906127fe9190613e4d565b1580156128ab57506007546040517f70a0823100000000000000000000000000000000000000000000000000000000815273ffffffffffffffffffffffffffffffffffffffff8681166004830152909116906370a082319060240160206040518083038186803b15801561287157600080fd5b505afa158015612885573d6000803e3d6000fd5b505050506040513d601f19601f820116820180604052508101906128a99190613e4d565b155b156129225760006128bc8a8561352c565b60025490915073ffffffffffffffffffffffffffffffffffffffff16158015906128e557508015155b15612920576002546129139073ffffffffffffffffffffffffffffffffffffffff8981169189911684612dd1565b61291d818361437a565b91505b505b6005546040517ff4f635fa00000000000000000000000000000000000000000000000000000000815273ffffffffffffffffffffffffffffffffffffffff8a81166004830152602482018a905260448201869052600092839291169063f4f635fa90606401604080518083038186803b15801561299e57600080fd5b505afa1580156129b2573d6000803e3d6000fd5b505050506040513d601f19601f820116820180604052508101906129d69190613c6a565b909250905073ffffffffffffffffffffffffffffffffffffffff8216158015906129ff57508015155b15612abc57612a2673ffffffffffffffffffffffffffffffffffffffff8916888484612dd1565b612a30818461437a565b92508173ffffffffffffffffffffffffffffffffffffffff16898b73ffffffffffffffffffffffffffffffffffffffff167f27c4f0403323142b599832f26acd21c74a9e5b809f2215726e244a4ac588cd7d8b85604051612ab392919073ffffffffffffffffffffffffffffffffffffffff929092168252602082015260400190565b60405180910390a45b50612ac99050838361433d565b612ad58261271061433d565b1015612b3d576040517f08c379a000000000000000000000000000000000000000000000000000000000815260206004820152601a60248201527f466565733a20486967686572207468616e2065787065637465640000000000006044820152606401610600565b612b5f73ffffffffffffffffffffffffffffffffffffffff8716868684612dd1565b505050505050505050565b6006546040517fcc15949300000000000000000000000000000000000000000000000000000000815273ffffffffffffffffffffffffffffffffffffffff8781166004830152600092169063cc1594939060240160206040518083038186803b158015612bd657600080fd5b505afa158015612bea573d6000803e3d6000fd5b505050506040513d601f19601f82011682018060405250810190612c0e9190613c21565b905073ffffffffffffffffffffffffffffffffffffffff8116612cb3576040517f08c379a000000000000000000000000000000000000000000000000000000000815260206004820152602b60248201527f5472616e736665723a204e6f204e4654207472616e73666572206d616e61676560448201527f7220617661696c61626c650000000000000000000000000000000000000000006064820152608401610600565b6040517f33f2fa9f00000000000000000000000000000000000000000000000000000000815273ffffffffffffffffffffffffffffffffffffffff87811660048301528681166024830152858116604483015260648201859052608482018490528216906333f2fa9f9060a401600060405180830381600087803b158015612d3a57600080fd5b505af1158015612d4e573d6000803e3d6000fd5b50505050505050505050565b6001805473ffffffffffffffffffffffffffffffffffffffff8381167fffffffffffffffffffffffff0000000000000000000000000000000000000000831681179093556040519116919082907f8be0079c531659141344cd1fd0a4f28419497f9722a3daafe3b4186f6b6457e090600090a35050565b60405173ffffffffffffffffffffffffffffffffffffffff80851660248301528316604482015260648101829052612ead9085907f23b872dd00000000000000000000000000000000000000000000000000000000906084015b604080517fffffffffffffffffffffffffffffffffffffffffffffffffffffffffffffffe08184030181529190526020810180517bffffffffffffffffffffffffffffffffffffffffffffffffffffffff167fffffffff00000000000000000000000000000000000000000000000000000000909316929092179091526135ce565b50505050565b600754829073ffffffffffffffffffffffffffffffffffffffff16158061302557506007546040517f70a0823100000000000000000000000000000000000000000000000000000000815273ffffffffffffffffffffffffffffffffffffffff8781166004830152909116906370a082319060240160206040518083038186803b158015612f4057600080fd5b505afa158015612f54573d6000803e3d6000fd5b505050506040513d601f19601f82011682018060405250810190612f789190613e4d565b15801561302557506007546040517f70a0823100000000000000000000000000000000000000000000000000000000815273ffffffffffffffffffffffffffffffffffffffff8681166004830152909116906370a082319060240160206040518083038186803b158015612feb57600080fd5b505afa158015612fff573d6000803e3d6000fd5b505050506040513d601f19601f820116820180604052508101906130239190613e4d565b155b156130ba576000613036898561352c565b60025490915073ffffffffffffffffffffffffffffffffffffffff161580159061305f57508015155b156130b8576002546130ab9073ffffffffffffffffffffffffffffffffffffffff7f000000000000000000000000000000000000000000000000000000000000000081169116836136df565b6130b5818361437a565b91505b505b6005546040517ff4f635fa00000000000000000000000000000000000000000000000000000000815273ffffffffffffffffffffffffffffffffffffffff89811660048301526024820189905260448201869052600092839291169063f4f635fa90606401604080518083038186803b15801561313657600080fd5b505afa15801561314a573d6000803e3d6000fd5b505050506040513d601f19601f8201168201806040525081019061316e9190613c6a565b909250905073ffffffffffffffffffffffffffffffffffffffff82161580159061319757508015155b15613293576131dd73ffffffffffffffffffffffffffffffffffffffff7f00000000000000000000000000000000000000000000000000000000000000001683836136df565b6131e7818461437a565b92508173ffffffffffffffffffffffffffffffffffffffff16888a73ffffffffffffffffffffffffffffffffffffffff167f27c4f0403323142b599832f26acd21c74a9e5b809f2215726e244a4ac588cd7d7f00000000000000000000000000000000000000000000000000000000000000008560405161328a92919073ffffffffffffffffffffffffffffffffffffffff929092168252602082015260400190565b60405180910390a45b506132a09050838361433d565b6132ac8261271061433d565b1015613314576040517f08c379a000000000000000000000000000000000000000000000000000000000815260206004820152601a60248201527f466565733a20486967686572207468616e2065787065637465640000000000006044820152606401610600565b61335573ffffffffffffffffffffffffffffffffffffffff7f00000000000000000000000000000000000000000000000000000000000000001685836136df565b5050505050505050565b6040517f19010000000000000000000000000000000000000000000000000000000000006020820152602281018290526042810187905260009081906062016040516020818303038152906040528051906020012090506133c0873b151590565b156134e457604080516020810187905280820186905260f888901b7fff000000000000000000000000000000000000000000000000000000000000001660608201528151604181830301815260618201928390527f1626ba7e0000000000000000000000000000000000000000000000000000000090925273ffffffffffffffffffffffffffffffffffffffff891691631626ba7e9161346491859160650161403f565b60206040518083038186803b15801561347c57600080fd5b505afa158015613490573d6000803e3d6000fd5b505050506040513d601f19601f820116820180604052508101906134b49190613d7e565b7bffffffffffffffffffffffffffffffffffffffffffffffffffffffff1916631626ba7e60e01b14915050613522565b8673ffffffffffffffffffffffffffffffffffffffff1661350782888888613735565b73ffffffffffffffffffffffffffffffffffffffff16149150505b9695505050505050565b6000808373ffffffffffffffffffffffffffffffffffffffff16639dd1cda66040518163ffffffff1660e01b815260040160206040518083038186803b15801561357557600080fd5b505afa158015613589573d6000803e3d6000fd5b505050506040513d601f19601f820116820180604052508101906135ad9190613e4d565b90506127106135bc848361433d565b6135c69190614302565b949350505050565b6000613630826040518060400160405280602081526020017f5361666545524332303a206c6f772d6c6576656c2063616c6c206661696c65648152508573ffffffffffffffffffffffffffffffffffffffff166139419092919063ffffffff16565b8051909150156136da578080602001905181019061364e9190613d2a565b6136da576040517f08c379a000000000000000000000000000000000000000000000000000000000815260206004820152602a60248201527f5361666545524332303a204552433230206f7065726174696f6e20646964206e60448201527f6f742073756363656564000000000000000000000000000000000000000000006064820152608401610600565b505050565b60405173ffffffffffffffffffffffffffffffffffffffff83166024820152604481018290526136da9084907fa9059cbb0000000000000000000000000000000000000000000000000000000090606401612e2b565b60007f7fffffffffffffffffffffffffffffff5d576e7357a4501ddfe92f46681b20a08211156137c1576040517f08c379a000000000000000000000000000000000000000000000000000000000815260206004820152601e60248201527f5369676e61747572653a20496e76616c6964207320706172616d6574657200006044820152606401610600565b8360ff16601b14806137d657508360ff16601c145b61383c576040517f08c379a000000000000000000000000000000000000000000000000000000000815260206004820152601e60248201527f5369676e61747572653a20496e76616c6964207620706172616d6574657200006044820152606401610600565b6040805160008082526020820180845288905260ff871692820192909252606081018590526080810184905260019060a0016020604051602081039080840390855afa158015613890573d6000803e3d6000fd5b50506040517fffffffffffffffffffffffffffffffffffffffffffffffffffffffffffffffe0015191505073ffffffffffffffffffffffffffffffffffffffff8116613938576040517f08c379a000000000000000000000000000000000000000000000000000000000815260206004820152601960248201527f5369676e61747572653a20496e76616c6964207369676e6572000000000000006044820152606401610600565b95945050505050565b6060613950848460008561395a565b90505b9392505050565b6060824710156139ec576040517f08c379a000000000000000000000000000000000000000000000000000000000815260206004820152602660248201527f416464726573733a20696e73756666696369656e742062616c616e636520666f60448201527f722063616c6c00000000000000000000000000000000000000000000000000006064820152608401610600565b843b613a54576040517f08c379a000000000000000000000000000000000000000000000000000000000815260206004820152601d60248201527f416464726573733a2063616c6c20746f206e6f6e2d636f6e74726163740000006044820152606401610600565b6000808673ffffffffffffffffffffffffffffffffffffffff168587604051613a7d9190613f14565b60006040518083038185875af1925050503d8060008114613aba576040519150601f19603f3d011682016040523d82523d6000602084013e613abf565b606091505b5091509150613acf828286613ada565b979650505050505050565b60608315613ae9575081613953565b825115613af95782518084602001fd5b816040517f08c379a00000000000000000000000000000000000000000000000000000000081526004016106009190614058565b8035613b3881614594565b919050565b8035613b38816145b6565b600082601f830112613b5957600080fd5b813567ffffffffffffffff80821115613b7457613b74614565565b604051601f83017fffffffffffffffffffffffffffffffffffffffffffffffffffffffffffffffe0908116603f01168101908282118183101715613bba57613bba614565565b81604052838152866020858801011115613bd357600080fd5b836020870160208301376000602085830101528094505050505092915050565b803560ff81168114613b3857600080fd5b600060208284031215613c1657600080fd5b813561395381614594565b600060208284031215613c3357600080fd5b815161395381614594565b60008060408385031215613c5157600080fd5b8235613c5c81614594565b946020939093013593505050565b60008060408385031215613c7d57600080fd5b8251613c8881614594565b6020939093015192949293505050565b60008060208385031215613cab57600080fd5b823567ffffffffffffffff80821115613cc357600080fd5b818501915085601f830112613cd757600080fd5b813581811115613ce657600080fd5b8660208260051b8501011115613cfb57600080fd5b60209290920196919550909350505050565b600060208284031215613d1f57600080fd5b8135613953816145b6565b600060208284031215613d3c57600080fd5b8151613953816145b6565b600080600060608486031215613d5c57600080fd5b8351613d67816145b6565b602085015160409095015190969495509392505050565b600060208284031215613d9057600080fd5b81517fffffffff000000000000000000000000000000000000000000000000000000008116811461395357600080fd5b60008060408385031215613dd357600080fd5b823567ffffffffffffffff80821115613deb57600080fd5b9084019060c08287031215613dff57600080fd5b90925060208401359080821115613e1557600080fd5b5083016102008186031215613e2957600080fd5b809150509250929050565b600060208284031215613e4657600080fd5b5035919050565b600060208284031215613e5f57600080fd5b5051919050565b600060208284031215613e7857600080fd5b61395382613bf3565b8183528181602085013750600060208284010152600060207fffffffffffffffffffffffffffffffffffffffffffffffffffffffffffffffe0601f840116840101905092915050565b60008151808452613ee28160208601602086016144a2565b601f017fffffffffffffffffffffffffffffffffffffffffffffffffffffffffffffffe0169290920160200192915050565b60008251613f268184602087016144a2565b9190910192915050565b6020815281602082015260007f07ffffffffffffffffffffffffffffffffffffffffffffffffffffffffffffff831115613f6957600080fd5b8260051b80856040850137600092016040019182525092915050565b8e81528d1515602082015273ffffffffffffffffffffffffffffffffffffffff8d811660408301528c1660608201526101c081018b60808301528a60a08301528960c0830152613fed60e083018a73ffffffffffffffffffffffffffffffffffffffff169052565b73ffffffffffffffffffffffffffffffffffffffff88166101008301526101208201969096526101408101949094526101608401929092526101808301526101a0909101529998505050505050505050565b8281526040602082015260006139506040830184613eca565b6020815260006139536020830184613eca565b604081526000610100843561407f816145b6565b15156040840152602085013561409481614594565b73ffffffffffffffffffffffffffffffffffffffff811660608501525060408501356080840152606085013560a0840152608085013560c08401526140dc60a086018661427f565b60c060e08601526140f08386018284613e81565b91505083810360208501526102006141118261410b88613b3d565b15159052565b61411d60208701613b2d565b73ffffffffffffffffffffffffffffffffffffffff16602083015261414460408701613b2d565b73ffffffffffffffffffffffffffffffffffffffff8116604084015250606086013560608301526080860135608083015260a086013560a083015261418b60c08701613b2d565b73ffffffffffffffffffffffffffffffffffffffff1660c08301526141b260e08701613b2d565b73ffffffffffffffffffffffffffffffffffffffff1660e08301528286013592820192909252610120808601359082015261014080860135908201526101608086013590820152610180916142098387018761427f565b828585015261421b8385018284613e81565b94505050506101a061422e818701613bf3565b60ff16908201526101c085810135908201526101e094850135940193909352509092915050565b604051610200810167ffffffffffffffff8111828210171561427957614279614565565b60405290565b60008083357fffffffffffffffffffffffffffffffffffffffffffffffffffffffffffffffe18436030181126142b457600080fd5b830160208101925035905067ffffffffffffffff8111156142d457600080fd5b8036038313156142e357600080fd5b9250929050565b600082198211156142fd576142fd614507565b500190565b600082614338577f4e487b7100000000000000000000000000000000000000000000000000000000600052601260045260246000fd5b500490565b6000817fffffffffffffffffffffffffffffffffffffffffffffffffffffffffffffffff048311821515161561437557614375614507565b500290565b60008282101561438c5761438c614507565b500390565b600061020082360312156143a457600080fd5b6143ac614255565b6143b583613b3d565b81526143c360208401613b2d565b60208201526143d460408401613b2d565b6040820152606083013560608201526080830135608082015260a083013560a082015261440360c08401613b2d565b60c082015261441460e08401613b2d565b60e082015261010083810135908201526101208084013590820152610140808401359082015261016080840135908201526101808084013567ffffffffffffffff81111561446157600080fd5b61446d36828701613b48565b8284015250506101a0614481818501613bf3565b908201526101c083810135908201526101e092830135928101929092525090565b60005b838110156144bd5781810151838201526020016144a5565b83811115612ead5750506000910152565b60007fffffffffffffffffffffffffffffffffffffffffffffffffffffffffffffffff82141561450057614500614507565b5060010190565b7f4e487b7100000000000000000000000000000000000000000000000000000000600052601160045260246000fd5b7f4e487b7100000000000000000000000000000000000000000000000000000000600052603260045260246000fd5b7f4e487b7100000000000000000000000000000000000000000000000000000000600052604160045260246000fd5b73ffffffffffffffffffffffffffffffffffffffff81168114611feb57600080fd5b8015158114611feb57600080fdfea2646970667358221220a308a3e1165dffc4c43900388e0a6d4d29cde512e58509261fe6eb65dc6454d064736f6c63430008070033",
  "devdoc": {
    "kind": "dev",
    "methods": {
      "cancelAllOrdersForSender(uint256)": {
        "params": {
          "minNonce": "minimum user nonce"
        }
      },
      "cancelMultipleMakerOrders(uint256[])": {
        "params": {
          "orderNonces": "array of order nonces"
        }
      },
      "constructor": {
        "params": {
          "_WETH": "wrapped ether address (for other chains, use wrapped native asset)",
          "_currencyManager": "currency manager address",
          "_executionManager": "execution manager address",
          "_protocolFeeRecipient": "protocol fee recipient",
          "_royaltyFeeManager": "royalty fee manager address"
        }
      },
      "isUserOrderNonceExecutedOrCancelled(address,uint256)": {
        "params": {
          "orderNonce": "nonce of the order",
          "user": "address of user"
        }
      },
      "matchAskWithTakerBid((bool,address,uint256,uint256,uint256,bytes),(bool,address,address,uint256,uint256,uint256,address,address,uint256,uint256,uint256,uint256,bytes,uint8,bytes32,bytes32))": {
        "params": {
          "makerAsk": "maker ask order",
          "takerBid": "taker bid order"
        }
      },
      "matchAskWithTakerBidUsingETHAndWETH((bool,address,uint256,uint256,uint256,bytes),(bool,address,address,uint256,uint256,uint256,address,address,uint256,uint256,uint256,uint256,bytes,uint8,bytes32,bytes32))": {
        "params": {
          "makerAsk": "maker ask order",
          "takerBid": "taker bid order"
        }
      },
      "matchBidWithTakerAsk((bool,address,uint256,uint256,uint256,bytes),(bool,address,address,uint256,uint256,uint256,address,address,uint256,uint256,uint256,uint256,bytes,uint8,bytes32,bytes32))": {
        "params": {
          "makerBid": "maker bid order",
          "takerAsk": "taker ask order"
        }
      },
      "owner()": {
        "details": "Returns the address of the current owner."
      },
      "renounceOwnership()": {
        "details": "Leaves the contract without owner. It will not be possible to call `onlyOwner` functions anymore. Can only be called by the current owner. NOTE: Renouncing ownership will leave the contract without an owner, thereby removing any functionality that is only available to the owner."
      },
      "transferOwnership(address)": {
        "details": "Transfers ownership of the contract to a new account (`newOwner`). Can only be called by the current owner."
      },
      "updateCurrencyManager(address)": {
        "params": {
          "_currencyManager": "new currency manager address"
        }
      },
      "updateExecutionManager(address)": {
        "params": {
          "_executionManager": "new execution manager address"
        }
      },
      "updatePlatformNFT(address)": {
        "params": {
          "_platformNFT": "new nft for platform nft"
        }
      },
      "updateProtocolFeeRecipient(address)": {
        "params": {
          "_protocolFeeRecipient": "new recipient for protocol fees"
        }
      },
      "updateRoyaltyFeeManager(address)": {
        "params": {
          "_royaltyFeeManager": "new fee manager address"
        }
      },
      "updateTransferSelectorNFT(address)": {
        "params": {
          "_transferSelectorNFT": "new transfer selector address"
        }
      }
    },
    "title": "LooksRareExchange",
    "version": 1
  },
  "userdoc": {
    "kind": "user",
    "methods": {
      "cancelAllOrdersForSender(uint256)": {
        "notice": "Cancel all pending orders for a sender"
      },
      "cancelMultipleMakerOrders(uint256[])": {
        "notice": "Cancel maker orders"
      },
      "constructor": {
        "notice": "Constructor"
      },
      "isUserOrderNonceExecutedOrCancelled(address,uint256)": {
        "notice": "Check whether user order nonce is executed or cancelled"
      },
      "matchAskWithTakerBid((bool,address,uint256,uint256,uint256,bytes),(bool,address,address,uint256,uint256,uint256,address,address,uint256,uint256,uint256,uint256,bytes,uint8,bytes32,bytes32))": {
        "notice": "Match a takerBid with a matchAsk"
      },
      "matchAskWithTakerBidUsingETHAndWETH((bool,address,uint256,uint256,uint256,bytes),(bool,address,address,uint256,uint256,uint256,address,address,uint256,uint256,uint256,uint256,bytes,uint8,bytes32,bytes32))": {
        "notice": "Match ask with a taker bid order using ETH"
      },
      "matchBidWithTakerAsk((bool,address,uint256,uint256,uint256,bytes),(bool,address,address,uint256,uint256,uint256,address,address,uint256,uint256,uint256,uint256,bytes,uint8,bytes32,bytes32))": {
        "notice": "Match a takerAsk with a makerBid"
      },
      "updateCurrencyManager(address)": {
        "notice": "Update currency manager"
      },
      "updateExecutionManager(address)": {
        "notice": "Update execution manager"
      },
      "updatePlatformNFT(address)": {
        "notice": "Update platform nft"
      },
      "updateProtocolFeeRecipient(address)": {
        "notice": "Update protocol fee and recipient"
      },
      "updateRoyaltyFeeManager(address)": {
        "notice": "Update royalty fee manager"
      },
      "updateTransferSelectorNFT(address)": {
        "notice": "Update transfer selector NFT"
      }
    },
    "notice": "It is the core contract of the LooksRare exchange.",
    "version": 1
  },
  "storageLayout": {
    "storage": [
      {
        "astId": 151,
        "contract": "contracts/LooksRareExchange.sol:LooksRareExchange",
        "label": "_status",
        "offset": 0,
        "slot": "0",
        "type": "t_uint256"
      },
      {
        "astId": 7,
        "contract": "contracts/LooksRareExchange.sol:LooksRareExchange",
        "label": "_owner",
        "offset": 0,
        "slot": "1",
        "type": "t_address"
      },
      {
        "astId": 5025,
        "contract": "contracts/LooksRareExchange.sol:LooksRareExchange",
        "label": "protocolFeeRecipient",
        "offset": 0,
        "slot": "2",
        "type": "t_address"
      },
      {
        "astId": 5028,
        "contract": "contracts/LooksRareExchange.sol:LooksRareExchange",
        "label": "currencyManager",
        "offset": 0,
        "slot": "3",
        "type": "t_contract(ICurrencyManager)7988"
      },
      {
        "astId": 5031,
        "contract": "contracts/LooksRareExchange.sol:LooksRareExchange",
        "label": "executionManager",
        "offset": 0,
        "slot": "4",
        "type": "t_contract(IExecutionManager)8025"
      },
      {
        "astId": 5034,
        "contract": "contracts/LooksRareExchange.sol:LooksRareExchange",
        "label": "royaltyFeeManager",
        "offset": 0,
        "slot": "5",
        "type": "t_contract(IRoyaltyFeeManager)8131"
      },
      {
        "astId": 5037,
        "contract": "contracts/LooksRareExchange.sol:LooksRareExchange",
        "label": "transferSelectorNFT",
        "offset": 0,
        "slot": "6",
        "type": "t_contract(ITransferSelectorNFT)8198"
      },
      {
        "astId": 5040,
        "contract": "contracts/LooksRareExchange.sol:LooksRareExchange",
        "label": "platformNFT",
        "offset": 0,
        "slot": "7",
        "type": "t_contract(IERC721)3274"
      },
      {
        "astId": 5044,
        "contract": "contracts/LooksRareExchange.sol:LooksRareExchange",
        "label": "userMinOrderNonce",
        "offset": 0,
        "slot": "8",
        "type": "t_mapping(t_address,t_uint256)"
      },
      {
        "astId": 5050,
        "contract": "contracts/LooksRareExchange.sol:LooksRareExchange",
        "label": "_isUserOrderNonceExecutedOrCancelled",
        "offset": 0,
        "slot": "9",
        "type": "t_mapping(t_address,t_mapping(t_uint256,t_bool))"
      }
    ],
    "types": {
      "t_address": {
        "encoding": "inplace",
        "label": "address",
        "numberOfBytes": "20"
      },
      "t_bool": {
        "encoding": "inplace",
        "label": "bool",
        "numberOfBytes": "1"
      },
      "t_contract(ICurrencyManager)7988": {
        "encoding": "inplace",
        "label": "contract ICurrencyManager",
        "numberOfBytes": "20"
      },
      "t_contract(IERC721)3274": {
        "encoding": "inplace",
        "label": "contract IERC721",
        "numberOfBytes": "20"
      },
      "t_contract(IExecutionManager)8025": {
        "encoding": "inplace",
        "label": "contract IExecutionManager",
        "numberOfBytes": "20"
      },
      "t_contract(IRoyaltyFeeManager)8131": {
        "encoding": "inplace",
        "label": "contract IRoyaltyFeeManager",
        "numberOfBytes": "20"
      },
      "t_contract(ITransferSelectorNFT)8198": {
        "encoding": "inplace",
        "label": "contract ITransferSelectorNFT",
        "numberOfBytes": "20"
      },
      "t_mapping(t_address,t_mapping(t_uint256,t_bool))": {
        "encoding": "mapping",
        "key": "t_address",
        "label": "mapping(address => mapping(uint256 => bool))",
        "numberOfBytes": "32",
        "value": "t_mapping(t_uint256,t_bool)"
      },
      "t_mapping(t_address,t_uint256)": {
        "encoding": "mapping",
        "key": "t_address",
        "label": "mapping(address => uint256)",
        "numberOfBytes": "32",
        "value": "t_uint256"
      },
      "t_mapping(t_uint256,t_bool)": {
        "encoding": "mapping",
        "key": "t_uint256",
        "label": "mapping(uint256 => bool)",
        "numberOfBytes": "32",
        "value": "t_bool"
      },
      "t_uint256": {
        "encoding": "inplace",
        "label": "uint256",
        "numberOfBytes": "32"
      }
    }
  }
}