{
  "address": "0xb8494BE7b942c76B6101eeF03cf3aF87E115BbaD",
  "abi": [
    {
      "inputs": [
        {
          "internalType": "address",
          "name": "_currencyManager",
          "type": "address"
        },
        {
          "internalType": "address",
          "name": "_executionManager",
          "type": "address"
        },
        {
          "internalType": "address",
          "name": "_royaltyFeeManager",
          "type": "address"
        },
        {
          "internalType": "address",
          "name": "_WETH",
          "type": "address"
        },
        {
          "internalType": "address",
          "name": "_protocolFeeRecipient",
          "type": "address"
        },
        {
          "internalType": "address",
          "name": "_platformNFT",
          "type": "address"
        }
      ],
      "stateMutability": "nonpayable",
      "type": "constructor"
    },
    {
      "anonymous": false,
      "inputs": [
        {
          "indexed": true,
          "internalType": "address",
          "name": "user",
          "type": "address"
        },
        {
          "indexed": false,
          "internalType": "uint256",
          "name": "newMinNonce",
          "type": "uint256"
        }
      ],
      "name": "CancelAllOrders",
      "type": "event"
    },
    {
      "anonymous": false,
      "inputs": [
        {
          "indexed": true,
          "internalType": "address",
          "name": "user",
          "type": "address"
        },
        {
          "indexed": false,
          "internalType": "uint256[]",
          "name": "orderNonces",
          "type": "uint256[]"
        }
      ],
      "name": "CancelMultipleOrders",
      "type": "event"
    },
    {
      "anonymous": false,
      "inputs": [
        {
          "indexed": true,
          "internalType": "address",
          "name": "currencyManager",
          "type": "address"
        }
      ],
      "name": "NewCurrencyManager",
      "type": "event"
    },
    {
      "anonymous": false,
      "inputs": [
        {
          "indexed": true,
          "internalType": "address",
          "name": "executionManager",
          "type": "address"
        }
      ],
      "name": "NewExecutionManager",
      "type": "event"
    },
    {
      "anonymous": false,
      "inputs": [
        {
          "indexed": true,
          "internalType": "address",
          "name": "protocolFeeRecipient",
          "type": "address"
        }
      ],
      "name": "NewProtocolFeeRecipient",
      "type": "event"
    },
    {
      "anonymous": false,
      "inputs": [
        {
          "indexed": true,
          "internalType": "address",
          "name": "royaltyFeeManager",
          "type": "address"
        }
      ],
      "name": "NewRoyaltyFeeManager",
      "type": "event"
    },
    {
      "anonymous": false,
      "inputs": [
        {
          "indexed": true,
          "internalType": "address",
          "name": "transferSelectorNFT",
          "type": "address"
        }
      ],
      "name": "NewTransferSelectorNFT",
      "type": "event"
    },
    {
      "anonymous": false,
      "inputs": [
        {
          "indexed": true,
          "internalType": "address",
          "name": "previousOwner",
          "type": "address"
        },
        {
          "indexed": true,
          "internalType": "address",
          "name": "newOwner",
          "type": "address"
        }
      ],
      "name": "OwnershipTransferred",
      "type": "event"
    },
    {
      "anonymous": false,
      "inputs": [
        {
          "indexed": true,
          "internalType": "address",
          "name": "collection",
          "type": "address"
        },
        {
          "indexed": true,
          "internalType": "uint256",
          "name": "tokenId",
          "type": "uint256"
        },
        {
          "indexed": true,
          "internalType": "address",
          "name": "royaltyRecipient",
          "type": "address"
        },
        {
          "indexed": false,
          "internalType": "address",
          "name": "currency",
          "type": "address"
        },
        {
          "indexed": false,
          "internalType": "uint256",
          "name": "amount",
          "type": "uint256"
        }
      ],
      "name": "RoyaltyPayment",
      "type": "event"
    },
    {
      "anonymous": false,
      "inputs": [
        {
          "indexed": false,
          "internalType": "bytes32",
          "name": "orderHash",
          "type": "bytes32"
        },
        {
          "indexed": false,
          "internalType": "uint256",
          "name": "orderNonce",
          "type": "uint256"
        },
        {
          "indexed": true,
          "internalType": "address",
          "name": "taker",
          "type": "address"
        },
        {
          "indexed": true,
          "internalType": "address",
          "name": "maker",
          "type": "address"
        },
        {
          "indexed": true,
          "internalType": "address",
          "name": "strategy",
          "type": "address"
        },
        {
          "indexed": false,
          "internalType": "address",
          "name": "currency",
          "type": "address"
        },
        {
          "indexed": false,
          "internalType": "address",
          "name": "collection",
          "type": "address"
        },
        {
          "indexed": false,
          "internalType": "uint256",
          "name": "tokenId",
          "type": "uint256"
        },
        {
          "indexed": false,
          "internalType": "uint256",
          "name": "amount",
          "type": "uint256"
        },
        {
          "indexed": false,
          "internalType": "uint256",
          "name": "price",
          "type": "uint256"
        }
      ],
      "name": "TakerAsk",
      "type": "event"
    },
    {
      "anonymous": false,
      "inputs": [
        {
          "indexed": false,
          "internalType": "bytes32",
          "name": "orderHash",
          "type": "bytes32"
        },
        {
          "indexed": false,
          "internalType": "uint256",
          "name": "orderNonce",
          "type": "uint256"
        },
        {
          "indexed": true,
          "internalType": "address",
          "name": "taker",
          "type": "address"
        },
        {
          "indexed": true,
          "internalType": "address",
          "name": "maker",
          "type": "address"
        },
        {
          "indexed": true,
          "internalType": "address",
          "name": "strategy",
          "type": "address"
        },
        {
          "indexed": false,
          "internalType": "address",
          "name": "currency",
          "type": "address"
        },
        {
          "indexed": false,
          "internalType": "address",
          "name": "collection",
          "type": "address"
        },
        {
          "indexed": false,
          "internalType": "uint256",
          "name": "tokenId",
          "type": "uint256"
        },
        {
          "indexed": false,
          "internalType": "uint256",
          "name": "amount",
          "type": "uint256"
        },
        {
          "indexed": false,
          "internalType": "uint256",
          "name": "price",
          "type": "uint256"
        }
      ],
      "name": "TakerBid",
      "type": "event"
    },
    {
      "inputs": [],
      "name": "DOMAIN_SEPARATOR",
      "outputs": [
        {
          "internalType": "bytes32",
          "name": "",
          "type": "bytes32"
        }
      ],
      "stateMutability": "view",
      "type": "function"
    },
    {
      "inputs": [],
      "name": "WETH",
      "outputs": [
        {
          "internalType": "address",
          "name": "",
          "type": "address"
        }
      ],
      "stateMutability": "view",
      "type": "function"
    },
    {
      "inputs": [
        {
          "internalType": "uint256",
          "name": "minNonce",
          "type": "uint256"
        }
      ],
      "name": "cancelAllOrdersForSender",
      "outputs": [],
      "stateMutability": "nonpayable",
      "type": "function"
    },
    {
      "inputs": [
        {
          "internalType": "uint256[]",
          "name": "orderNonces",
          "type": "uint256[]"
        }
      ],
      "name": "cancelMultipleMakerOrders",
      "outputs": [],
      "stateMutability": "nonpayable",
      "type": "function"
    },
    {
      "inputs": [],
      "name": "currencyManager",
      "outputs": [
        {
          "internalType": "contract ICurrencyManager",
          "name": "",
          "type": "address"
        }
      ],
      "stateMutability": "view",
      "type": "function"
    },
    {
      "inputs": [],
      "name": "executionManager",
      "outputs": [
        {
          "internalType": "contract IExecutionManager",
          "name": "",
          "type": "address"
        }
      ],
      "stateMutability": "view",
      "type": "function"
    },
    {
      "inputs": [
        {
          "internalType": "address",
          "name": "user",
          "type": "address"
        },
        {
          "internalType": "uint256",
          "name": "orderNonce",
          "type": "uint256"
        }
      ],
      "name": "isUserOrderNonceExecutedOrCancelled",
      "outputs": [
        {
          "internalType": "bool",
          "name": "",
          "type": "bool"
        }
      ],
      "stateMutability": "view",
      "type": "function"
    },
    {
      "inputs": [
        {
          "components": [
            {
              "internalType": "bool",
              "name": "isOrderAsk",
              "type": "bool"
            },
            {
              "internalType": "address",
              "name": "taker",
              "type": "address"
            },
            {
              "internalType": "uint256",
              "name": "price",
              "type": "uint256"
            },
            {
              "internalType": "uint256",
              "name": "tokenId",
              "type": "uint256"
            },
            {
              "internalType": "uint256",
              "name": "minPercentageToAsk",
              "type": "uint256"
            },
            {
              "internalType": "bytes",
              "name": "params",
              "type": "bytes"
            }
          ],
          "internalType": "struct OrderTypes.TakerOrder",
          "name": "takerBid",
          "type": "tuple"
        },
        {
          "components": [
            {
              "internalType": "bool",
              "name": "isOrderAsk",
              "type": "bool"
            },
            {
              "internalType": "address",
              "name": "signer",
              "type": "address"
            },
            {
              "internalType": "address",
              "name": "collection",
              "type": "address"
            },
            {
              "internalType": "uint256",
              "name": "price",
              "type": "uint256"
            },
            {
              "internalType": "uint256",
              "name": "tokenId",
              "type": "uint256"
            },
            {
              "internalType": "uint256",
              "name": "amount",
              "type": "uint256"
            },
            {
              "internalType": "address",
              "name": "strategy",
              "type": "address"
            },
            {
              "internalType": "address",
              "name": "currency",
              "type": "address"
            },
            {
              "internalType": "uint256",
              "name": "nonce",
              "type": "uint256"
            },
            {
              "internalType": "uint256",
              "name": "startTime",
              "type": "uint256"
            },
            {
              "internalType": "uint256",
              "name": "endTime",
              "type": "uint256"
            },
            {
              "internalType": "uint256",
              "name": "minPercentageToAsk",
              "type": "uint256"
            },
            {
              "internalType": "bytes",
              "name": "params",
              "type": "bytes"
            },
            {
              "internalType": "uint8",
              "name": "v",
              "type": "uint8"
            },
            {
              "internalType": "bytes32",
              "name": "r",
              "type": "bytes32"
            },
            {
              "internalType": "bytes32",
              "name": "s",
              "type": "bytes32"
            }
          ],
          "internalType": "struct OrderTypes.MakerOrder",
          "name": "makerAsk",
          "type": "tuple"
        }
      ],
      "name": "matchAskWithTakerBid",
      "outputs": [],
      "stateMutability": "nonpayable",
      "type": "function"
    },
    {
      "inputs": [
        {
          "components": [
            {
              "internalType": "bool",
              "name": "isOrderAsk",
              "type": "bool"
            },
            {
              "internalType": "address",
              "name": "taker",
              "type": "address"
            },
            {
              "internalType": "uint256",
              "name": "price",
              "type": "uint256"
            },
            {
              "internalType": "uint256",
              "name": "tokenId",
              "type": "uint256"
            },
            {
              "internalType": "uint256",
              "name": "minPercentageToAsk",
              "type": "uint256"
            },
            {
              "internalType": "bytes",
              "name": "params",
              "type": "bytes"
            }
          ],
          "internalType": "struct OrderTypes.TakerOrder",
          "name": "takerBid",
          "type": "tuple"
        },
        {
          "components": [
            {
              "internalType": "bool",
              "name": "isOrderAsk",
              "type": "bool"
            },
            {
              "internalType": "address",
              "name": "signer",
              "type": "address"
            },
            {
              "internalType": "address",
              "name": "collection",
              "type": "address"
            },
            {
              "internalType": "uint256",
              "name": "price",
              "type": "uint256"
            },
            {
              "internalType": "uint256",
              "name": "tokenId",
              "type": "uint256"
            },
            {
              "internalType": "uint256",
              "name": "amount",
              "type": "uint256"
            },
            {
              "internalType": "address",
              "name": "strategy",
              "type": "address"
            },
            {
              "internalType": "address",
              "name": "currency",
              "type": "address"
            },
            {
              "internalType": "uint256",
              "name": "nonce",
              "type": "uint256"
            },
            {
              "internalType": "uint256",
              "name": "startTime",
              "type": "uint256"
            },
            {
              "internalType": "uint256",
              "name": "endTime",
              "type": "uint256"
            },
            {
              "internalType": "uint256",
              "name": "minPercentageToAsk",
              "type": "uint256"
            },
            {
              "internalType": "bytes",
              "name": "params",
              "type": "bytes"
            },
            {
              "internalType": "uint8",
              "name": "v",
              "type": "uint8"
            },
            {
              "internalType": "bytes32",
              "name": "r",
              "type": "bytes32"
            },
            {
              "internalType": "bytes32",
              "name": "s",
              "type": "bytes32"
            }
          ],
          "internalType": "struct OrderTypes.MakerOrder",
          "name": "makerAsk",
          "type": "tuple"
        }
      ],
      "name": "matchAskWithTakerBidUsingETHAndWETH",
      "outputs": [],
      "stateMutability": "payable",
      "type": "function"
    },
    {
      "inputs": [
        {
          "components": [
            {
              "internalType": "bool",
              "name": "isOrderAsk",
              "type": "bool"
            },
            {
              "internalType": "address",
              "name": "taker",
              "type": "address"
            },
            {
              "internalType": "uint256",
              "name": "price",
              "type": "uint256"
            },
            {
              "internalType": "uint256",
              "name": "tokenId",
              "type": "uint256"
            },
            {
              "internalType": "uint256",
              "name": "minPercentageToAsk",
              "type": "uint256"
            },
            {
              "internalType": "bytes",
              "name": "params",
              "type": "bytes"
            }
          ],
          "internalType": "struct OrderTypes.TakerOrder",
          "name": "takerAsk",
          "type": "tuple"
        },
        {
          "components": [
            {
              "internalType": "bool",
              "name": "isOrderAsk",
              "type": "bool"
            },
            {
              "internalType": "address",
              "name": "signer",
              "type": "address"
            },
            {
              "internalType": "address",
              "name": "collection",
              "type": "address"
            },
            {
              "internalType": "uint256",
              "name": "price",
              "type": "uint256"
            },
            {
              "internalType": "uint256",
              "name": "tokenId",
              "type": "uint256"
            },
            {
              "internalType": "uint256",
              "name": "amount",
              "type": "uint256"
            },
            {
              "internalType": "address",
              "name": "strategy",
              "type": "address"
            },
            {
              "internalType": "address",
              "name": "currency",
              "type": "address"
            },
            {
              "internalType": "uint256",
              "name": "nonce",
              "type": "uint256"
            },
            {
              "internalType": "uint256",
              "name": "startTime",
              "type": "uint256"
            },
            {
              "internalType": "uint256",
              "name": "endTime",
              "type": "uint256"
            },
            {
              "internalType": "uint256",
              "name": "minPercentageToAsk",
              "type": "uint256"
            },
            {
              "internalType": "bytes",
              "name": "params",
              "type": "bytes"
            },
            {
              "internalType": "uint8",
              "name": "v",
              "type": "uint8"
            },
            {
              "internalType": "bytes32",
              "name": "r",
              "type": "bytes32"
            },
            {
              "internalType": "bytes32",
              "name": "s",
              "type": "bytes32"
            }
          ],
          "internalType": "struct OrderTypes.MakerOrder",
          "name": "makerBid",
          "type": "tuple"
        }
      ],
      "name": "matchBidWithTakerAsk",
      "outputs": [],
      "stateMutability": "nonpayable",
      "type": "function"
    },
    {
      "inputs": [],
      "name": "owner",
      "outputs": [
        {
          "internalType": "address",
          "name": "",
          "type": "address"
        }
      ],
      "stateMutability": "view",
      "type": "function"
    },
    {
      "inputs": [],
      "name": "platformNFT",
      "outputs": [
        {
          "internalType": "contract IERC721",
          "name": "",
          "type": "address"
        }
      ],
      "stateMutability": "view",
      "type": "function"
    },
    {
      "inputs": [],
      "name": "protocolFeeRecipient",
      "outputs": [
        {
          "internalType": "address",
          "name": "",
          "type": "address"
        }
      ],
      "stateMutability": "view",
      "type": "function"
    },
    {
      "inputs": [],
      "name": "renounceOwnership",
      "outputs": [],
      "stateMutability": "nonpayable",
      "type": "function"
    },
    {
      "inputs": [],
      "name": "royaltyFeeManager",
      "outputs": [
        {
          "internalType": "contract IRoyaltyFeeManager",
          "name": "",
          "type": "address"
        }
      ],
      "stateMutability": "view",
      "type": "function"
    },
    {
      "inputs": [
        {
          "internalType": "address",
          "name": "newOwner",
          "type": "address"
        }
      ],
      "name": "transferOwnership",
      "outputs": [],
      "stateMutability": "nonpayable",
      "type": "function"
    },
    {
      "inputs": [],
      "name": "transferSelectorNFT",
      "outputs": [
        {
          "internalType": "contract ITransferSelectorNFT",
          "name": "",
          "type": "address"
        }
      ],
      "stateMutability": "view",
      "type": "function"
    },
    {
      "inputs": [
        {
          "internalType": "address",
          "name": "_currencyManager",
          "type": "address"
        }
      ],
      "name": "updateCurrencyManager",
      "outputs": [],
      "stateMutability": "nonpayable",
      "type": "function"
    },
    {
      "inputs": [
        {
          "internalType": "address",
          "name": "_executionManager",
          "type": "address"
        }
      ],
      "name": "updateExecutionManager",
      "outputs": [],
      "stateMutability": "nonpayable",
      "type": "function"
    },
    {
      "inputs": [
        {
          "internalType": "address",
          "name": "_protocolFeeRecipient",
          "type": "address"
        }
      ],
      "name": "updateProtocolFeeRecipient",
      "outputs": [],
      "stateMutability": "nonpayable",
      "type": "function"
    },
    {
      "inputs": [
        {
          "internalType": "address",
          "name": "_royaltyFeeManager",
          "type": "address"
        }
      ],
      "name": "updateRoyaltyFeeManager",
      "outputs": [],
      "stateMutability": "nonpayable",
      "type": "function"
    },
    {
      "inputs": [
        {
          "internalType": "address",
          "name": "_transferSelectorNFT",
          "type": "address"
        }
      ],
      "name": "updateTransferSelectorNFT",
      "outputs": [],
      "stateMutability": "nonpayable",
      "type": "function"
    },
    {
      "inputs": [
        {
          "internalType": "address",
          "name": "",
          "type": "address"
        }
      ],
      "name": "userMinOrderNonce",
      "outputs": [
        {
          "internalType": "uint256",
          "name": "",
          "type": "uint256"
        }
      ],
      "stateMutability": "view",
      "type": "function"
    }
  ],
  "transactionHash": "0x352fa5022f3db4b96c16a837cc6961adc849f25f3227a0dda2e1f16574cb9a45",
  "args": [
    "0xDa2Aa57c197d113EF36c9C57889a030b5D10754E",
    "0xBB774AE925044F4D066f77762356ff1c16D4e0Ab",
    "0x4D1576198130d24F357246EE39777A7D0a53Df1D",
    "0xa00744882684c3e4747faefd68d283ea44099d03",
    "0x0BDf1bc0cdD2E41E62E6BE2F756634FE2b587906",
    "0xCA9dF3dca35CdFd650315A5c921f0c3EFeAb9568"
  ],
  "numDeployments": 3,
  "solcInputHash": "078060e77b9f553b69b6e14781b650ab",
  "bytecode": "0x60e06040523480156200001157600080fd5b50604051620047e8380380620047e88339810160408190526200003491620001c3565b6001600055620000443362000154565b604080517f8b73c3c69bb8fe3d512ecc4cf759cc79239f7b179b0ffacaa9a75d522b39400f60208201527fda9101ba92939daf4bb2e18cd5f942363b9297fbc3232c9dd964abb1fb70ed71918101919091527fc89efdaa54c0f20c7adf612882df0950f5a951637e0307cdcb4c672f298b8bc660608201524660808201523060a082015260c00160408051808303601f19018152919052805160209091012060a052600380546001600160a01b03199081166001600160a01b03988916179091556004805482169688169690961790955560058054861694871694909417909355606091821b6001600160601b0319908116608052600280549095169190951617909255901b1660c05262000244565b600180546001600160a01b038381166001600160a01b0319831681179093556040519116919082907f8be0079c531659141344cd1fd0a4f28419497f9722a3daafe3b4186f6b6457e090600090a35050565b80516001600160a01b0381168114620001be57600080fd5b919050565b60008060008060008060c08789031215620001dd57600080fd5b620001e887620001a6565b9550620001f860208801620001a6565b94506200020860408801620001a6565b93506200021860608801620001a6565b92506200022860808801620001a6565b91506200023860a08801620001a6565b90509295509295509295565b60805160601c60a05160c05160601c61451a620002ce6000396000818161034f0152818161266c0152818161273501528181612e000152612ec9015260008181610273015261233601526000818161048a015281816114a001528181611628015281816116c401528181612fa2015281816130d60152818161315b015261324e015261451a6000f3fe6080604052600436106101805760003560e01c806364df049e116100d6578063b4e4b2961161007f578063d4ff41dc11610059578063d4ff41dc146104ff578063f2fde38b1461051f578063f75ff53f1461053f57600080fd5b8063b4e4b296146104ac578063c5498769146104bf578063cbd2ec65146104df57600080fd5b80638da5cb5b116100b05780638da5cb5b1461042d5780639e53a69a14610458578063ad5c46481461047857600080fd5b806364df049e146103be578063715018a6146103eb57806387e4401f1461040057600080fd5b80633b6d032e1161013857806353d9b3a01161011257806353d9b3a01461033d5780635ce052d7146103715780635e14f68e1461039157600080fd5b80633b6d032e146102c35780634266581e146102e3578063483abb9f1461031057600080fd5b806331e27e271161016957806331e27e27146101fe5780633644e5151461026157806338e29209146102a357600080fd5b80630f747d74146101855780631df47f80146101dc575b600080fd5b34801561019157600080fd5b506003546101b29073ffffffffffffffffffffffffffffffffffffffff1681565b60405173ffffffffffffffffffffffffffffffffffffffff90911681526020015b60405180910390f35b3480156101e857600080fd5b506101fc6101f7366004613b24565b61055f565b005b34801561020a57600080fd5b50610251610219366004613b5e565b73ffffffffffffffffffffffffffffffffffffffff919091166000908152600860209081526040808320938352929052205460ff1690565b60405190151581526020016101d3565b34801561026d57600080fd5b506102957f000000000000000000000000000000000000000000000000000000000000000081565b6040519081526020016101d3565b3480156102af57600080fd5b506101fc6102be366004613ce0565b610654565b3480156102cf57600080fd5b506101fc6102de366004613ce0565b610b40565b3480156102ef57600080fd5b506102956102fe366004613b24565b60076020526000908152604090205481565b34801561031c57600080fd5b506004546101b29073ffffffffffffffffffffffffffffffffffffffff1681565b34801561034957600080fd5b506101b27f000000000000000000000000000000000000000000000000000000000000000081565b34801561037d57600080fd5b506101fc61038c366004613b24565b610fb3565b34801561039d57600080fd5b506006546101b29073ffffffffffffffffffffffffffffffffffffffff1681565b3480156103ca57600080fd5b506002546101b29073ffffffffffffffffffffffffffffffffffffffff1681565b3480156103f757600080fd5b506101fc611120565b34801561040c57600080fd5b506005546101b29073ffffffffffffffffffffffffffffffffffffffff1681565b34801561043957600080fd5b5060015473ffffffffffffffffffffffffffffffffffffffff166101b2565b34801561046457600080fd5b506101fc610473366004613bb8565b6111ad565b34801561048457600080fd5b506101b27f000000000000000000000000000000000000000000000000000000000000000081565b6101fc6104ba366004613ce0565b61138e565b3480156104cb57600080fd5b506101fc6104da366004613b24565b611938565b3480156104eb57600080fd5b506101fc6104fa366004613d54565b611aa5565b34801561050b57600080fd5b506101fc61051a366004613b24565b611c3d565b34801561052b57600080fd5b506101fc61053a366004613b24565b611daa565b34801561054b57600080fd5b506101fc61055a366004613b24565b611eda565b60015473ffffffffffffffffffffffffffffffffffffffff1633146105e5576040517f08c379a000000000000000000000000000000000000000000000000000000000815260206004820181905260248201527f4f776e61626c653a2063616c6c6572206973206e6f7420746865206f776e657260448201526064015b60405180910390fd5b600280547fffffffffffffffffffffffff00000000000000000000000000000000000000001673ffffffffffffffffffffffffffffffffffffffff83169081179091556040517f8cffb07faa2874440346743bdc0a86b06c3335cc47dc49b327d10e77b73ceb1090600090a250565b600260005414156106c1576040517f08c379a000000000000000000000000000000000000000000000000000000000815260206004820152601f60248201527f5265656e7472616e637947756172643a207265656e7472616e742063616c6c0060448201526064016105dc565b60026000556106d36020820182613c2d565b80156106e957506106e76020830183613c2d565b155b61074f576040517f08c379a000000000000000000000000000000000000000000000000000000000815260206004820152601260248201527f4f726465723a2057726f6e67207369646573000000000000000000000000000060448201526064016105dc565b61075f6040830160208401613b24565b73ffffffffffffffffffffffffffffffffffffffff163373ffffffffffffffffffffffffffffffffffffffff16146107f3576040517f08c379a000000000000000000000000000000000000000000000000000000000815260206004820152601f60248201527f4f726465723a2054616b6572206d757374206265207468652073656e6465720060448201526064016105dc565b6000610806610801836142b1565b612047565b905061081282826120ee565b6000808061082660e0860160c08701613b24565b73ffffffffffffffffffffffffffffffffffffffff1663865781ca87876040518363ffffffff1660e01b8152600401610860929190613f8b565b60606040518083038186803b15801561087857600080fd5b505afa15801561088c573d6000803e3d6000fd5b505050506040513d601f19601f820116820180604052508101906108b09190613c67565b9250925092508261091d576040517f08c379a000000000000000000000000000000000000000000000000000000000815260206004820152601b60248201527f53747261746567793a20457865637574696f6e20696e76616c6964000000000060448201526064016105dc565b6001600860006109336040890160208a01613b24565b73ffffffffffffffffffffffffffffffffffffffff168152602080820192909252604090810160009081206101008a01358252909252902080547fffffffffffffffffffffffffffffffffffffffffffffffffffffffffffffff00169115159190911790556109ee6109ab60e0870160c08801613b24565b6109bb6060880160408901613b24565b846109cd6101008a0160e08b01613b24565b336109de60408c0160208d01613b24565b8c604001358c6101600135612625565b610a28610a016060870160408801613b24565b610a116040880160208901613b24565b610a2160408a0160208b01613b24565b8585612a70565b610a3860e0860160c08701613b24565b73ffffffffffffffffffffffffffffffffffffffff16610a5e6040870160208801613b24565b73ffffffffffffffffffffffffffffffffffffffff16610a846040890160208a01613b24565b73ffffffffffffffffffffffffffffffffffffffff167f95fb6205e23ff6bda16a2d1dba56b9ad7c783f67c96fa149785052f47696f2be876101008a01803590610ad19060e08d01613b24565b610ae160608d0160408e01613b24565b60408051948552602085019390935273ffffffffffffffffffffffffffffffffffffffff918216848401521660608301526080820188905260a082018790528b013560c082015260e00160405180910390a45050600160005550505050565b60026000541415610bad576040517f08c379a000000000000000000000000000000000000000000000000000000000815260206004820152601f60248201527f5265656e7472616e637947756172643a207265656e7472616e742063616c6c0060448201526064016105dc565b6002600055610bbf6020820182613c2d565b158015610bd45750610bd46020830183613c2d565b610c3a576040517f08c379a000000000000000000000000000000000000000000000000000000000815260206004820152601260248201527f4f726465723a2057726f6e67207369646573000000000000000000000000000060448201526064016105dc565b610c4a6040830160208401613b24565b73ffffffffffffffffffffffffffffffffffffffff163373ffffffffffffffffffffffffffffffffffffffff1614610cde576040517f08c379a000000000000000000000000000000000000000000000000000000000815260206004820152601f60248201527f4f726465723a2054616b6572206d757374206265207468652073656e6465720060448201526064016105dc565b6000610cec610801836142b1565b9050610cf882826120ee565b60008080610d0c60e0860160c08701613b24565b73ffffffffffffffffffffffffffffffffffffffff1663ad2390ac87876040518363ffffffff1660e01b8152600401610d46929190613f8b565b60606040518083038186803b158015610d5e57600080fd5b505afa158015610d72573d6000803e3d6000fd5b505050506040513d601f19601f82011682018060405250810190610d969190613c67565b92509250925082610e03576040517f08c379a000000000000000000000000000000000000000000000000000000000815260206004820152601b60248201527f53747261746567793a20457865637574696f6e20696e76616c6964000000000060448201526064016105dc565b600160086000610e196040890160208a01613b24565b73ffffffffffffffffffffffffffffffffffffffff168152602080820192909252604090810160009081206101008a013582529092529081902080547fffffffffffffffffffffffffffffffffffffffffffffffffffffffffffffff001692151592909217909155610ea690610e959060608801908801613b24565b33610a216040890160208a01613b24565b610f0a610eb960e0870160c08801613b24565b610ec96060880160408901613b24565b84610edb6101008a0160e08b01613b24565b610eeb60408b0160208c01613b24565b610efb60408d0160208e01613b24565b8c604001358d60800135612625565b610f1a60e0860160c08701613b24565b73ffffffffffffffffffffffffffffffffffffffff16610f406040870160208801613b24565b73ffffffffffffffffffffffffffffffffffffffff16610f666040890160208a01613b24565b73ffffffffffffffffffffffffffffffffffffffff167f68cd251d4d267c6e2034ff0088b990352b97b2002c0476587d0c4da889c11330876101008a01803590610ad19060e08d01613b24565b60015473ffffffffffffffffffffffffffffffffffffffff163314611034576040517f08c379a000000000000000000000000000000000000000000000000000000000815260206004820181905260248201527f4f776e61626c653a2063616c6c6572206973206e6f7420746865206f776e657260448201526064016105dc565b73ffffffffffffffffffffffffffffffffffffffff81166110b1576040517f08c379a000000000000000000000000000000000000000000000000000000000815260206004820152601d60248201527f4f776e65723a2043616e6e6f74206265206e756c6c206164647265737300000060448201526064016105dc565b600380547fffffffffffffffffffffffff00000000000000000000000000000000000000001673ffffffffffffffffffffffffffffffffffffffff83169081179091556040517fb4f5db40df3aced29e88a4babbc3b46e305e07d34098525d18b1497056e6383890600090a250565b60015473ffffffffffffffffffffffffffffffffffffffff1633146111a1576040517f08c379a000000000000000000000000000000000000000000000000000000000815260206004820181905260248201527f4f776e61626c653a2063616c6c6572206973206e6f7420746865206f776e657260448201526064016105dc565b6111ab6000612c60565b565b80611214576040517f08c379a000000000000000000000000000000000000000000000000000000000815260206004820152601760248201527f43616e63656c3a2043616e6e6f7420626520656d70747900000000000000000060448201526064016105dc565b60005b81811015611339573360009081526007602052604090205483838381811061124157611241614456565b9050602002013510156112d6576040517f08c379a000000000000000000000000000000000000000000000000000000000815260206004820152602660248201527f43616e63656c3a204f72646572206e6f6e6365206c6f776572207468616e206360448201527f757272656e74000000000000000000000000000000000000000000000000000060648201526084016105dc565b3360009081526008602052604081206001918585858181106112fa576112fa614456565b90506020020135815260200190815260200160002060006101000a81548160ff0219169083151502179055508080611331906143ee565b915050611217565b503373ffffffffffffffffffffffffffffffffffffffff167ffa0ae5d80fe3763c880a3839fab0294171a6f730d1f82c4cd5392c6f67b417328383604051611382929190613e50565b60405180910390a25050565b600260005414156113fb576040517f08c379a000000000000000000000000000000000000000000000000000000000815260206004820152601f60248201527f5265656e7472616e637947756172643a207265656e7472616e742063616c6c0060448201526064016105dc565b600260005561140d6020820182613c2d565b801561142357506114216020830183613c2d565b155b611489576040517f08c379a000000000000000000000000000000000000000000000000000000000815260206004820152601260248201527f4f726465723a2057726f6e67207369646573000000000000000000000000000060448201526064016105dc565b73ffffffffffffffffffffffffffffffffffffffff7f0000000000000000000000000000000000000000000000000000000000000000166114d1610100830160e08401613b24565b73ffffffffffffffffffffffffffffffffffffffff161461154e576040517f08c379a000000000000000000000000000000000000000000000000000000000815260206004820152601c60248201527f4f726465723a2043757272656e6379206d75737420626520574554480000000060448201526064016105dc565b61155e6040830160208401613b24565b73ffffffffffffffffffffffffffffffffffffffff163373ffffffffffffffffffffffffffffffffffffffff16146115f2576040517f08c379a000000000000000000000000000000000000000000000000000000000815260206004820152601f60248201527f4f726465723a2054616b6572206d757374206265207468652073656e6465720060448201526064016105dc565b348260400135111561165557611650333061161134604087013561429a565b73ffffffffffffffffffffffffffffffffffffffff7f000000000000000000000000000000000000000000000000000000000000000016929190612cd7565b6116c2565b348260400135146116c2576040517f08c379a000000000000000000000000000000000000000000000000000000000815260206004820152601960248201527f4f726465723a204d73672e76616c756520746f6f20686967680000000000000060448201526064016105dc565b7f000000000000000000000000000000000000000000000000000000000000000073ffffffffffffffffffffffffffffffffffffffff1663d0e30db0346040518263ffffffff1660e01b81526004016000604051808303818588803b15801561172a57600080fd5b505af115801561173e573d6000803e3d6000fd5b5050505050600061175282610801906142b1565b905061175e82826120ee565b6000808061177260e0860160c08701613b24565b73ffffffffffffffffffffffffffffffffffffffff1663865781ca87876040518363ffffffff1660e01b81526004016117ac929190613f8b565b60606040518083038186803b1580156117c457600080fd5b505afa1580156117d8573d6000803e3d6000fd5b505050506040513d601f19601f820116820180604052508101906117fc9190613c67565b92509250925082611869576040517f08c379a000000000000000000000000000000000000000000000000000000000815260206004820152601b60248201527f53747261746567793a20457865637574696f6e20696e76616c6964000000000060448201526064016105dc565b60016008600061187f6040890160208a01613b24565b73ffffffffffffffffffffffffffffffffffffffff168152602080820192909252604090810160009081206101008a01358252909252902080547fffffffffffffffffffffffffffffffffffffffffffffffffffffffffffffff00169115159190911790556109ee6118f760e0870160c08801613b24565b6119076060880160408901613b24565b8461191860408b0160208c01613b24565b61192860408b0160208c01613b24565b8b604001358b6101600135612db9565b60015473ffffffffffffffffffffffffffffffffffffffff1633146119b9576040517f08c379a000000000000000000000000000000000000000000000000000000000815260206004820181905260248201527f4f776e61626c653a2063616c6c6572206973206e6f7420746865206f776e657260448201526064016105dc565b73ffffffffffffffffffffffffffffffffffffffff8116611a36576040517f08c379a000000000000000000000000000000000000000000000000000000000815260206004820152601d60248201527f4f776e65723a2043616e6e6f74206265206e756c6c206164647265737300000060448201526064016105dc565b600580547fffffffffffffffffffffffff00000000000000000000000000000000000000001673ffffffffffffffffffffffffffffffffffffffff83169081179091556040517f80e3874461ebbd918ac3e81da0a92e5e51387d70f337237c9123e48d20e5a50890600090a250565b336000908152600760205260409020548111611b43576040517f08c379a000000000000000000000000000000000000000000000000000000000815260206004820152602660248201527f43616e63656c3a204f72646572206e6f6e6365206c6f776572207468616e206360448201527f757272656e74000000000000000000000000000000000000000000000000000060648201526084016105dc565b33600090815260076020526040902054611b60906207a12061420a565b8110611bee576040517f08c379a000000000000000000000000000000000000000000000000000000000815260206004820152602160248201527f43616e63656c3a2043616e6e6f742063616e63656c206d6f7265206f7264657260448201527f730000000000000000000000000000000000000000000000000000000000000060648201526084016105dc565b3360008181526007602052604090819020839055517f1e7178d84f0b0825c65795cd62e7972809ad3aac6917843aaec596161b2c0a9790611c329084815260200190565b60405180910390a250565b60015473ffffffffffffffffffffffffffffffffffffffff163314611cbe576040517f08c379a000000000000000000000000000000000000000000000000000000000815260206004820181905260248201527f4f776e61626c653a2063616c6c6572206973206e6f7420746865206f776e657260448201526064016105dc565b73ffffffffffffffffffffffffffffffffffffffff8116611d3b576040517f08c379a000000000000000000000000000000000000000000000000000000000815260206004820152601d60248201527f4f776e65723a2043616e6e6f74206265206e756c6c206164647265737300000060448201526064016105dc565b600480547fffffffffffffffffffffffff00000000000000000000000000000000000000001673ffffffffffffffffffffffffffffffffffffffff83169081179091556040517f36e2a376eabc3bc60cb88f29c288f53e36874a95a7f407330ab4f166b090569890600090a250565b60015473ffffffffffffffffffffffffffffffffffffffff163314611e2b576040517f08c379a000000000000000000000000000000000000000000000000000000000815260206004820181905260248201527f4f776e61626c653a2063616c6c6572206973206e6f7420746865206f776e657260448201526064016105dc565b73ffffffffffffffffffffffffffffffffffffffff8116611ece576040517f08c379a000000000000000000000000000000000000000000000000000000000815260206004820152602660248201527f4f776e61626c653a206e6577206f776e657220697320746865207a65726f206160448201527f646472657373000000000000000000000000000000000000000000000000000060648201526084016105dc565b611ed781612c60565b50565b60015473ffffffffffffffffffffffffffffffffffffffff163314611f5b576040517f08c379a000000000000000000000000000000000000000000000000000000000815260206004820181905260248201527f4f776e61626c653a2063616c6c6572206973206e6f7420746865206f776e657260448201526064016105dc565b73ffffffffffffffffffffffffffffffffffffffff8116611fd8576040517f08c379a000000000000000000000000000000000000000000000000000000000815260206004820152601d60248201527f4f776e65723a2043616e6e6f74206265206e756c6c206164647265737300000060448201526064016105dc565b600680547fffffffffffffffffffffffff00000000000000000000000000000000000000001673ffffffffffffffffffffffffffffffffffffffff83169081179091556040517f205d78ab41afe80bd6b6aaa5d7599d5300ff8690da3ab1302c1b552f7baf7d8c90600090a250565b80516020808301516040808501516060860151608087015160a088015160c089015160e08a01516101008b01516101208c01516101408d01516101608e01516101808f01518051908e01209a5160009e6120d19e7f40261ade532fa1d2c7293df30aaadb9b3c616fae525a0b56d3d411c841a850289e919d919c9b9a999897969594939201613ea5565b604051602081830303815290604052805190602001209050919050565b600860006121026040850160208601613b24565b73ffffffffffffffffffffffffffffffffffffffff16815260208082019290925260409081016000908120610100860135825290925290205460ff1615801561219e57506007600061215a6040850160208601613b24565b73ffffffffffffffffffffffffffffffffffffffff1673ffffffffffffffffffffffffffffffffffffffff1681526020019081526020016000205482610100013510155b612204576040517f08c379a000000000000000000000000000000000000000000000000000000000815260206004820152601d60248201527f4f726465723a204d61746368696e67206f72646572206578706972656400000060448201526064016105dc565b60006122166040840160208501613b24565b73ffffffffffffffffffffffffffffffffffffffff161415612294576040517f08c379a000000000000000000000000000000000000000000000000000000000815260206004820152601560248201527f4f726465723a20496e76616c6964207369676e6572000000000000000000000060448201526064016105dc565b60008260a0013511612302576040517f08c379a000000000000000000000000000000000000000000000000000000000815260206004820152601960248201527f4f726465723a20416d6f756e742063616e6e6f7420626520300000000000000060448201526064016105dc565b61235a816123166040850160208601613b24565b6123286101c086016101a08701613d86565b856101c00135866101e001357f000000000000000000000000000000000000000000000000000000000000000061327f565b6123c0576040517f08c379a000000000000000000000000000000000000000000000000000000000815260206004820152601260248201527f5369676e61747572653a20496e76616c6964000000000000000000000000000060448201526064016105dc565b60035473ffffffffffffffffffffffffffffffffffffffff166343b938c56123ef610100850160e08601613b24565b6040517fffffffff0000000000000000000000000000000000000000000000000000000060e084901b16815273ffffffffffffffffffffffffffffffffffffffff909116600482015260240160206040518083038186803b15801561245357600080fd5b505afa158015612467573d6000803e3d6000fd5b505050506040513d601f19601f8201168201806040525081019061248b9190613c4a565b6124f1576040517f08c379a000000000000000000000000000000000000000000000000000000000815260206004820152601960248201527f43757272656e63793a204e6f742077686974656c69737465640000000000000060448201526064016105dc565b60045473ffffffffffffffffffffffffffffffffffffffff1663999ba27c61251f60e0850160c08601613b24565b6040517fffffffff0000000000000000000000000000000000000000000000000000000060e084901b16815273ffffffffffffffffffffffffffffffffffffffff909116600482015260240160206040518083038186803b15801561258357600080fd5b505afa158015612597573d6000803e3d6000fd5b505050506040513d601f19601f820116820180604052508101906125bb9190613c4a565b612621576040517f08c379a000000000000000000000000000000000000000000000000000000000815260206004820152601960248201527f53747261746567793a204e6f742077686974656c69737465640000000000000060448201526064016105dc565b5050565b6040517f70a0823100000000000000000000000000000000000000000000000000000000815273ffffffffffffffffffffffffffffffffffffffff858116600483015283917f0000000000000000000000000000000000000000000000000000000000000000909116906370a082319060240160206040518083038186803b1580156126b057600080fd5b505afa1580156126c4573d6000803e3d6000fd5b505050506040513d601f19601f820116820180604052508101906126e89190613d6d565b1580156127b157506040517f70a0823100000000000000000000000000000000000000000000000000000000815273ffffffffffffffffffffffffffffffffffffffff85811660048301527f000000000000000000000000000000000000000000000000000000000000000016906370a082319060240160206040518083038186803b15801561277757600080fd5b505afa15801561278b573d6000803e3d6000fd5b505050506040513d601f19601f820116820180604052508101906127af9190613d6d565b155b156128285760006127c28a8561344c565b60025490915073ffffffffffffffffffffffffffffffffffffffff16158015906127eb57508015155b15612826576002546128199073ffffffffffffffffffffffffffffffffffffffff8981169189911684612cd7565b612823818361429a565b91505b505b6005546040517ff4f635fa00000000000000000000000000000000000000000000000000000000815273ffffffffffffffffffffffffffffffffffffffff8a81166004830152602482018a905260448201869052600092839291169063f4f635fa90606401604080518083038186803b1580156128a457600080fd5b505afa1580156128b8573d6000803e3d6000fd5b505050506040513d601f19601f820116820180604052508101906128dc9190613b8a565b909250905073ffffffffffffffffffffffffffffffffffffffff82161580159061290557508015155b156129c25761292c73ffffffffffffffffffffffffffffffffffffffff8916888484612cd7565b612936818461429a565b92508173ffffffffffffffffffffffffffffffffffffffff16898b73ffffffffffffffffffffffffffffffffffffffff167f27c4f0403323142b599832f26acd21c74a9e5b809f2215726e244a4ac588cd7d8b856040516129b992919073ffffffffffffffffffffffffffffffffffffffff929092168252602082015260400190565b60405180910390a45b506129cf9050838361425d565b6129db8261271061425d565b1015612a43576040517f08c379a000000000000000000000000000000000000000000000000000000000815260206004820152601a60248201527f466565733a20486967686572207468616e20657870656374656400000000000060448201526064016105dc565b612a6573ffffffffffffffffffffffffffffffffffffffff8716868684612cd7565b505050505050505050565b6006546040517fcc15949300000000000000000000000000000000000000000000000000000000815273ffffffffffffffffffffffffffffffffffffffff8781166004830152600092169063cc1594939060240160206040518083038186803b158015612adc57600080fd5b505afa158015612af0573d6000803e3d6000fd5b505050506040513d601f19601f82011682018060405250810190612b149190613b41565b905073ffffffffffffffffffffffffffffffffffffffff8116612bb9576040517f08c379a000000000000000000000000000000000000000000000000000000000815260206004820152602b60248201527f5472616e736665723a204e6f204e4654207472616e73666572206d616e61676560448201527f7220617661696c61626c6500000000000000000000000000000000000000000060648201526084016105dc565b6040517f33f2fa9f00000000000000000000000000000000000000000000000000000000815273ffffffffffffffffffffffffffffffffffffffff87811660048301528681166024830152858116604483015260648201859052608482018490528216906333f2fa9f9060a401600060405180830381600087803b158015612c4057600080fd5b505af1158015612c54573d6000803e3d6000fd5b50505050505050505050565b6001805473ffffffffffffffffffffffffffffffffffffffff8381167fffffffffffffffffffffffff0000000000000000000000000000000000000000831681179093556040519116919082907f8be0079c531659141344cd1fd0a4f28419497f9722a3daafe3b4186f6b6457e090600090a35050565b60405173ffffffffffffffffffffffffffffffffffffffff80851660248301528316604482015260648101829052612db39085907f23b872dd00000000000000000000000000000000000000000000000000000000906084015b604080517fffffffffffffffffffffffffffffffffffffffffffffffffffffffffffffffe08184030181529190526020810180517bffffffffffffffffffffffffffffffffffffffffffffffffffffffff167fffffffff00000000000000000000000000000000000000000000000000000000909316929092179091526134ee565b50505050565b6040517f70a0823100000000000000000000000000000000000000000000000000000000815273ffffffffffffffffffffffffffffffffffffffff858116600483015283917f0000000000000000000000000000000000000000000000000000000000000000909116906370a082319060240160206040518083038186803b158015612e4457600080fd5b505afa158015612e58573d6000803e3d6000fd5b505050506040513d601f19601f82011682018060405250810190612e7c9190613d6d565b158015612f4557506040517f70a0823100000000000000000000000000000000000000000000000000000000815273ffffffffffffffffffffffffffffffffffffffff85811660048301527f000000000000000000000000000000000000000000000000000000000000000016906370a082319060240160206040518083038186803b158015612f0b57600080fd5b505afa158015612f1f573d6000803e3d6000fd5b505050506040513d601f19601f82011682018060405250810190612f439190613d6d565b155b15612fda576000612f56898561344c565b60025490915073ffffffffffffffffffffffffffffffffffffffff1615801590612f7f57508015155b15612fd857600254612fcb9073ffffffffffffffffffffffffffffffffffffffff7f000000000000000000000000000000000000000000000000000000000000000081169116836135ff565b612fd5818361429a565b91505b505b6005546040517ff4f635fa00000000000000000000000000000000000000000000000000000000815273ffffffffffffffffffffffffffffffffffffffff89811660048301526024820189905260448201869052600092839291169063f4f635fa90606401604080518083038186803b15801561305657600080fd5b505afa15801561306a573d6000803e3d6000fd5b505050506040513d601f19601f8201168201806040525081019061308e9190613b8a565b909250905073ffffffffffffffffffffffffffffffffffffffff8216158015906130b757508015155b156131b3576130fd73ffffffffffffffffffffffffffffffffffffffff7f00000000000000000000000000000000000000000000000000000000000000001683836135ff565b613107818461429a565b92508173ffffffffffffffffffffffffffffffffffffffff16888a73ffffffffffffffffffffffffffffffffffffffff167f27c4f0403323142b599832f26acd21c74a9e5b809f2215726e244a4ac588cd7d7f0000000000000000000000000000000000000000000000000000000000000000856040516131aa92919073ffffffffffffffffffffffffffffffffffffffff929092168252602082015260400190565b60405180910390a45b506131c09050838361425d565b6131cc8261271061425d565b1015613234576040517f08c379a000000000000000000000000000000000000000000000000000000000815260206004820152601a60248201527f466565733a20486967686572207468616e20657870656374656400000000000060448201526064016105dc565b61327573ffffffffffffffffffffffffffffffffffffffff7f00000000000000000000000000000000000000000000000000000000000000001685836135ff565b5050505050505050565b6040517f19010000000000000000000000000000000000000000000000000000000000006020820152602281018290526042810187905260009081906062016040516020818303038152906040528051906020012090506132e0873b151590565b1561340457604080516020810187905280820186905260f888901b7fff000000000000000000000000000000000000000000000000000000000000001660608201528151604181830301815260618201928390527f1626ba7e0000000000000000000000000000000000000000000000000000000090925273ffffffffffffffffffffffffffffffffffffffff891691631626ba7e91613384918591606501613f5f565b60206040518083038186803b15801561339c57600080fd5b505afa1580156133b0573d6000803e3d6000fd5b505050506040513d601f19601f820116820180604052508101906133d49190613c9e565b7bffffffffffffffffffffffffffffffffffffffffffffffffffffffff1916631626ba7e60e01b14915050613442565b8673ffffffffffffffffffffffffffffffffffffffff1661342782888888613655565b73ffffffffffffffffffffffffffffffffffffffff16149150505b9695505050505050565b6000808373ffffffffffffffffffffffffffffffffffffffff16639dd1cda66040518163ffffffff1660e01b815260040160206040518083038186803b15801561349557600080fd5b505afa1580156134a9573d6000803e3d6000fd5b505050506040513d601f19601f820116820180604052508101906134cd9190613d6d565b90506127106134dc848361425d565b6134e69190614222565b949350505050565b6000613550826040518060400160405280602081526020017f5361666545524332303a206c6f772d6c6576656c2063616c6c206661696c65648152508573ffffffffffffffffffffffffffffffffffffffff166138619092919063ffffffff16565b8051909150156135fa578080602001905181019061356e9190613c4a565b6135fa576040517f08c379a000000000000000000000000000000000000000000000000000000000815260206004820152602a60248201527f5361666545524332303a204552433230206f7065726174696f6e20646964206e60448201527f6f7420737563636565640000000000000000000000000000000000000000000060648201526084016105dc565b505050565b60405173ffffffffffffffffffffffffffffffffffffffff83166024820152604481018290526135fa9084907fa9059cbb0000000000000000000000000000000000000000000000000000000090606401612d31565b60007f7fffffffffffffffffffffffffffffff5d576e7357a4501ddfe92f46681b20a08211156136e1576040517f08c379a000000000000000000000000000000000000000000000000000000000815260206004820152601e60248201527f5369676e61747572653a20496e76616c6964207320706172616d65746572000060448201526064016105dc565b8360ff16601b14806136f657508360ff16601c145b61375c576040517f08c379a000000000000000000000000000000000000000000000000000000000815260206004820152601e60248201527f5369676e61747572653a20496e76616c6964207620706172616d65746572000060448201526064016105dc565b6040805160008082526020820180845288905260ff871692820192909252606081018590526080810184905260019060a0016020604051602081039080840390855afa1580156137b0573d6000803e3d6000fd5b50506040517fffffffffffffffffffffffffffffffffffffffffffffffffffffffffffffffe0015191505073ffffffffffffffffffffffffffffffffffffffff8116613858576040517f08c379a000000000000000000000000000000000000000000000000000000000815260206004820152601960248201527f5369676e61747572653a20496e76616c6964207369676e65720000000000000060448201526064016105dc565b95945050505050565b6060613870848460008561387a565b90505b9392505050565b60608247101561390c576040517f08c379a000000000000000000000000000000000000000000000000000000000815260206004820152602660248201527f416464726573733a20696e73756666696369656e742062616c616e636520666f60448201527f722063616c6c000000000000000000000000000000000000000000000000000060648201526084016105dc565b843b613974576040517f08c379a000000000000000000000000000000000000000000000000000000000815260206004820152601d60248201527f416464726573733a2063616c6c20746f206e6f6e2d636f6e747261637400000060448201526064016105dc565b6000808673ffffffffffffffffffffffffffffffffffffffff16858760405161399d9190613e34565b60006040518083038185875af1925050503d80600081146139da576040519150601f19603f3d011682016040523d82523d6000602084013e6139df565b606091505b50915091506139ef8282866139fa565b979650505050505050565b60608315613a09575081613873565b825115613a195782518084602001fd5b816040517f08c379a00000000000000000000000000000000000000000000000000000000081526004016105dc9190613f78565b8035613a58816144b4565b919050565b8035613a58816144d6565b600082601f830112613a7957600080fd5b813567ffffffffffffffff80821115613a9457613a94614485565b604051601f83017fffffffffffffffffffffffffffffffffffffffffffffffffffffffffffffffe0908116603f01168101908282118183101715613ada57613ada614485565b81604052838152866020858801011115613af357600080fd5b836020870160208301376000602085830101528094505050505092915050565b803560ff81168114613a5857600080fd5b600060208284031215613b3657600080fd5b8135613873816144b4565b600060208284031215613b5357600080fd5b8151613873816144b4565b60008060408385031215613b7157600080fd5b8235613b7c816144b4565b946020939093013593505050565b60008060408385031215613b9d57600080fd5b8251613ba8816144b4565b6020939093015192949293505050565b60008060208385031215613bcb57600080fd5b823567ffffffffffffffff80821115613be357600080fd5b818501915085601f830112613bf757600080fd5b813581811115613c0657600080fd5b8660208260051b8501011115613c1b57600080fd5b60209290920196919550909350505050565b600060208284031215613c3f57600080fd5b8135613873816144d6565b600060208284031215613c5c57600080fd5b8151613873816144d6565b600080600060608486031215613c7c57600080fd5b8351613c87816144d6565b602085015160409095015190969495509392505050565b600060208284031215613cb057600080fd5b81517fffffffff000000000000000000000000000000000000000000000000000000008116811461387357600080fd5b60008060408385031215613cf357600080fd5b823567ffffffffffffffff80821115613d0b57600080fd5b9084019060c08287031215613d1f57600080fd5b90925060208401359080821115613d3557600080fd5b5083016102008186031215613d4957600080fd5b809150509250929050565b600060208284031215613d6657600080fd5b5035919050565b600060208284031215613d7f57600080fd5b5051919050565b600060208284031215613d9857600080fd5b61387382613b13565b8183528181602085013750600060208284010152600060207fffffffffffffffffffffffffffffffffffffffffffffffffffffffffffffffe0601f840116840101905092915050565b60008151808452613e028160208601602086016143c2565b601f017fffffffffffffffffffffffffffffffffffffffffffffffffffffffffffffffe0169290920160200192915050565b60008251613e468184602087016143c2565b9190910192915050565b6020815281602082015260007f07ffffffffffffffffffffffffffffffffffffffffffffffffffffffffffffff831115613e8957600080fd5b8260051b80856040850137600092016040019182525092915050565b8e81528d1515602082015273ffffffffffffffffffffffffffffffffffffffff8d811660408301528c1660608201526101c081018b60808301528a60a08301528960c0830152613f0d60e083018a73ffffffffffffffffffffffffffffffffffffffff169052565b73ffffffffffffffffffffffffffffffffffffffff88166101008301526101208201969096526101408101949094526101608401929092526101808301526101a0909101529998505050505050505050565b8281526040602082015260006138706040830184613dea565b6020815260006138736020830184613dea565b6040815260006101008435613f9f816144d6565b151560408401526020850135613fb4816144b4565b73ffffffffffffffffffffffffffffffffffffffff811660608501525060408501356080840152606085013560a0840152608085013560c0840152613ffc60a086018661419f565b60c060e08601526140108386018284613da1565b91505083810360208501526102006140318261402b88613a5d565b15159052565b61403d60208701613a4d565b73ffffffffffffffffffffffffffffffffffffffff16602083015261406460408701613a4d565b73ffffffffffffffffffffffffffffffffffffffff8116604084015250606086013560608301526080860135608083015260a086013560a08301526140ab60c08701613a4d565b73ffffffffffffffffffffffffffffffffffffffff1660c08301526140d260e08701613a4d565b73ffffffffffffffffffffffffffffffffffffffff1660e08301528286013592820192909252610120808601359082015261014080860135908201526101608086013590820152610180916141298387018761419f565b828585015261413b8385018284613da1565b94505050506101a061414e818701613b13565b60ff16908201526101c085810135908201526101e094850135940193909352509092915050565b604051610200810167ffffffffffffffff8111828210171561419957614199614485565b60405290565b60008083357fffffffffffffffffffffffffffffffffffffffffffffffffffffffffffffffe18436030181126141d457600080fd5b830160208101925035905067ffffffffffffffff8111156141f457600080fd5b80360383131561420357600080fd5b9250929050565b6000821982111561421d5761421d614427565b500190565b600082614258577f4e487b7100000000000000000000000000000000000000000000000000000000600052601260045260246000fd5b500490565b6000817fffffffffffffffffffffffffffffffffffffffffffffffffffffffffffffffff048311821515161561429557614295614427565b500290565b6000828210156142ac576142ac614427565b500390565b600061020082360312156142c457600080fd5b6142cc614175565b6142d583613a5d565b81526142e360208401613a4d565b60208201526142f460408401613a4d565b6040820152606083013560608201526080830135608082015260a083013560a082015261432360c08401613a4d565b60c082015261433460e08401613a4d565b60e082015261010083810135908201526101208084013590820152610140808401359082015261016080840135908201526101808084013567ffffffffffffffff81111561438157600080fd5b61438d36828701613a68565b8284015250506101a06143a1818501613b13565b908201526101c083810135908201526101e092830135928101929092525090565b60005b838110156143dd5781810151838201526020016143c5565b83811115612db35750506000910152565b60007fffffffffffffffffffffffffffffffffffffffffffffffffffffffffffffffff82141561442057614420614427565b5060010190565b7f4e487b7100000000000000000000000000000000000000000000000000000000600052601160045260246000fd5b7f4e487b7100000000000000000000000000000000000000000000000000000000600052603260045260246000fd5b7f4e487b7100000000000000000000000000000000000000000000000000000000600052604160045260246000fd5b73ffffffffffffffffffffffffffffffffffffffff81168114611ed757600080fd5b8015158114611ed757600080fdfea2646970667358221220b278adc97c0dd263402ee6ebb333b832013f95532c2d3d19d2ace26b01a5ecbc64736f6c63430008070033",
  "devdoc": {
    "kind": "dev",
    "methods": {
      "cancelAllOrdersForSender(uint256)": {
        "params": {
          "minNonce": "minimum user nonce"
        }
      },
      "cancelMultipleMakerOrders(uint256[])": {
        "params": {
          "orderNonces": "array of order nonces"
        }
      },
      "constructor": {
        "params": {
          "_WETH": "wrapped ether address (for other chains, use wrapped native asset)",
          "_currencyManager": "currency manager address",
          "_executionManager": "execution manager address",
          "_protocolFeeRecipient": "protocol fee recipient",
          "_royaltyFeeManager": "royalty fee manager address"
        }
      },
      "isUserOrderNonceExecutedOrCancelled(address,uint256)": {
        "params": {
          "orderNonce": "nonce of the order",
          "user": "address of user"
        }
      },
      "matchAskWithTakerBid((bool,address,uint256,uint256,uint256,bytes),(bool,address,address,uint256,uint256,uint256,address,address,uint256,uint256,uint256,uint256,bytes,uint8,bytes32,bytes32))": {
        "params": {
          "makerAsk": "maker ask order",
          "takerBid": "taker bid order"
        }
      },
      "matchAskWithTakerBidUsingETHAndWETH((bool,address,uint256,uint256,uint256,bytes),(bool,address,address,uint256,uint256,uint256,address,address,uint256,uint256,uint256,uint256,bytes,uint8,bytes32,bytes32))": {
        "params": {
          "makerAsk": "maker ask order",
          "takerBid": "taker bid order"
        }
      },
      "matchBidWithTakerAsk((bool,address,uint256,uint256,uint256,bytes),(bool,address,address,uint256,uint256,uint256,address,address,uint256,uint256,uint256,uint256,bytes,uint8,bytes32,bytes32))": {
        "params": {
          "makerBid": "maker bid order",
          "takerAsk": "taker ask order"
        }
      },
      "owner()": {
        "details": "Returns the address of the current owner."
      },
      "renounceOwnership()": {
        "details": "Leaves the contract without owner. It will not be possible to call `onlyOwner` functions anymore. Can only be called by the current owner. NOTE: Renouncing ownership will leave the contract without an owner, thereby removing any functionality that is only available to the owner."
      },
      "transferOwnership(address)": {
        "details": "Transfers ownership of the contract to a new account (`newOwner`). Can only be called by the current owner."
      },
      "updateCurrencyManager(address)": {
        "params": {
          "_currencyManager": "new currency manager address"
        }
      },
      "updateExecutionManager(address)": {
        "params": {
          "_executionManager": "new execution manager address"
        }
      },
      "updateProtocolFeeRecipient(address)": {
        "params": {
          "_protocolFeeRecipient": "new recipient for protocol fees"
        }
      },
      "updateRoyaltyFeeManager(address)": {
        "params": {
          "_royaltyFeeManager": "new fee manager address"
        }
      },
      "updateTransferSelectorNFT(address)": {
        "params": {
          "_transferSelectorNFT": "new transfer selector address"
        }
      }
    },
    "title": "LooksRareExchange",
    "version": 1
  },
  "userdoc": {
    "kind": "user",
    "methods": {
      "cancelAllOrdersForSender(uint256)": {
        "notice": "Cancel all pending orders for a sender"
      },
      "cancelMultipleMakerOrders(uint256[])": {
        "notice": "Cancel maker orders"
      },
      "constructor": {
        "notice": "Constructor"
      },
      "isUserOrderNonceExecutedOrCancelled(address,uint256)": {
        "notice": "Check whether user order nonce is executed or cancelled"
      },
      "matchAskWithTakerBid((bool,address,uint256,uint256,uint256,bytes),(bool,address,address,uint256,uint256,uint256,address,address,uint256,uint256,uint256,uint256,bytes,uint8,bytes32,bytes32))": {
        "notice": "Match a takerBid with a matchAsk"
      },
      "matchAskWithTakerBidUsingETHAndWETH((bool,address,uint256,uint256,uint256,bytes),(bool,address,address,uint256,uint256,uint256,address,address,uint256,uint256,uint256,uint256,bytes,uint8,bytes32,bytes32))": {
        "notice": "Match ask with a taker bid order using ETH"
      },
      "matchBidWithTakerAsk((bool,address,uint256,uint256,uint256,bytes),(bool,address,address,uint256,uint256,uint256,address,address,uint256,uint256,uint256,uint256,bytes,uint8,bytes32,bytes32))": {
        "notice": "Match a takerAsk with a makerBid"
      },
      "updateCurrencyManager(address)": {
        "notice": "Update currency manager"
      },
      "updateExecutionManager(address)": {
        "notice": "Update execution manager"
      },
      "updateProtocolFeeRecipient(address)": {
        "notice": "Update protocol fee and recipient"
      },
      "updateRoyaltyFeeManager(address)": {
        "notice": "Update royalty fee manager"
      },
      "updateTransferSelectorNFT(address)": {
        "notice": "Update transfer selector NFT"
      }
    },
    "notice": "It is the core contract of the LooksRare exchange. LOOKSRARELOOKSRARELOOKSRLOOKSRARELOOKSRARELOOKSRARELOOKSRARELOOKSRLOOKSRARELOOKSRARELOOKSR LOOKSRARELOOKSRARELOOKSRAR'''''''''''''''''''''''''''''''''''OOKSRLOOKSRARELOOKSRARELOOKSR LOOKSRARELOOKSRARELOOKS:.                                        .;OOKSRARELOOKSRARELOOKSR LOOKSRARELOOKSRARELOO,.                                            .,KSRARELOOKSRARELOOKSR LOOKSRARELOOKSRAREL'                ..',;:LOOKS::;,'..                'RARELOOKSRARELOOKSR LOOKSRARELOOKSRAR.              .,:LOOKSRARELOOKSRARELO:,.              .RELOOKSRARELOOKSR LOOKSRARELOOKS:.             .;RARELOOKSRARELOOKSRARELOOKSl;.             .:OOKSRARELOOKSR LOOKSRARELOO;.            .'OKSRARELOOKSRARELOOKSRARELOOKSRARE'.            .;KSRARELOOKSR LOOKSRAREL,.            .,LOOKSRARELOOK:;;:\"\"\"\":;;;lELOOKSRARELO,.            .,RARELOOKSR LOOKSRAR.             .;okLOOKSRAREx:.              .;OOKSRARELOOK;.             .RELOOKSR LOOKS:.             .:dOOOLOOKSRARE'      .''''..     .OKSRARELOOKSR:.             .LOOKSR LOx;.             .cKSRARELOOKSRAR'     'LOOKSRAR'     .KSRARELOOKSRARc..            .OKSR L;.             .cxOKSRARELOOKSRAR.    .LOOKS.RARE'     ;kRARELOOKSRARExc.             .;R LO'             .;oOKSRARELOOKSRAl.    .LOOKS.RARE.     :kRARELOOKSRAREo;.             'SR LOOK;.            .,KSRARELOOKSRAx,     .;LOOKSR;.     .oSRARELOOKSRAo,.            .;OKSR LOOKSk:.            .'RARELOOKSRARd;.      ....       'oOOOOOOOOOOxc'.            .:LOOKSR LOOKSRARc.             .:dLOOKSRAREko;.            .,lxOOOOOOOOOd:.             .ARELOOKSR LOOKSRARELo'             .;oOKSRARELOOxoc;,....,;:ldkOOOOOOOOkd;.             'SRARELOOKSR LOOKSRARELOOd,.            .,lSRARELOOKSRARELOOKSRARELOOKSRkl,.            .,OKSRARELOOKSR LOOKSRARELOOKSx;.            ..;oxELOOKSRARELOOKSRARELOkxl:..            .:LOOKSRARELOOKSR LOOKSRARELOOKSRARc.              .':cOKSRARELOOKSRALOc;'.              .ARELOOKSRARELOOKSR LOOKSRARELOOKSRARELl'                 ...'',,,,''...                 'SRARELOOKSRARELOOKSR LOOKSRARELOOKSRARELOOo,.                                          .,OKSRARELOOKSRARELOOKSR LOOKSRARELOOKSRARELOOKSx;.                                      .;xOOKSRARELOOKSRARELOOKSR LOOKSRARELOOKSRARELOOKSRLO:.                                  .:SRLOOKSRARELOOKSRARELOOKSR LOOKSRARELOOKSRARELOOKSRLOOKl.                              .lOKSRLOOKSRARELOOKSRARELOOKSR LOOKSRARELOOKSRARELOOKSRLOOKSRo'.                        .'oLOOKSRLOOKSRARELOOKSRARELOOKSR LOOKSRARELOOKSRARELOOKSRLOOKSRARd;.                    .;xRELOOKSRLOOKSRARELOOKSRARELOOKSR LOOKSRARELOOKSRARELOOKSRLOOKSRARELO:.                .:kRARELOOKSRLOOKSRARELOOKSRARELOOKSR LOOKSRARELOOKSRARELOOKSRLOOKSRARELOOKl.            .cOKSRARELOOKSRLOOKSRARELOOKSRARELOOKSR LOOKSRARELOOKSRARELOOKSRLOOKSRARELOOKSRo'        'oLOOKSRARELOOKSRLOOKSRARELOOKSRARELOOKSR LOOKSRARELOOKSRARELOOKSRLOOKSRARELOOKSRARE,.  .,dRELOOKSRARELOOKSRLOOKSRARELOOKSRARELOOKSR LOOKSRARELOOKSRARELOOKSRLOOKSRARELOOKSRARELOOKSRARELOOKSRARELOOKSRLOOKSRARELOOKSRARELOOKSR",
    "version": 1
  },
  "storageLayout": {
    "storage": [
      {
        "astId": 151,
        "contract": "contracts/LooksRareExchange.sol:LooksRareExchange",
        "label": "_status",
        "offset": 0,
        "slot": "0",
        "type": "t_uint256"
      },
      {
        "astId": 7,
        "contract": "contracts/LooksRareExchange.sol:LooksRareExchange",
        "label": "_owner",
        "offset": 0,
        "slot": "1",
        "type": "t_address"
      },
      {
        "astId": 5025,
        "contract": "contracts/LooksRareExchange.sol:LooksRareExchange",
        "label": "protocolFeeRecipient",
        "offset": 0,
        "slot": "2",
        "type": "t_address"
      },
      {
        "astId": 5028,
        "contract": "contracts/LooksRareExchange.sol:LooksRareExchange",
        "label": "currencyManager",
        "offset": 0,
        "slot": "3",
        "type": "t_contract(ICurrencyManager)7951"
      },
      {
        "astId": 5031,
        "contract": "contracts/LooksRareExchange.sol:LooksRareExchange",
        "label": "executionManager",
        "offset": 0,
        "slot": "4",
        "type": "t_contract(IExecutionManager)7988"
      },
      {
        "astId": 5034,
        "contract": "contracts/LooksRareExchange.sol:LooksRareExchange",
        "label": "royaltyFeeManager",
        "offset": 0,
        "slot": "5",
        "type": "t_contract(IRoyaltyFeeManager)8094"
      },
      {
        "astId": 5037,
        "contract": "contracts/LooksRareExchange.sol:LooksRareExchange",
        "label": "transferSelectorNFT",
        "offset": 0,
        "slot": "6",
        "type": "t_contract(ITransferSelectorNFT)8161"
      },
      {
        "astId": 5044,
        "contract": "contracts/LooksRareExchange.sol:LooksRareExchange",
        "label": "userMinOrderNonce",
        "offset": 0,
        "slot": "7",
        "type": "t_mapping(t_address,t_uint256)"
      },
      {
        "astId": 5050,
        "contract": "contracts/LooksRareExchange.sol:LooksRareExchange",
        "label": "_isUserOrderNonceExecutedOrCancelled",
        "offset": 0,
        "slot": "8",
        "type": "t_mapping(t_address,t_mapping(t_uint256,t_bool))"
      }
    ],
    "types": {
      "t_address": {
        "encoding": "inplace",
        "label": "address",
        "numberOfBytes": "20"
      },
      "t_bool": {
        "encoding": "inplace",
        "label": "bool",
        "numberOfBytes": "1"
      },
      "t_contract(ICurrencyManager)7951": {
        "encoding": "inplace",
        "label": "contract ICurrencyManager",
        "numberOfBytes": "20"
      },
      "t_contract(IExecutionManager)7988": {
        "encoding": "inplace",
        "label": "contract IExecutionManager",
        "numberOfBytes": "20"
      },
      "t_contract(IRoyaltyFeeManager)8094": {
        "encoding": "inplace",
        "label": "contract IRoyaltyFeeManager",
        "numberOfBytes": "20"
      },
      "t_contract(ITransferSelectorNFT)8161": {
        "encoding": "inplace",
        "label": "contract ITransferSelectorNFT",
        "numberOfBytes": "20"
      },
      "t_mapping(t_address,t_mapping(t_uint256,t_bool))": {
        "encoding": "mapping",
        "key": "t_address",
        "label": "mapping(address => mapping(uint256 => bool))",
        "numberOfBytes": "32",
        "value": "t_mapping(t_uint256,t_bool)"
      },
      "t_mapping(t_address,t_uint256)": {
        "encoding": "mapping",
        "key": "t_address",
        "label": "mapping(address => uint256)",
        "numberOfBytes": "32",
        "value": "t_uint256"
      },
      "t_mapping(t_uint256,t_bool)": {
        "encoding": "mapping",
        "key": "t_uint256",
        "label": "mapping(uint256 => bool)",
        "numberOfBytes": "32",
        "value": "t_bool"
      },
      "t_uint256": {
        "encoding": "inplace",
        "label": "uint256",
        "numberOfBytes": "32"
      }
    }
  }
}