{
  "address": "0x641E7F9145082E76bEeada5b726B42f73455E18b",
  "abi": [
    {
      "inputs": [
        {
          "internalType": "address",
          "name": "_marketplace",
          "type": "address"
        }
      ],
      "stateMutability": "nonpayable",
      "type": "constructor"
    },
    {
      "inputs": [],
      "name": "InvalidOrderLength",
      "type": "error"
    },
    {
      "inputs": [
        {
          "internalType": "uint256",
          "name": "length",
          "type": "uint256"
        }
      ],
      "name": "SignatureLengthInvalid",
      "type": "error"
    },
    {
      "inputs": [],
      "name": "SignatureParameterSInvalid",
      "type": "error"
    },
    {
      "inputs": [
        {
          "internalType": "uint8",
          "name": "v",
          "type": "uint8"
        }
      ],
      "name": "SignatureParameterVInvalid",
      "type": "error"
    },
    {
      "inputs": [
        {
          "components": [
            {
              "internalType": "address",
              "name": "signer",
              "type": "address"
            },
            {
              "internalType": "address",
              "name": "collection",
              "type": "address"
            },
            {
              "internalType": "enum CollectionType",
              "name": "collectionType",
              "type": "uint8"
            },
            {
              "internalType": "uint256[]",
              "name": "tokenIds",
              "type": "uint256[]"
            },
            {
              "internalType": "uint256[]",
              "name": "amounts",
              "type": "uint256[]"
            },
            {
              "internalType": "uint256",
              "name": "price",
              "type": "uint256"
            },
            {
              "internalType": "address",
              "name": "currency",
              "type": "address"
            },
            {
              "internalType": "uint256",
              "name": "startTime",
              "type": "uint256"
            },
            {
              "internalType": "uint256",
              "name": "endTime",
              "type": "uint256"
            },
            {
              "internalType": "bytes",
              "name": "signature",
              "type": "bytes"
            }
          ],
          "internalType": "struct BasicOrder[]",
          "name": "orders",
          "type": "tuple[]"
        },
        {
          "internalType": "bytes[]",
          "name": "ordersExtraData",
          "type": "bytes[]"
        },
        {
          "internalType": "bytes",
          "name": "",
          "type": "bytes"
        },
        {
          "internalType": "address",
          "name": "recipient",
          "type": "address"
        },
        {
          "internalType": "bool",
          "name": "isAtomic",
          "type": "bool"
        }
      ],
      "name": "execute",
      "outputs": [],
      "stateMutability": "payable",
      "type": "function"
    },
    {
      "inputs": [],
      "name": "marketplace",
      "outputs": [
        {
          "internalType": "contract ILooksRareExchange",
          "name": "",
          "type": "address"
        }
      ],
      "stateMutability": "view",
      "type": "function"
    },
    {
      "inputs": [
        {
          "internalType": "address",
          "name": "",
          "type": "address"
        },
        {
          "internalType": "address",
          "name": "",
          "type": "address"
        },
        {
          "internalType": "uint256[]",
          "name": "",
          "type": "uint256[]"
        },
        {
          "internalType": "uint256[]",
          "name": "",
          "type": "uint256[]"
        },
        {
          "internalType": "bytes",
          "name": "",
          "type": "bytes"
        }
      ],
      "name": "onERC1155BatchReceived",
      "outputs": [
        {
          "internalType": "bytes4",
          "name": "",
          "type": "bytes4"
        }
      ],
      "stateMutability": "pure",
      "type": "function"
    },
    {
      "inputs": [
        {
          "internalType": "address",
          "name": "",
          "type": "address"
        },
        {
          "internalType": "address",
          "name": "",
          "type": "address"
        },
        {
          "internalType": "uint256",
          "name": "",
          "type": "uint256"
        },
        {
          "internalType": "uint256",
          "name": "",
          "type": "uint256"
        },
        {
          "internalType": "bytes",
          "name": "",
          "type": "bytes"
        }
      ],
      "name": "onERC1155Received",
      "outputs": [
        {
          "internalType": "bytes4",
          "name": "",
          "type": "bytes4"
        }
      ],
      "stateMutability": "pure",
      "type": "function"
    },
    {
      "inputs": [
        {
          "internalType": "address",
          "name": "",
          "type": "address"
        },
        {
          "internalType": "address",
          "name": "",
          "type": "address"
        },
        {
          "internalType": "uint256",
          "name": "",
          "type": "uint256"
        },
        {
          "internalType": "bytes",
          "name": "",
          "type": "bytes"
        }
      ],
      "name": "onERC721Received",
      "outputs": [
        {
          "internalType": "bytes4",
          "name": "",
          "type": "bytes4"
        }
      ],
      "stateMutability": "pure",
      "type": "function"
    },
    {
      "inputs": [
        {
          "internalType": "bytes4",
          "name": "interfaceId",
          "type": "bytes4"
        }
      ],
      "name": "supportsInterface",
      "outputs": [
        {
          "internalType": "bool",
          "name": "",
          "type": "bool"
        }
      ],
      "stateMutability": "pure",
      "type": "function"
    }
  ],
  "transactionHash": "0xdfd4f960946163f7a35c9523cc89e181e9d54fa4c4da558f351396e7094d0e3d",
  "args": [
    "0x7499e71FF8a472D1d82Aa2e68e868B5B92896B0E"
  ],
  "numDeployments": 2,
  "solcInputHash": "849a47590354074bb7c466f5de040de9",
  "bytecode": "0x60a060405234801561001057600080fd5b5060405161138538038061138583398101604081905261002f91610044565b60601b6001600160601b031916608052610074565b60006020828403121561005657600080fd5b81516001600160a01b038116811461006d57600080fd5b9392505050565b60805160601c6112e56100a06000396000818161013c0152818161076a015261083301526112e56000f3fe6080604052600436106100655760003560e01c8063abc8c7af11610043578063abc8c7af1461012a578063bc197c8114610183578063f23a6e61146101cb57600080fd5b806301ffc9a71461006a578063150b7a021461009f578063a809ce3514610115575b600080fd5b34801561007657600080fd5b5061008a610085366004610dd4565b610211565b60405190151581526020015b60405180910390f35b3480156100ab57600080fd5b506100e46100ba366004610bc8565b7f150b7a020000000000000000000000000000000000000000000000000000000095945050505050565b6040517fffffffff000000000000000000000000000000000000000000000000000000009091168152602001610096565b610128610123366004610caf565b6102aa565b005b34801561013657600080fd5b5061015e7f000000000000000000000000000000000000000000000000000000000000000081565b60405173ffffffffffffffffffffffffffffffffffffffff9091168152602001610096565b34801561018f57600080fd5b506100e461019e366004610b0d565b7fbc197c810000000000000000000000000000000000000000000000000000000098975050505050505050565b3480156101d757600080fd5b506100e46101e6366004610c37565b7ff23a6e61000000000000000000000000000000000000000000000000000000009695505050505050565b60007fffffffff0000000000000000000000000000000000000000000000000000000082167f150b7a020000000000000000000000000000000000000000000000000000000014806102a457507fffffffff0000000000000000000000000000000000000000000000000000000082167f4e2312e000000000000000000000000000000000000000000000000000000000145b92915050565b858015806102b85750808514155b156102ef576040517fc588f91000000000000000000000000000000000000000000000000000000000815260040160405180910390fd5b60005b818110156105ba573689898381811061030d5761030d611251565b905060200281019061031f9190611195565b9050600088888481811061033557610335611251565b90506020028101906103479190611130565b8101906103549190610e37565b60408051610200810182526000602080830182905292820181905260608083018290526080830182905260a0830182905260c0830182905260e0830182905261010083018290526101208301829052610140830182905261016083018290526101808301526101a082018190526101c082018190526101e0820152600181529192506103e290840184610aeb565b73ffffffffffffffffffffffffffffffffffffffff166020808301919091526104119060408501908501610aeb565b73ffffffffffffffffffffffffffffffffffffffff16604082015261043960608401846110c8565b600081811061044a5761044a611251565b60200291909101356080808401919091528351606084015261046f91508401846110c8565b600081811061048057610480611251565b6020908102929092013560a084015250606083015173ffffffffffffffffffffffffffffffffffffffff1660c0808401919091526040840151610100840152908301516101608301526104d99060e08501908501610aeb565b73ffffffffffffffffffffffffffffffffffffffff1660e080830191909152830135610120808301919091526101008401356101408301526000908190819061052d9061052890880188611130565b6105c5565b60ff166101a08701526101c08601919091526101e085015250506040805160c08101825260008082526060808301828152608080850193845260a08086018490523060208701528a01358587015287015190526101608601519091529092506105ab91839185918c916105a591908a01908a01610e16565b8b610722565b846001019450505050506102f2565b505050505050505050565b600080808360418114156105ed578535935060208601359250604086013560001a915061066c565b806040141561063257853593507f7fffffffffffffffffffffffffffffffffffffffffffffffffffffffffffffff6020870135908116935060ff1c601b01915061066c565b6040517fd42b4bbd000000000000000000000000000000000000000000000000000000008152600481018290526024015b60405180910390fd5b7f7fffffffffffffffffffffffffffffff5d576e7357a4501ddfe92f46681b20a08311156106c6576040517fc185125200000000000000000000000000000000000000000000000000000000815260040160405180910390fd5b8160ff16601b141580156106de57508160ff16601c14155b1561071a576040517f417893a400000000000000000000000000000000000000000000000000000000815260ff83166004820152602401610663565b509250925092565b80156107f15760408086015190517fb4e4b29600000000000000000000000000000000000000000000000000000000815273ffffffffffffffffffffffffffffffffffffffff7f0000000000000000000000000000000000000000000000000000000000000000169163b4e4b296916107a19089908990600401610f0c565b6000604051808303818588803b1580156107ba57600080fd5b505af11580156107ce573d6000803e3d6000fd5b50505050506107ec8285604001518587608001518860a001516108be565b6108b7565b60408086015190517fb4e4b29600000000000000000000000000000000000000000000000000000000815273ffffffffffffffffffffffffffffffffffffffff7f0000000000000000000000000000000000000000000000000000000000000000169163b4e4b2969161086a9089908990600401610f0c565b6000604051808303818588803b15801561088357600080fd5b505af193505050508015610895575060015b61089e576108b7565b6108b78285604001518587608001518860a001516108be565b5050505050565b60008560018111156108d2576108d2611222565b141561096b576040517f23b872dd00000000000000000000000000000000000000000000000000000000815230600482015273ffffffffffffffffffffffffffffffffffffffff8481166024830152604482018490528516906323b872dd90606401600060405180830381600087803b15801561094e57600080fd5b505af1158015610962573d6000803e3d6000fd5b505050506108b7565b600185600181111561097f5761097f611222565b14156108b7576040517ff242432a00000000000000000000000000000000000000000000000000000000815230600482015273ffffffffffffffffffffffffffffffffffffffff8481166024830152604482018490526064820183905260a06084830152600060a483015285169063f242432a9060c401600060405180830381600087803b158015610a1057600080fd5b505af11580156105ba573d6000803e3d6000fd5b803573ffffffffffffffffffffffffffffffffffffffff81168114610a4857600080fd5b919050565b60008083601f840112610a5f57600080fd5b50813567ffffffffffffffff811115610a7757600080fd5b6020830191508360208260051b8501011115610a9257600080fd5b9250929050565b80358015158114610a4857600080fd5b60008083601f840112610abb57600080fd5b50813567ffffffffffffffff811115610ad357600080fd5b602083019150836020828501011115610a9257600080fd5b600060208284031215610afd57600080fd5b610b0682610a24565b9392505050565b60008060008060008060008060a0898b031215610b2957600080fd5b610b3289610a24565b9750610b4060208a01610a24565b9650604089013567ffffffffffffffff80821115610b5d57600080fd5b610b698c838d01610a4d565b909850965060608b0135915080821115610b8257600080fd5b610b8e8c838d01610a4d565b909650945060808b0135915080821115610ba757600080fd5b50610bb48b828c01610aa9565b999c989b5096995094979396929594505050565b600080600080600060808688031215610be057600080fd5b610be986610a24565b9450610bf760208701610a24565b935060408601359250606086013567ffffffffffffffff811115610c1a57600080fd5b610c2688828901610aa9565b969995985093965092949392505050565b60008060008060008060a08789031215610c5057600080fd5b610c5987610a24565b9550610c6760208801610a24565b94506040870135935060608701359250608087013567ffffffffffffffff811115610c9157600080fd5b610c9d89828a01610aa9565b979a9699509497509295939492505050565b600080600080600080600060a0888a031215610cca57600080fd5b873567ffffffffffffffff80821115610ce257600080fd5b610cee8b838c01610a4d565b9099509750602091508982013581811115610d0857600080fd5b610d148c828d01610a4d565b90985096505060408a013581811115610d2c57600080fd5b8a01601f81018c13610d3d57600080fd5b803582811115610d4f57610d4f611280565b610d7f847fffffffffffffffffffffffffffffffffffffffffffffffffffffffffffffffe0601f840116016111d3565b92508083528c84828401011115610d9557600080fd5b8084830185850137600084828501015250508094505050610db860608901610a24565b9150610dc660808901610a99565b905092959891949750929550565b600060208284031215610de657600080fd5b81357fffffffff0000000000000000000000000000000000000000000000000000000081168114610b0657600080fd5b600060208284031215610e2857600080fd5b813560028110610b0657600080fd5b600060808284031215610e4957600080fd5b6040516080810181811067ffffffffffffffff82111715610e6c57610e6c611280565b8060405250823581526020830135602082015260408301356040820152610e9560608401610a24565b60608201529392505050565b6000815180845260005b81811015610ec757602081850181015186830182015201610eab565b81811115610ed9576000602083870101525b50601f017fffffffffffffffffffffffffffffffffffffffffffffffffffffffffffffffe0169290920160200192915050565b60408152600061010084511515604084015273ffffffffffffffffffffffffffffffffffffffff602086015116606084015260408501516080840152606085015160a0840152608085015160c084015260a085015160c060e0850152610f7482850182610ea1565b848103602086015285511515815290506102006020860151610fae602084018273ffffffffffffffffffffffffffffffffffffffff169052565b506040860151610fd6604084018273ffffffffffffffffffffffffffffffffffffffff169052565b50606086015160608301526080860151608083015260a086015160a083015260c086015161101c60c084018273ffffffffffffffffffffffffffffffffffffffff169052565b5060e086015161104460e084018273ffffffffffffffffffffffffffffffffffffffff169052565b5085830151928201929092526101208086015190820152610140808601519082015261016080860151908201526101808086015181830184905290929061108d82840182610ea1565b935050506101a0808601516110a68284018260ff169052565b50506101c085810151908201526101e094850151940193909352509092915050565b60008083357fffffffffffffffffffffffffffffffffffffffffffffffffffffffffffffffe18436030181126110fd57600080fd5b83018035915067ffffffffffffffff82111561111857600080fd5b6020019150600581901b3603821315610a9257600080fd5b60008083357fffffffffffffffffffffffffffffffffffffffffffffffffffffffffffffffe184360301811261116557600080fd5b83018035915067ffffffffffffffff82111561118057600080fd5b602001915036819003821315610a9257600080fd5b600082357ffffffffffffffffffffffffffffffffffffffffffffffffffffffffffffffec18336030181126111c957600080fd5b9190910192915050565b604051601f82017fffffffffffffffffffffffffffffffffffffffffffffffffffffffffffffffe016810167ffffffffffffffff8111828210171561121a5761121a611280565b604052919050565b7f4e487b7100000000000000000000000000000000000000000000000000000000600052602160045260246000fd5b7f4e487b7100000000000000000000000000000000000000000000000000000000600052603260045260246000fd5b7f4e487b7100000000000000000000000000000000000000000000000000000000600052604160045260246000fdfea264697066735822122073ce290d788a99b350d50ec9a3460bd9cc8cf68d730b47bd920655521bf8b95964736f6c63430008070033",
  "devdoc": {
    "kind": "dev",
    "methods": {
      "constructor": {
        "params": {
          "_marketplace": "LooksRareExchange's address"
        }
      },
      "execute((address,address,uint8,uint256[],uint256[],uint256,address,uint256,uint256,bytes)[],bytes[],bytes,address,bool)": {
        "details": "extraData is not used",
        "params": {
          "isAtomic": "Flag to enable atomic trades (all or nothing) or partial trades",
          "orders": "Orders to be executed by LooksRare",
          "ordersExtraData": "Extra data for each order",
          "recipient": "The address to receive the purchased NFTs"
        }
      },
      "supportsInterface(bytes4)": {
        "details": "Returns true if this contract implements the interface defined by `interfaceId`. See the corresponding https://eips.ethereum.org/EIPS/eip-165#how-interfaces-are-identified[EIP section] to learn more about how these ids are created. This function call must use less than 30 000 gas."
      }
    },
    "title": "LooksRareProxy",
    "version": 1
  },
  "userdoc": {
    "errors": {
      "SignatureLengthInvalid(uint256)": [
        {
          "notice": "It is emitted if the signature's length is neither 64 nor 65 bytes."
        }
      ],
      "SignatureParameterSInvalid()": [
        {
          "notice": "It is emitted if the signature is invalid due to S parameter."
        }
      ],
      "SignatureParameterVInvalid(uint8)": [
        {
          "notice": "It is emitted if the signature is invalid due to V parameter."
        }
      ]
    },
    "kind": "user",
    "methods": {
      "execute((address,address,uint8,uint256[],uint256[],uint256,address,uint256,uint256,bytes)[],bytes[],bytes,address,bool)": {
        "notice": "Execute LooksRare NFT sweeps in a single transaction"
      }
    },
    "notice": "This contract allows NFT sweepers to batch buy NFTs from LooksRare         by passing high-level structs + low-level bytes as calldata.",
    "version": 1
  },
  "storageLayout": {
    "storage": [],
    "types": null
  }
}