{
  "address": "0xba7f962bCD57AF719Eb01B9CF5fB496ADBB3Ec03",
  "abi": [
    {
      "inputs": [
        {
          "internalType": "address",
          "name": "_looksRareExchange",
          "type": "address"
        }
      ],
      "stateMutability": "nonpayable",
      "type": "constructor"
    },
    {
      "inputs": [],
      "name": "LOOKS_RARE_EXCHANGE",
      "outputs": [
        {
          "internalType": "address",
          "name": "",
          "type": "address"
        }
      ],
      "stateMutability": "view",
      "type": "function"
    },
    {
      "inputs": [
        {
          "internalType": "address",
          "name": "collection",
          "type": "address"
        },
        {
          "internalType": "address",
          "name": "from",
          "type": "address"
        },
        {
          "internalType": "address",
          "name": "to",
          "type": "address"
        },
        {
          "internalType": "uint256",
          "name": "tokenId",
          "type": "uint256"
        },
        {
          "internalType": "uint256",
          "name": "",
          "type": "uint256"
        }
      ],
      "name": "transferNonFungibleToken",
      "outputs": [],
      "stateMutability": "nonpayable",
      "type": "function"
    }
  ],
  "transactionHash": "0x6b479c97a9a325b8094efded55a61c20998d3b530099e8923f1ddfc6ebddbdb8",
  "args": [
    "0xdfe9a23670dA391A33065a3493Dd3245CB00655A"
  ],
  "numDeployments": 2,
  "solcInputHash": "9b1f25f60f25cdea13c82d221bb53b0c",
  "bytecode": "0x60a060405234801561001057600080fd5b5060405161034b38038061034b83398101604081905261002f91610044565b60601b6001600160601b031916608052610074565b60006020828403121561005657600080fd5b81516001600160a01b038116811461006d57600080fd5b9392505050565b60805160601c6102b4610097600039600081816055015260b801526102b46000f3fe608060405234801561001057600080fd5b50600436106100365760003560e01c806333f2fa9f1461003b5780633dd7df5014610050575b600080fd5b61004e610049366004610229565b6100a0565b005b6100777f000000000000000000000000000000000000000000000000000000000000000081565b60405173ffffffffffffffffffffffffffffffffffffffff909116815260200160405180910390f35b3373ffffffffffffffffffffffffffffffffffffffff7f00000000000000000000000000000000000000000000000000000000000000001614610169576040517f08c379a000000000000000000000000000000000000000000000000000000000815260206004820152602160248201527f5472616e736665723a204f6e6c79204c6f6f6b73526172652045786368616e6760448201527f6500000000000000000000000000000000000000000000000000000000000000606482015260840160405180910390fd5b6040517f42842e0e00000000000000000000000000000000000000000000000000000000815273ffffffffffffffffffffffffffffffffffffffff85811660048301528481166024830152604482018490528616906342842e0e90606401600060405180830381600087803b1580156101e157600080fd5b505af11580156101f5573d6000803e3d6000fd5b505050505050505050565b803573ffffffffffffffffffffffffffffffffffffffff8116811461022457600080fd5b919050565b600080600080600060a0868803121561024157600080fd5b61024a86610200565b945061025860208701610200565b935061026660408701610200565b9497939650939460608101359450608001359291505056fea264697066735822122097437c36c64cd652d59b1521ac37eb66f80eed9a37000d797e952a4f7bbc4d1664736f6c63430008070033",
  "devdoc": {
    "kind": "dev",
    "methods": {
      "constructor": {
        "params": {
          "_looksRareExchange": "address of the LooksRare exchange"
        }
      },
      "transferNonFungibleToken(address,address,address,uint256,uint256)": {
        "details": "For ERC721, amount is not used",
        "params": {
          "collection": "address of the collection",
          "from": "address of the sender",
          "to": "address of the recipient",
          "tokenId": "tokenId"
        }
      }
    },
    "title": "TransferManagerERC721",
    "version": 1
  },
  "userdoc": {
    "kind": "user",
    "methods": {
      "constructor": {
        "notice": "Constructor"
      },
      "transferNonFungibleToken(address,address,address,uint256,uint256)": {
        "notice": "Transfer ERC721 token"
      }
    },
    "notice": "It allows the transfer of ERC721 tokens.",
    "version": 1
  },
  "storageLayout": {
    "storage": [],
    "types": null
  }
}