{
  "address": "0x000c42Fa5614d24c8d6c5f208F4992bAee96A941",
  "abi": [
    {
      "inputs": [
        {
          "internalType": "address",
          "name": "_transferManagerERC721",
          "type": "address"
        },
        {
          "internalType": "address",
          "name": "_transferManagerERC1155",
          "type": "address"
        }
      ],
      "stateMutability": "nonpayable",
      "type": "constructor"
    },
    {
      "anonymous": false,
      "inputs": [
        {
          "indexed": true,
          "internalType": "address",
          "name": "collection",
          "type": "address"
        },
        {
          "indexed": true,
          "internalType": "address",
          "name": "transferManager",
          "type": "address"
        }
      ],
      "name": "CollectionTransferManagerAdded",
      "type": "event"
    },
    {
      "anonymous": false,
      "inputs": [
        {
          "indexed": true,
          "internalType": "address",
          "name": "collection",
          "type": "address"
        }
      ],
      "name": "CollectionTransferManagerRemoved",
      "type": "event"
    },
    {
      "anonymous": false,
      "inputs": [
        {
          "indexed": true,
          "internalType": "address",
          "name": "previousOwner",
          "type": "address"
        },
        {
          "indexed": true,
          "internalType": "address",
          "name": "newOwner",
          "type": "address"
        }
      ],
      "name": "OwnershipTransferred",
      "type": "event"
    },
    {
      "inputs": [],
      "name": "INTERFACE_ID_ERC1155",
      "outputs": [
        {
          "internalType": "bytes4",
          "name": "",
          "type": "bytes4"
        }
      ],
      "stateMutability": "view",
      "type": "function"
    },
    {
      "inputs": [],
      "name": "INTERFACE_ID_ERC721",
      "outputs": [
        {
          "internalType": "bytes4",
          "name": "",
          "type": "bytes4"
        }
      ],
      "stateMutability": "view",
      "type": "function"
    },
    {
      "inputs": [],
      "name": "TRANSFER_MANAGER_ERC1155",
      "outputs": [
        {
          "internalType": "address",
          "name": "",
          "type": "address"
        }
      ],
      "stateMutability": "view",
      "type": "function"
    },
    {
      "inputs": [],
      "name": "TRANSFER_MANAGER_ERC721",
      "outputs": [
        {
          "internalType": "address",
          "name": "",
          "type": "address"
        }
      ],
      "stateMutability": "view",
      "type": "function"
    },
    {
      "inputs": [
        {
          "internalType": "address",
          "name": "collection",
          "type": "address"
        },
        {
          "internalType": "address",
          "name": "transferManager",
          "type": "address"
        }
      ],
      "name": "addCollectionTransferManager",
      "outputs": [],
      "stateMutability": "nonpayable",
      "type": "function"
    },
    {
      "inputs": [
        {
          "internalType": "address",
          "name": "collection",
          "type": "address"
        }
      ],
      "name": "checkTransferManagerForToken",
      "outputs": [
        {
          "internalType": "address",
          "name": "transferManager",
          "type": "address"
        }
      ],
      "stateMutability": "view",
      "type": "function"
    },
    {
      "inputs": [],
      "name": "owner",
      "outputs": [
        {
          "internalType": "address",
          "name": "",
          "type": "address"
        }
      ],
      "stateMutability": "view",
      "type": "function"
    },
    {
      "inputs": [
        {
          "internalType": "address",
          "name": "collection",
          "type": "address"
        }
      ],
      "name": "removeCollectionTransferManager",
      "outputs": [],
      "stateMutability": "nonpayable",
      "type": "function"
    },
    {
      "inputs": [],
      "name": "renounceOwnership",
      "outputs": [],
      "stateMutability": "nonpayable",
      "type": "function"
    },
    {
      "inputs": [
        {
          "internalType": "address",
          "name": "",
          "type": "address"
        }
      ],
      "name": "transferManagerSelectorForCollection",
      "outputs": [
        {
          "internalType": "address",
          "name": "",
          "type": "address"
        }
      ],
      "stateMutability": "view",
      "type": "function"
    },
    {
      "inputs": [
        {
          "internalType": "address",
          "name": "newOwner",
          "type": "address"
        }
      ],
      "name": "transferOwnership",
      "outputs": [],
      "stateMutability": "nonpayable",
      "type": "function"
    }
  ],
  "transactionHash": "0xa94fdf00a066c5ea3018e9d255498a003ed09eb311b2ed0cc17c0480b2e08159",
  "args": [
    "0x228eEe02D8D2c414035696Bd8FDe42Ff84BCFB79",
    "0xfBe0309Ff807b21912A5B39F85cFe9FDE5B7d266"
  ],
  "numDeployments": 4,
  "solcInputHash": "9099ef5d26ff0339240f102b147ad587",
  "bytecode": "0x60c060405234801561001057600080fd5b50604051610c91380380610c9183398101604081905261002f916100c2565b61003833610056565b6001600160601b0319606092831b8116608052911b1660a0526100f5565b600080546001600160a01b038381166001600160a01b0319831681178455604051919092169283917f8be0079c531659141344cd1fd0a4f28419497f9722a3daafe3b4186f6b6457e09190a35050565b80516001600160a01b03811681146100bd57600080fd5b919050565b600080604083850312156100d557600080fd5b6100de836100a6565b91506100ec602084016100a6565b90509250929050565b60805160601c60a05160601c610b6361012e6000396000818161014501526108c801526000818161020001526107df0152610b636000f3fe608060405234801561001057600080fd5b50600436106100c95760003560e01c8063715018a611610081578063bc6bc0cd1161005b578063bc6bc0cd14610222578063cc15949314610249578063f2fde38b1461025c57600080fd5b8063715018a6146101d55780638da5cb5b146101dd578063b1357ddd146101fb57600080fd5b806338928956116100b257806338928956146101405780634216a7531461018c5780637053fb79146101c257600080fd5b806325c6a895146100ce57806333bf6156146100e3575b600080fd5b6100e16100dc366004610ad8565b61026f565b005b61010a7fd9b67a260000000000000000000000000000000000000000000000000000000081565b6040517fffffffff0000000000000000000000000000000000000000000000000000000090911681526020015b60405180910390f35b6101677f000000000000000000000000000000000000000000000000000000000000000081565b60405173ffffffffffffffffffffffffffffffffffffffff9091168152602001610137565b61016761019a366004610ab6565b60016020526000908152604090205473ffffffffffffffffffffffffffffffffffffffff1681565b6100e16101d0366004610ab6565b6104b7565b6100e1610660565b60005473ffffffffffffffffffffffffffffffffffffffff16610167565b6101677f000000000000000000000000000000000000000000000000000000000000000081565b61010a7f80ac58cd0000000000000000000000000000000000000000000000000000000081565b610167610257366004610ab6565b6106ed565b6100e161026a366004610ab6565b6108ed565b60005473ffffffffffffffffffffffffffffffffffffffff1633146102f5576040517f08c379a000000000000000000000000000000000000000000000000000000000815260206004820181905260248201527f4f776e61626c653a2063616c6c6572206973206e6f7420746865206f776e657260448201526064015b60405180910390fd5b73ffffffffffffffffffffffffffffffffffffffff8216610398576040517f08c379a000000000000000000000000000000000000000000000000000000000815260206004820152602860248201527f4f776e65723a20436f6c6c656374696f6e2063616e6e6f74206265206e756c6c60448201527f206164647265737300000000000000000000000000000000000000000000000060648201526084016102ec565b73ffffffffffffffffffffffffffffffffffffffff811661043b576040517f08c379a000000000000000000000000000000000000000000000000000000000815260206004820152602d60248201527f4f776e65723a205472616e736665724d616e616765722063616e6e6f7420626560448201527f206e756c6c20616464726573730000000000000000000000000000000000000060648201526084016102ec565b73ffffffffffffffffffffffffffffffffffffffff82811660008181526001602052604080822080547fffffffffffffffffffffffff0000000000000000000000000000000000000000169486169485179055517fda166be6ba0ebb71be3f83e7d669765de552ea08978bfe3e3e42d54174111b629190a35050565b60005473ffffffffffffffffffffffffffffffffffffffff163314610538576040517f08c379a000000000000000000000000000000000000000000000000000000000815260206004820181905260248201527f4f776e61626c653a2063616c6c6572206973206e6f7420746865206f776e657260448201526064016102ec565b73ffffffffffffffffffffffffffffffffffffffff818116600090815260016020526040902054166105ec576040517f08c379a000000000000000000000000000000000000000000000000000000000815260206004820152602960248201527f4f776e65723a20436f6c6c656374696f6e20686173206e6f207472616e73666560448201527f72206d616e61676572000000000000000000000000000000000000000000000060648201526084016102ec565b73ffffffffffffffffffffffffffffffffffffffff811660008181526001602052604080822080547fffffffffffffffffffffffff0000000000000000000000000000000000000000169055517f8c3bf4babc197f3db0e7ec65aaf23fc0efb0e689436aeea8514c3f01fd97841f9190a250565b60005473ffffffffffffffffffffffffffffffffffffffff1633146106e1576040517f08c379a000000000000000000000000000000000000000000000000000000000815260206004820181905260248201527f4f776e61626c653a2063616c6c6572206973206e6f7420746865206f776e657260448201526064016102ec565b6106eb6000610a1d565b565b73ffffffffffffffffffffffffffffffffffffffff80821660009081526001602052604090205416806108e8576040517f01ffc9a70000000000000000000000000000000000000000000000000000000081527f80ac58cd00000000000000000000000000000000000000000000000000000000600482015273ffffffffffffffffffffffffffffffffffffffff8316906301ffc9a79060240160206040518083038186803b15801561079f57600080fd5b505afa1580156107b3573d6000803e3d6000fd5b505050506040513d601f19601f820116820180604052508101906107d79190610b0b565b1561080357507f0000000000000000000000000000000000000000000000000000000000000000919050565b6040517f01ffc9a70000000000000000000000000000000000000000000000000000000081527fd9b67a2600000000000000000000000000000000000000000000000000000000600482015273ffffffffffffffffffffffffffffffffffffffff8316906301ffc9a79060240160206040518083038186803b15801561088857600080fd5b505afa15801561089c573d6000803e3d6000fd5b505050506040513d601f19601f820116820180604052508101906108c09190610b0b565b156108e857507f00000000000000000000000000000000000000000000000000000000000000005b919050565b60005473ffffffffffffffffffffffffffffffffffffffff16331461096e576040517f08c379a000000000000000000000000000000000000000000000000000000000815260206004820181905260248201527f4f776e61626c653a2063616c6c6572206973206e6f7420746865206f776e657260448201526064016102ec565b73ffffffffffffffffffffffffffffffffffffffff8116610a11576040517f08c379a000000000000000000000000000000000000000000000000000000000815260206004820152602660248201527f4f776e61626c653a206e6577206f776e657220697320746865207a65726f206160448201527f646472657373000000000000000000000000000000000000000000000000000060648201526084016102ec565b610a1a81610a1d565b50565b6000805473ffffffffffffffffffffffffffffffffffffffff8381167fffffffffffffffffffffffff0000000000000000000000000000000000000000831681178455604051919092169283917f8be0079c531659141344cd1fd0a4f28419497f9722a3daafe3b4186f6b6457e09190a35050565b803573ffffffffffffffffffffffffffffffffffffffff811681146108e857600080fd5b600060208284031215610ac857600080fd5b610ad182610a92565b9392505050565b60008060408385031215610aeb57600080fd5b610af483610a92565b9150610b0260208401610a92565b90509250929050565b600060208284031215610b1d57600080fd5b81518015158114610ad157600080fdfea2646970667358221220c7e94460c82c817468d6e43a427a4c7409671218364a3f14ce52f84837ed578464736f6c63430008070033",
  "devdoc": {
    "kind": "dev",
    "methods": {
      "addCollectionTransferManager(address,address)": {
        "details": "It is meant to be used for exceptions only (e.g., CryptoKitties)",
        "params": {
          "collection": "collection address to add specific transfer rule"
        }
      },
      "checkTransferManagerForToken(address)": {
        "details": "Support for ERC165 interface is checked AFTER custom implementation",
        "params": {
          "collection": "collection address"
        }
      },
      "constructor": {
        "params": {
          "_transferManagerERC1155": "address of the ERC1155 transfer manager",
          "_transferManagerERC721": "address of the ERC721 transfer manager"
        }
      },
      "owner()": {
        "details": "Returns the address of the current owner."
      },
      "removeCollectionTransferManager(address)": {
        "params": {
          "collection": "collection address to remove exception"
        }
      },
      "renounceOwnership()": {
        "details": "Leaves the contract without owner. It will not be possible to call `onlyOwner` functions anymore. Can only be called by the current owner. NOTE: Renouncing ownership will leave the contract without an owner, thereby removing any functionality that is only available to the owner."
      },
      "transferOwnership(address)": {
        "details": "Transfers ownership of the contract to a new account (`newOwner`). Can only be called by the current owner."
      }
    },
    "title": "TransferSelectorNFT",
    "version": 1
  },
  "userdoc": {
    "kind": "user",
    "methods": {
      "addCollectionTransferManager(address,address)": {
        "notice": "Add a transfer manager for a collection"
      },
      "checkTransferManagerForToken(address)": {
        "notice": "Check the transfer manager for a token"
      },
      "constructor": {
        "notice": "Constructor"
      },
      "removeCollectionTransferManager(address)": {
        "notice": "Remove a transfer manager for a collection"
      }
    },
    "notice": "It selects the NFT transfer manager based on a collection address.",
    "version": 1
  },
  "storageLayout": {
    "storage": [
      {
        "astId": 7,
        "contract": "contracts/TransferSelectorNFT.sol:TransferSelectorNFT",
        "label": "_owner",
        "offset": 0,
        "slot": "0",
        "type": "t_address"
      },
      {
        "astId": 6790,
        "contract": "contracts/TransferSelectorNFT.sol:TransferSelectorNFT",
        "label": "transferManagerSelectorForCollection",
        "offset": 0,
        "slot": "1",
        "type": "t_mapping(t_address,t_address)"
      }
    ],
    "types": {
      "t_address": {
        "encoding": "inplace",
        "label": "address",
        "numberOfBytes": "20"
      },
      "t_mapping(t_address,t_address)": {
        "encoding": "mapping",
        "key": "t_address",
        "label": "mapping(address => address)",
        "numberOfBytes": "32",
        "value": "t_address"
      }
    }
  }
}